:0200000280007C
:1000000000CE0720413708003D3708003D37080083
:100010003D3708003D3708003D370800000000006C
:10002000000000000000000000000000C5100800F3
:100030003D3708000000000055110800911108002C
:100040003D3708003D3708003D3708003D370800C0
:100050003D3708003D3708003D3708003D370800B0
:100060003D3708003D370800000000000935080052
:1000700025350800413508005D3508000000000006
:10008000000000003D3708003D3708003D370800FC
:100090003D3708003D3708003D3708003D37080070
:1000A0003D370800000000003D3708003D370800DC
:1000B0003D3708003D3708003D3708003D37080050
:1000C0003D3708003D3708003D3708003D37080040
:1000D0003D3708003D3708003D3708003D37080030
:1000E0003D3708003D3708003D3708003D37080020
:1000F0003D37080008B50548054B191A062900D8F0
:1001000008BD044A002AFBD09047F9E7249E080066
:10011000279E08000000000008B50748074B191A81
:100120008A1002EBD273591000D108BD044A002A8C
:10013000FBD09047F9E700BF249E0800249E0800EA
:100140000000000010B5064C237843B9FFF7D2FF3A
:10015000044810B10448AFF300800121217010BDA4
:100160000809072000000000249E080008B5084B7D
:100170001BB108480849AFF300800848016811B175
:10018000074A02B19047BDE80840FFF7C5BF00BF6E
:1001900000000000249E08000C090720249E08008F
:1001A0000000000038B54FF01B0043F2B965C0F203
:1001B0000805A8474FF00004C4F2080420464FF099
:1001C00000010A4642F67163C0F2080398472046D0
:1001D0004FF0000142F68D62C0F2080290472046BF
:1001E0004FF0000142F69564C0F20804A0474FF0BA
:1001F0002500A8474FF00004C4F20C0420464FF439
:10020000F441C0F603214FF43452C0F231124FF0E2
:10021000000340F22935C0F20805A84720464FF0F8
:1002200000014FF440124FF0010340F28935C0F253
:100230000805A84720464FF0100140F26933C0F28C
:100240000803984720464FF00A0140F2B132C0F24D
:100250000802904720464FF0807140F2D133C0F23F
:100260000803984720464FF000010A4640F27933D0
:10027000C0F20803984738BD38B505464FF0000472
:10028000C4F20C04204640F2A933C0F20803984798
:100290002046294640F2BD32C0F20802904738BDE0
:1002A0002DE9F8430C46904648BB002A2BDD8F18F9
:1002B0004AF6F446C2F207064AF6FC35C2F20705D2
:1002C0006FEA010907EB090000F0010930682B68AB
:1002D000984704F10104BC4219D10DE030682B6845
:1002E0002146984704F10104214630682A68904766
:1002F00004F10104BC42F1D14046BDE8F8834FF05F
:10030000FF30BDE8F8834FF00000BDE8F883B9F195
:10031000000FE3D030682A682146904704F10104B9
:10032000BC42DBD1E8E700BF30B44FF00104046009
:100330004FF00004446040F20225C0F82051C0F89C
:100340000441C0F8144145682B434FEA4202B1FB17
:10035000F2F101F1FF324FEA026143EA11434360D7
:10036000204630BC704700BF436823F01002426053
:100370004368194341607047436819434FEAC2120A
:10038000D3B219434160704710B4446822434FEA26
:10039000016101F0706422434FEA037303F040519E
:1003A0000A43426010BC70474FF00203036070477D
:1003B0004FF0010303FA01F1016170470F2904D8DE
:1003C00001F1140150F8210070474FF00000704710
:1003D00041627047F0B583B004460D464FF000030C
:1003E00001934FF40060C4F20E0084420DD14FF42B
:1003F0000066C4F20E0642F6FD67C0F208073046FA
:100400002946B8470028FAD12BE04FF40041C4F246
:1004100009018C420FD14FF40046C4F2090642F69E
:100420003577C0F20807304601A9B8470028FAD14D
:10043000019828702BE04FF44042C4F20902944224
:100440000FD14FF44044C4F2090442F63576C0F2AD
:100450000806204601A9B0470028FAD1019B2B705D
:100460002AE04FF00001C4F20A018C420FD14FF094
:100470000004C4F20A0442F63576C0F208062046AB
:1004800001A9B0470028FAD10198287014E04FF470
:100490008042C4F20A0294420ED14FF48044C4F266
:1004A0000A0442F63576C0F20806204601A9B04794
:1004B0000028FAD1019B2B7003B0F0BD70B50C463B
:1004C0004FF40063C4F20E0398420FD14FF400655D
:1004D000C4F20E0542F6E566C0F20806284621463B
:1004E000B0470028FAD14FF0010070BD4FF4004131
:1004F000C4F2090188420FD14FF40045C4F2090546
:1005000042F61576C0F2080628462146B047002874
:10051000FAD14FF0010070BD4FF44042C4F209021D
:1005200090420FD14FF44045C4F2090542F61576CA
:10053000C0F2080628462146B0470028FAD14FF0FD
:10054000010070BD4FF00003C4F20A0398420FD1BE
:100550004FF00005C4F20A0542F61576C0F208060F
:1005600028462146B0470028FAD14FF0010070BD5F
:100570004FF48041C4F20A0188420FD14FF4804504
:10058000C4F20A0542F61576C0F20806284621464E
:10059000B0470028FAD14FF0010070BD4FF00000C5
:1005A00070BD00BF30B585B04FF46064C4F20E0476
:1005B00020464FF000614FF440724FF0000343F2C9
:1005C0004D15C0F20805A8474FF0080043F2B96383
:1005D000C0F2080398474FF43D40C0F2015001902B
:1005E0004FF4E13102914FF4006203924FF48073B3
:1005F000636663656362C4F88030206F20F48071A5
:1006000021674FF40060C4F20E0001A942F6A16216
:10061000C0F20802904705B030BD00BF30B585B0CC
:100620004FF40064C4F20E044AF6F443C2F2070326
:100630001C604AF6F040C2F2070040F2BD42C0F230
:10064000080202604AF6FC31C2F2070140F2D535D9
:10065000C0F208050D604FF43D43C0F20153019311
:100660004FF4E13002904FF4006203924FF0080023
:1006700043F2B961C0F208018847204601A942F659
:10068000A164C0F20804A04740F21805C2F20705B1
:100690002B6898684FF0000144F2B354C0F208048C
:1006A000A047286840684FF00001A0472A6890687A
:1006B0004FF00001A04705B030BD00BF00B583B0CA
:1006C0004FF40060C4F20E000DF1070142F6FD6325
:1006D000C0F2080398479DF8070003B000BD00BFB3
:1006E0004FF40063C4F20E03586900F00100704734
:1006F0004FF40062C4F20E02536913F0010FFBD0F5
:100700004FF00100704700BF00B585B04FF0000307
:1007100001930293ADF80C3049F67C20C0F208003A
:1007200001A944F25152C0F20802904701A844F2D4
:100730009141C0F20801884705B000BD70B440F691
:100740002413C2F207031C6840F8241004F10104CA
:10075000B4FBF2F102FB11441C60BAB1034600EB9A
:100760008206301AA0F10400C0F3800153F8040B94
:10077000B34211D10CE0194651F8045B2C185D68A6
:1007800001F104032819B342F5D101E04FF0000054
:10079000B0FBF2F070BC70470029ECD053F8041B9A
:1007A0000818B342E7D1F3E72DE9F04F83B088464C
:1007B00014461D4643F6B569C0F20809C847064607
:1007C0000F464046C847CDE9000144F2D51AC0F2B1
:1007D000080A20462946DDE91023D04702460B4689
:1007E00043F68178C0F20808DDE90001C0470246FF
:1007F0000B4643F61D4BC0F2080B30463946D8472E
:10080000CDE900010C98C84702460B4630463946F0
:1008100043F61946C0F20806B04706460F46DDE922
:10082000120122462B46D04702460B463046394637
:10083000C04702460B46DDE90001D847DDE90E233B
:10084000C04744F2A533C0F20803984714994018F2
:1008500003B0BDE8F08F00BF00B585B04FF02400B5
:1008600043F2B963C0F20803984744F24020C0F253
:100870000F0001904FF0000102914FF43D42C0F291
:10088000015203924FF48040C4F2090001A942F6DC
:10089000C143C0F20803984705B000BD38B54FF416
:1008A0008044C4F2090420464FF0000142F665631B
:1008B000C0F2080398474AF6A041C2F207014FF080
:1008C0000B0048604FF064020A614FF00005CD60F4
:1008D0000D60204642F60D53C0F2080398474FF4CE
:1008E0009050C4F20E004FF080514FF0040243F2DA
:1008F0007D03C0F2080398472046294642F6596214
:10090000C0F20802904738BD08B50A46642968D885
:10091000A0F106001E2864D8DFE800F0101E2C3A73
:100920006363636363636363636363636363636397
:100930006363636363636363486356004FF480409B
:10094000C4F209004AF6C841C2F2070142F6356313
:10095000C0F20803984708BD4FF48040C4F2090074
:100960004AF67841C2F2070142F63563C0F2080345
:10097000984708BD4FF48040C4F209004AF6504140
:10098000C2F2070142F63563C0F20803984708BD7A
:100990004FF48040C4F209004AF62841C2F2070130
:1009A00042F63563C0F20803984708BD4FF4804013
:1009B000C4F209004AF6A041C2F2070142F63563CB
:1009C000C0F20803984708BD4FF48040C4F2090004
:1009D0004AF60041C2F2070142F63563C0F208034D
:1009E000984708BD10B584B04FF0030300934FF053
:1009F000000301930293039340F6C520C0F2080060
:100A000049F68021C0F208014FF4806241F6D124FA
:100A1000C0F20804A047012808D049F69020C0F28F
:100A2000080044F21151C0F2080188474FF002005B
:100A300000904FF0000301930293039340F675700A
:100A4000C0F2080049F6A821C0F208014FF4806204
:100A500041F6D124C0F20804A047012808D049F685
:100A60009020C0F2080044F21152C0F208029047F0
:100A70004FF0010300934FF000030193029303939F
:100A800040F66D50C0F2080049F6B421C0F20801EA
:100A90004FF4806241F6D124C0F20804A047012837
:100AA00008D049F69020C0F2080044F21151C0F27B
:100AB0000801884741F67150C0F20800804704B031
:100AC00010BD00BF2DE9F04F8DB041F60D63C0F2AF
:100AD000080398470CAC44F8040D40F20407C2F236
:100AE000070742F2AD16C0F2080640F64815C2F2FA
:100AF000070540F2792AC0F2080A20463968B04753
:100B000028780128F9D14FF00A00D047014640F675
:100B10002810C2F207004FF0040240F23D73C0F209
:100B200008039847814640F20001C2F207010A68B3
:100B3000C0EB020840F65C10C2F20700036808EB45
:100B4000030EC0F800E0B8F1000F06DA40F63812E4
:100B5000C2F20702D2F800B038E040F66811C2F2E3
:100B60000701D1E9002340F65810C2F207000168DE
:100B7000009140F66010C2F2070003C8CDE90201FF
:100B800040F65011C2F20701D1E90001CDE904019C
:100B900040F64011C2F20701D1E90001CDE906019A
:100BA00040F63811C2F207010868089040467146C5
:100BB00040F2A97CC0F2080CE047642804DC80EA1B
:100BC000E07BABEBE07B01E04FF0640B40F65813A9
:100BD000C2F20703C3F800804FF02200594640F6E6
:100BE0000912C0F2080290475846494640F6417340
:100BF000C0F20803984780E7A0F11400142856D8E3
:100C0000DFE800F00B555555551A555555552955E2
:100C10005555553855555555470040F20003C2F219
:100C2000070340F2D1121A6040F63810C2F20700F2
:100C30004FF036010160704740F20003C2F2070333
:100C400040F2A9121A6040F63810C2F207004FF0C5
:100C50002D010160704740F20003C2F2070340F229
:100C60009F121A6040F63810C2F207004FF02701B9
:100C70000160704740F20003C2F207034FF4C872EC
:100C80001A6040F63810C2F207004FF020010160F0
:100C9000704740F20003C2F207034FF4C3721A60B8
:100CA00040F63810C2F207004FF01B010160704798
:100CB00040F64813C2F207034FF001021A70704762
:100CC00008B54FF0000140F64813C2F2070319704F
:100CD00040F65810C2F20700016040F65C12C2F202
:100CE000070211604FF0220040F60913C0F208031A
:100CF000984708BD70B50E4614461D4640F6F933B8
:100D0000C0F20803984740F20400C2F207000660F0
:100D1000304643F69561C0F2080188474FF0000263
:100D20004FF48043C4F28F0344F2D516C0F2080694
:100D3000B04740F66812C2F20702C2E9000140F66D
:100D40006013C2F20703C3E9004540F65010C2F237
:100D50000700DDE90423C0E9002340F64011C2F298
:100D60000701DDE90623C1E9002370BD2DE9F04F3D
:100D700087B040F2E166C0F2080640F2BD67C0F2FB
:100D8000080740F2F168C0F20808B0470028FCD01C
:100D9000B847A0F164000328F7D8DFE800F0020D9F
:100DA000183A40F6B142C0F20802904740F6296571
:100DB000C0F20805A847E8E740F6C140C0F20800C5
:100DC000804740F63961C0F208018847DDE7C04737
:100DD000B8478346C047B8478246C04740F20979C2
:100DE000C0F20809C847CDE90401C047C847044616
:100DF0000D46C047C847CDE90045CDE90201584638
:100E00005146DDE9042340F6F544C0F20804A0474A
:100E1000BBE7C047B84701464FF0220040F6091330
:100E2000C0F208039847B0E740F67013C2F2070318
:100E30004FF001021A70704740F67013C2F20703B8
:100E40004FF000021A70704740F6C013C2F2070359
:100E500003F1480153F8042F43F8042C586843F871
:100E6000040B8B42F6D1704708B540F6C013C2F2AE
:100E700007031868F0B140F6C011C2F20701CA6C4E
:100E80007AB940F6C013C2F207034FF0010053F8DD
:100E9000041F89B100F10102104653F8041F61B923
:100EA00008BD40F64960C0F2080080474FF01300CB
:100EB00008BD08BD4FF0000008BD02F10100132875
:100EC000E5D1F6E740F67413C2F2070303F14801D7
:100ED00053F8042F43F8042C586843F8040B8B4252
:100EE000F6D1704708B540F67413C2F207031868CC
:100EF000F0B140F67411C2F20701CA6C7AB940F63B
:100F00007413C2F207034FF0010053F8041F89B1B4
:100F100000F10102104653F8041F61B908BD40F604
:100F2000C560C0F2080080474FF0130008BD08BD3F
:100F30004FF0000008BD02F101001328E5D1F6E7EB
:100F400038B505460C4640F66963C0F20803984779
:100F500040F6C011C2F2070141F8205040F6E560AA
:100F6000C0F20800804740F67412C2F2070242F84D
:100F7000204038BD2DE9F04182B041F60D63C0F24A
:100F800008039847019042F2AD15C0F2080540F6FB
:100F90007014C2F2070449F66C27C0F2080740F645
:100FA000C018C2F2070801A84FF0FA01A84720783C
:100FB0000128F8D13846D8F8001044F21156C0F292
:100FC0000806B047384640F67411C2F207010968B6
:100FD000B04740F64962C0F20802904740F6C56348
:100FE000C0F208039847DEE700F1080343604FF0C2
:100FF000FF328260C36003614FF0000101607047FF
:101000004FF000030361704743685A684A604268C2
:101010008A605A689160596041600861016801F115
:1010200001010160704700BF10B40C68B4F1FF3FCC
:1010300001D103690AE000F10803C2681268944212
:1010400004D35B685A6812689442FAD25A684A60BC
:1010500091608B6059600861016801F101010160D4
:1010600010BC7047436882689A60816843684B602F
:1010700001694A68824204BF82684A604FF00003F7
:101080000361086800F1FF320A600868704700BF1A
:1010900003480068006880F3088862B600DF00BF7C
:1010A00008ED00E04FF0807340F8043C40F8081C65
:1010B0004FF0000140F80C1C40F8202CA0F140003B
:1010C000704700BF064B19680868B0E8F00F80F35E
:1010D00009884FF0000080F311884EF00D0E704724
:1010E000D4AA07204EF60453CEF200034FF08052EC
:1010F0001A607047EFF311804FF0A00181F311885F
:1011000070474FF0000000BF08B541F2F503C0F290
:101110000803984740F20800C2F20700026802F193
:101120000102026008BD00BF80F31188704700BF54
:1011300008B540F20802C2F20702136803F1FF305B
:10114000106030B94FF0000041F22911C0F20801DF
:10115000884708BDEFF309800C4B1A6820E9F00FAF
:1011600010602DE908404FF0A00080F3118801F0D5
:1011700077F84FF0000080F31188BDE80840196847
:101180000868B0E8F00F80F309887047D4AA0720F8
:1011900008B54EF60453CEF200034FF080521A60A9
:1011A00041F2F500C0F20800804741F63161C0F21B
:1011B000080188474FF0000041F22913C0F20803EC
:1011C000984708BD4EF21403CEF2000344F61F0206
:1011D000C0F201021A604EF21000CEF200004FF091
:1011E00007010160704700BF10B54EF62053CEF2E4
:1011F00000031A6842F470001860196841F07044E6
:101200001C6041F2C513C0F2080398474FF0000478
:1012100040F20802C2F20702146041F29100C0F2EB
:1012200008008047204610BD30B44AF61422C2F2AE
:10123000070200E01A4613688342FBD31146546844
:101240001519854203D16868041954601046426834
:101250008418A3420FD14AF61024C2F2070424686E
:101260009C4206D05B689A1842600B681A6802605C
:1012700002E0036000E00360814218BF086030BCF8
:10128000704700BF38B5044641F6F953C0F2080371
:1012900098474AF61020C2F20700016821BB4AF6BF
:1012A0001422C2F2070240F61023C2F207031360B1
:1012B0004FF00001516003F51F4202F1F0004AF6C1
:1012C0001025C2F207052860C2F8F410C2F8F01029
:1012D00049F6F0715960186040F20C03C2F207033E
:1012E0001A68A2F110021A60002C3CD004F110021E
:1012F00012F0070F1CBF22F00702083202F1FF3084
:1013000049F6FE75A84231D84AF61421C2F2070107
:101310000C6801E02146044663689A4202D92068BD
:101320000028F7D14AF61025C2F207052B689C4227
:101330001FD00D6805F110052068086061688B1AE0
:10134000202B07D9A0184360626041F22922C0F225
:101350000802904740F20C00C2F20700036861687F
:101360005A1A026007E04FF0000504E04FF0000554
:1013700001E04FF0000541F6C170C0F2080080475F
:10138000284638BD10B50446C8B141F6F953C0F23D
:101390000803984740F20C00C2F20700016854F8B5
:1013A0000C2C8B180360A4F1100041F22921C0F22B
:1013B0000801884741F6C170C0F20800804710BD9F
:1013C000F8B5044641F20913C0F208039847A06C2F
:1013D00000281ADD616A19B917E0616A51B914E091
:1013E00004F1240642F2E935C0F2080542F26D57D5
:1013F000C0F208073046A84700B1B847A26C02F116
:10140000FF33A364A06C0028E7DC4FF0FF32A26436
:1014100041F23113C0F20803984741F20910C0F2BB
:1014200008008047616C00291ADD22691AB917E0AB
:10143000226952B914E004F1100642F2E935C0F213
:10144000080542F26D57C0F208073046A84700B1C0
:10145000B847636C03F1FF306064616C0029E7DC1E
:101460004FF0FF33636441F23110C0F2080080474F
:10147000F8BD00BF38B50346056875B1026CC46895
:10148000A418C4604068844228BFDD600846D9685B
:1014900044F29153C0F20803984738BD10B5044692
:1014A000036C63B9016800292ED1406842F2596388
:1014B000C0F2080398474FF00000606024E082B952
:1014C00080681A4644F29153C0F208039847A26814
:1014D000216C5018A0606368984215D32268A260FE
:1014E00012E0C0681A4644F29153C0F208039847CC
:1014F000226CC2F10000E1680B18E360226893429D
:1015000002D261680818E060A26B02F10102A263D6
:1015100010BD00BF38B50D46044630B941F2F504A0
:10152000C0F20804A04700BFFDE741F20913C0F272
:10153000080398472368E06B226C00FB023161606E
:101540004FF00001A163A36000F1FF3002FB003304
:10155000E3604FF0FF326264A26485B92169C1B1D2
:1015600004F1100042F2E933C0F208039847012861
:101570000FD141F2E500C0F20800804709E004F114
:10158000100040F6E975C0F20805A84704F12400F0
:10159000A84741F23112C0F2080290474FF0010013
:1015A00038BD00BFF8B50D4617460646E0B14FF00E
:1015B000500041F28523C0F208039847044698B1D1
:1015C00006FB05F000F1010041F28521C0F208019F
:1015D0008847206070B9204641F28532C0F2080287
:1015E000904701E000BFFDE741F2F500C0F20800BE
:1015F0008047F7E7E663256420464FF0010141F29A
:101600001553C0F20803984784F84D702046F8BD82
:101610002DE9F04F85B08A4601920093044630B917
:1016200041F2F504C0F20804A04700BFFDE741B94C
:10163000036C4BB141F2F500C0F20800804700BFD7
:10164000FDE74FF0000701E04FF0000741F20916F7
:10165000C0F2080642F2914BC0F2080B41F231157C
:10166000C0F20805B047A26BE16B8A421FD2204648
:101670005146009A41F29D43C0F208039847616ABF
:1016800069B104F1240042F2E932C0F20802904745
:10169000012804D141F2E500C0F20800804741F280
:1016A0003113C0F2080398474FF0010066E0019B38
:1016B0003BB941F23112C0F2080290474FF00000EE
:1016C0005CE01FB902A8D8474FF00107A84741F6D0
:1016D000F950C0F208008047B047626CB2F1FF3F9A
:1016E00004BF00226264A16CB1F1FF3F04BF00217E
:1016F000A164A84702A801A942F2C143C0F20803AD
:10170000984770BBB047D4F83890D4F83C80A847CD
:10171000C1451AD104F11000019942F22132C0F200
:1017200008029047204641F2C131C0F208018847C3
:1017300041F6C170C0F208008047002892D141F202
:10174000E503C0F2080398478CE7204641F2C13117
:10175000C0F20801884741F6C173C0F208039847F8
:1017600080E7204641F2C132C0F20802904741F6BC
:10177000C170C0F2080080474FF0000005B0BDE81E
:10178000F08F00BF2DE9F0410E46154698460446FD
:1017900030B941F2F505C0F20805A84700BFFDE7E2
:1017A00041B9036C33B141F2F500C0F20800804743
:1017B00000BFFDE741F2F501C0F208018847074686
:1017C000A26BE36B9A4221D220463146424641F257
:1017D0009D43C0F208039847A06CB0F1FF3F0ED1C3
:1017E000626AB2B104F1240042F2E934C0F20804A2
:1017F000A04788B19DB14FF001042C6011E0A16CAD
:1018000001F10101A1644FF001040AE04FF000046E
:1018100007E04FF0010404E04FF0010401E04FF055
:101820000104384641F22913C0F2080398472046C4
:10183000BDE8F0812DE9F04F85B0894601929A46C6
:10184000044630B941F2F504C0F20804A04700BFD5
:10185000FDE741B9036C4BB141F2F500C0F208005D
:10186000804700BFFDE74FF0000701E04FF00007A1
:1018700041F20916C0F2080642F2914BC0F2080B81
:1018800041F23115C0F20805B047A16B00293FD0E5
:10189000E5682046494641F27543C0F2080398477F
:1018A000BAF1000F1CD1A36B03F1FF30A0632168D4
:1018B00029B942F27D52C0F2080290476060236964
:1018C000F3B104F1100042F2E931C0F20801884797
:1018D000012815D141F2E500C0F2080080470FE071
:1018E000E560606A60B104F1240042F2E931C0F2BF
:1018F0000801884720B141F2E502C0F20802904792
:1019000041F23112C0F2080290474FF0010071E03D
:10191000019A3AB941F23112C0F2080290474FF0F1
:10192000000067E01FB902A8D8474FF00107A84799
:1019300041F6F953C0F208039847B047606CB0F124
:10194000FF3F04BF00206064A16CB1F1FF3F04BF02
:101950000021A164A84702A801A942F2C142C0F235
:1019600008029047002838D1B047D4F83880A847FB
:10197000B8F1000F25D123683BB9B047606842F247
:10198000B151C0F208018847A84704F12400019929
:1019900042F22132C0F208029047204641F2C133A0
:1019A000C0F20803984741F6C170C0F208008047B2
:1019B00000287FF469AF41F2E501C0F208018847D1
:1019C00062E7204641F2C131C0F20801884741F682
:1019D000C172C0F20802904756E7204641F2C13377
:1019E000C0F20803984741F6C170C0F20800804772
:1019F0004FF0000005B0BDE8F08F00BF38B50446D9
:101A00000D4641F20913C0F208039847606CB0F12B
:101A1000FF3F04BF00206064A16CB1F1FF3F04BF31
:101A20000021A16441F23112C0F208029047A36B79
:101A30003BB904F12400294642F29532C0F2080273
:101A40009047204641F2C131C0F20801884738BDB5
:101A500010B504464AF6D423C2F20703186844605E
:101A60004AF6F021C2F207010A68944211D24AF6FE
:101A7000F422C2F2070210684AF6D423C2F2070326
:101A8000196801F1040141F22902C0F208029047ED
:101A900010BD4AF63423C2F2070318684AF6D4216F
:101AA000C2F20701096801F1040141F22902C0F202
:101AB0000802904740F21000C2F2070003689C42FF
:101AC00004D240F21001C2F207010C6010BD00BF49
:101AD0002DE9F84F0F4690469A460A9D0C9E814686
:101AE00030B941F2F507C0F20807B84700BFFDE77B
:101AF000042D06D941F2F505C0F20805A84700BF3C
:101B0000FDE74FF04C0041F28523C0F208039847EF
:101B10000446002800F02781002E40F022814FEA81
:101B2000880041F28521C0F20801884706462063FB
:101B300030B9204641F28532C0F20802904712E1E6
:101B400030464FF0A5014FEA880244F2A356C0F296
:101B50000806B04708F1FF38206B00EB880222F03E
:101B6000070B04F1340039464FF00A0244F2EF67E4
:101B7000C0F20807B8474FF0000384F83D30042D49
:101B800034BF2E460426E662A66404F104073846F4
:101B900041F20108C0F20808C04704F11800C0472C
:101BA0002461C6F10506A66164625846494652465C
:101BB00041F2A503C0F208039847206010F0070F18
:101BC00006D041F2F504C0F20804A04700BFFDE7CB
:101BD0000B9901B10C6041F20910C0F20800804776
:101BE0004AF61433C2F207031A6802F101021A60BE
:101BF0004AF6D421C2F207010868002849D14AF602
:101C0000D421C2F207010C604AF61430C2F2070078
:101C10000368012B50D14AF66C29C2F207094846E5
:101C200040F6E976C0F20806B04709F11400B04763
:101C300009F12800B04709F13C00B04709F1500014
:101C4000B0474AF6FC29C2F207094846B0474AF6AF
:101C50005428C2F207084046B0474AF6D820C2F2DC
:101C60000700B0474AF64020C2F20700B0474AF6E4
:101C70002020C2F20700B0474AF63422C2F207021F
:101C8000C2F800904AF6F421C2F20701C1F80080C0
:101C900012E04AF63823C2F207031A6862B94AF61C
:101CA000D421C2F207010868C36A9D4204D34AF6F0
:101CB000D422C2F207021460E06A4AF61833C2F274
:101CC00007031A68904204D94AF61831C2F2070194
:101CD00008604AF6F823C2F207031A68226402F188
:101CE00001021A604AF66821C2F207010B689842A5
:101CF00004D94AF66822C2F20702106000EB8001A4
:101D00004AF66C200346C2F2070303EB8100394612
:101D100041F20902C0F20802904741F23111C0F2CB
:101D2000080188474AF63820C2F20700036883B1E9
:101D30004AF6D422C2F207021168C86A85420CD959
:101D400041F2E503C0F2080398474FF00100BDE8F7
:101D5000F88F4FF00100BDE8F88F4FF00100BDE8AB
:101D6000F88F0663ECE64FF0FF30BDE8F88F00BF58
:101D700010B584B04FF000030093019302930393D6
:101D800042F20D10C0F2080049F6D421C0F2080159
:101D90004FF0820241F6D124C0F20804A047012886
:101DA0001FD142F29573C0F208039847012818D159
:101DB00041F2F501C0F2080188474AF63823C2F221
:101DC00007034FF001021A604AF6F020C2F2070042
:101DD0004FF00001016041F2E913C0F20803984797
:101DE00007E030B941F2F500C0F20800804700BFBB
:101DF000FDE704B010BD00BF4AF6D023C2F20703CE
:101E00001A6802F101021A60704700BF10B541F272
:101E10000913C0F2080398474AF6F020C2F20700FF
:101E2000046841F23111C0F208018847204610BD14
:101E30002DE9F84F4AF6D023C2F2070318680028AC
:101E400040F0B3804AF6F023C2F20703186800F1AD
:101E5000010018601968002939D14AF63422C2F20B
:101E600007021368186830B141F2F505C0F20805A1
:101E7000A84700BFFDE74AF63423C2F207031968FA
:101E80004AF6F422C2F207021068186011604AF69E
:101E9000EC22C2F20702116801F1010111601B6816
:101EA000186838B940F21003C2F207034FF0FF3050
:101EB00018600CE04AF63422C2F207021168CB68BF
:101EC000D868426840F21001C2F207010A604AF67F
:101ED000F022C2F20702116840F21003C2F20703B7
:101EE0001868814269D34AF63422C2F207021168A7
:101EF0000B687BB14AF63424C2F207042068C2683A
:101F0000D46863684AF6F021C2F207010868834288
:101F10001AD912E040F21003C2F207034FF0FF306B
:101F20001860BDE8F88F3468E268D4686368484692
:101F3000C2F2070001688B421CD940F21002C2F2C3
:101F400007021360BDE8F88F41F26507C0F2080789
:101F50004AF66828C2F207084AF66C2BC2F2070B51
:101F600041F2090AC0F2080A4AF63426C2F207060C
:101F70004AF6F02904F104052846B847A36A13B1CC
:101F800004F11800B847E16AD8F80020914288BFF0
:101F9000C8F8001001EB81000BEB80002946D04708
:101FA000336819680029BED1B4E74AF61C21C2F291
:101FB00007010A6802F101020A60BDE8F88F00BF5C
:101FC0002DE9F0474AF6D023C2F20703186830B96A
:101FD00041F2F505C0F20805A84700BFFDE741F250
:101FE0000911C0F2080188474AF6D024C2F207045A
:101FF000226802F1FF3323602068002878D14AF676
:102000001431C2F207010C684CBB4FF0000474E0BD
:10201000D8F80C20D46804F11800B84704F104097A
:102020004846B847E36A3068834288BF3360514608
:10203000C2F2070103EB830201EB8200494641F241
:102040000903C0F2080398474AF6D420C2F20700F9
:102050000168E46ACA6A944228BF01250FE04FF084
:1020600000054AF6D828C2F2070841F26507C0F217
:1020700008074AF66826C2F207064AF66C2AD8F81C
:102080000020002AC4D14AF61C23C2F207031868B4
:10209000B0B14AF61C22C2F207021368CBB141F676
:1020A0003165C0F208054AF61C24C2F20704A847AD
:1020B000206800F1FF3121602268002AF7D108E092
:1020C000012D06D04AF61031C2F207010C68012C2E
:1020D00011D14AF61033C2F207034FF000041C601E
:1020E00041F2E500C0F2080080474FF0010404E02F
:1020F0004FF0000401E04FF0000441F23111C0F252
:10210000080188472046BDE8F08700BF2DE9F84365
:102110004AF63C25C2F2070541F6F958C0F2080814
:102120004AF64026C2F2070641F6C1772DE0C047C5
:1021300034683B46C0F20803984734B341F20910B3
:10214000C0F208008047F168CC6804F1040041F255
:102150006502C0F2080290474AF61433C2F2070340
:10216000186800F1FF3119602A6802F1FF332B6013
:1021700041F23110C0F208008047206B41F28539EE
:10218000C0F20809C8472046C8472B68002BCED1AB
:102190004AF66C20C2F2070001680129F5D941F224
:1021A000E502C0F208029047EFE700BF38B50C46E1
:1021B000054630B941F2F504C0F20804A04700BF5B
:1021C000FDE731B941F2F505C0F20805A84700BFA7
:1021D000FDE741F6F953C0F208039847286804194F
:1021E0004AF6F022C2F20702116888420AD9A042D8
:1021F00032D94AF6F022C2F2070211682C608C42F2
:102200001CD909E0A04225D84AF6F023C2F2070300
:10221000186884421ED81FE04AF6D423C2F207038E
:10222000186800F1040041F26502C0F2080290470C
:10223000204641F65121C0F20801884741F6C1709D
:10224000C0F20800804748B941F2E503C0F2080334
:10225000984738BD2C60DFE72C60EFE738BD00BF42
:1022600008B54AF6D023C2F207031868A8B94AF69F
:102270006821C2F207010A6802EB82034FEA830079
:102280004AF66C21C2F207010A5852BB4AF668238B
:10229000C2F20703186888B909E04AF61031C2F2A1
:1022A00007014FF00100086008BD1A6872B941F2D9
:1022B000F503C0F20803984700BFFDE74AF668231C
:1022C000C2F207034AF66C21C2F207011A6802F152
:1022D000FF3018601A6802EB820051F82020002AB3
:1022E000E3D04AF66823C2F20703196801EB8100C4
:1022F0004AF66C22C2F2070202EB80035968486872
:10230000586003F10802904204BF406858605B685F
:10231000D9684AF6D420C2F20700016008BD00BFA8
:1023200038B50C4630B941F2F504C0F20804A047B4
:1023300000BFFDE74AF6D425C2F20705296801F17E
:10234000180141F22902C0F208029047286800F102
:10235000040041F26501C0F208018847B4F1FF3F73
:102360000CD129684AF62020C2F2070001F10401CD
:1023700041F20903C0F20803984738BD4AF6F0203D
:10238000C2F207000368E01841F65122C0F20802C9
:10239000904738BD38B50D4630B941F2F504C0F26A
:1023A0000804A04700BFFDE74AF6D424C2F20704A0
:1023B000216801F1180141F20902C0F208029047B8
:1023C000206800F1040041F26501C0F2080188476D
:1023D0004AF6F020C2F207000368E81841F65122DD
:1023E000C0F20802904738BD38B5C368DC6834B91C
:1023F00041F2F504C0F20804A04700BFFDE704F174
:102400001805284641F26501C0F2080188474AF6DE
:10241000D020C2F20700026822BB04F1040528465E
:1024200041F26501C0F208018847E06A4AF6682275
:10243000C2F207021368984204D94AF66821C2F230
:102440000701086000EB80034AF66C200246C2F2E6
:10245000070202EB8300294641F20903C0F2080398
:10246000984709E04AF6D820C2F20700294641F20F
:102470000903C0F2080398474AF6D421C2F20701C3
:102480000A68E06AD36A984234BF0020012038BD50
:1024900008B5034630B941F2F503C0F20803984786
:1024A00000BFFDE74AF6EC22C2F20702106818608E
:1024B0004AF6F021C2F207010A685A6008BD00BF5F
:1024C00038B50D46044630B941F2F502C0F20802B3
:1024D000904700BFFDE731B941F2F505C0F20805AC
:1024E000A84700BFFDE741F20913C0F2080398476F
:1024F0002868B0F1FF3F29D04AF6EC22C2F2070269
:10250000116823688B4207D04AF6F022C2F2070214
:10251000116863688B421CD94AF6F022C2F20702A6
:1025200011686368CA1A904216D94AF6F021C2F2BD
:1025300007010A689B1A18182860204642F2914445
:10254000C0F20804A0474FF0000407E04FF0000479
:1025500004E04FF0010401E04FF0010441F23111B9
:10256000C0F208018847204638BD00BF4AF6103344
:10257000C2F207034FF001021A6070474AF6D423F3
:10258000C2F20703186870474AF63823C2F20703FD
:10259000186848B14AF6D021C2F207010A68002A39
:1025A00014BF0220012070474FF00000704700BFA9
:1025B00038B5044600284ED0C36A4AF6D422C2F287
:1025C00007021068C16A8B4245D24AF6D422C2F291
:1025D00007021068C16AC1F10502A26103EB83031F
:1025E0004AF66C20C2F2070000EB830162698A425E
:1025F0002AD104F10405284641F26502C0F208021E
:1026000090474AF6D423C2F207031868C16AE16210
:102610004AF66822C2F207021368994204D94AF6C0
:102620006820C2F20700016001EB81014AF66C22CA
:102630001346C2F2070303EB8100294641F2090267
:10264000C0F20802904738BD4AF6D423C2F207030D
:102650001868C16AE16238BD38B5044650B3C26A31
:10266000836C9A4226D000F10405284641F26501A8
:10267000C0F208018847A06CE062C0F10502A261C7
:102680004AF66823C2F207031968884204D94AF659
:102690006822C2F20702106000EB80034AF66C2049
:1026A000C2F2070000EB8300294641F20902C0F2A2
:1026B0000802904738BD00BF70B541F20913C0F25F
:1026C000080398474AF64C30C2F20700016849BB3C
:1026D0004AF62035C2F20705284640F6E976C0F2F0
:1026E0000806B0474AF63434C2F207042046B04721
:1026F0004AF61C32C2F2070215604AF65033C2F2A3
:1027000007031C604FF005004FF00C014FF0000272
:1027100041F2A553C0F2080398474AF64C31C2F281
:102720000701086041F23110C0F20800804770BD17
:1027300010B5044641602061914212D8D01AA169B7
:10274000884221D24AF65033C2F20703186804F1D6
:10275000040141F22902C0F2080290474FF0000044
:1027600010BD9A4201D2994211D24AF61C33C2F2EC
:102770000703186804F1040141F22902C0F20802BB
:1027800090474FF0000010BD4FF0010010BD4FF01A
:10279000010010BD10B584B042F2B963C0F2080365
:1027A00098474AF64C30C2F207000168B9B14FF0C1
:1027B000040200924FF0000301930293039342F648
:1027C0003510C0F2080049F6E021C0F208014FF4CC
:1027D000827241F6D124C0F20804A04730B941F218
:1027E000F504C0F20804A04700BFFDE704B010BD27
:1027F00010B584B04AF64C34C2F2070424682CB3F6
:10280000019102920390B3B942F28953C0F20803D6
:10281000984701284AF64C33C2F20703186801A909
:1028200007BF069A00230022134641F21164C0F24A
:102830000804A0470CE0204601A91A464FF0000307
:1028400041F28574C0F20804A04701E04FF0000097
:1028500004B010BD2DE9F04F85B0824641F60D63FE
:10286000C0F20803984781464AF64830C2F2070092
:10287000016889454FD22BE0DC682668DD68EC688A
:1028800004F104052846C047616A20468847E0698C
:1028900001282CD1A369F218B24209D962602461DF
:1028A0003868294641F22903C0F2080398471EE020
:1028B000CDF800B02046594632465B46039CA047FF
:1028C000A8B941F2F506C0F20806B04700BFFDE71F
:1028D0004AF61C37C2F2070741F26508C0F2080841
:1028E0004FF0000B42F2F173C0F2080303933B6810
:1028F00018680028C0D14AF65032C2F207021168A7
:102900004AF61C30C2F20700016013604FF0010369
:10291000CAF8003003E04FF00002CAF800204AF67F
:102920004832C2F20702C2F80090484605B0BDE83E
:10293000F08F00BF2DE9F04F89B04AF61C3BC2F280
:10294000070B41F6F953C0F20803039342F6550A08
:10295000C0F2080ADBF800000268002A00F0C48018
:10296000C7683D68039B984704A8D047064604986B
:10297000002850D1B54237D841F6C177C0F20807D8
:10298000B847DBF80030D868C46804F1040041F2AD
:102990006502C0F208029047E16901291ED1A769CA
:1029A0002046E91932462B4642F23176C0F208063B
:1029B000B047012812D14FF000030093204619467A
:1029C0002A4642F2F175C0F20805A84730B941F233
:1029D000F507C0F20807B84700BFFDE7636A204665
:1029E00098471DE04FF000054AF64C31C2F207014E
:1029F0000868A91B41F6FD16C0F20806B04741F66B
:102A0000C174C0F20804A04750B941F2E505C0F214
:102A10000805A84704E041F6C172C0F208029047D9
:102A200004A8D04707464AF64C36C2F2070641F6DC
:102A30003505C0F2080541F26508C0F2080842F207
:102A40003179C0F2080946E0079C24B1606910B1F1
:102A500004F10400C047059A022A26D0032A34D084
:102A6000002A38D1069BA169204659183A46C84722
:102A7000012830D1636A20469847E06901282AD1AD
:102A8000A2694FF00003009320461946069C1219D4
:102A900042F2F174C0F20804A047E0B941F2F50532
:102AA000C0F20805A84700BFFDE7069BA36133B944
:102AB00041F2F506C0F20806B04700BFFDE7204628
:102AC000F9183A463B46C84705E0204641F28531B1
:102AD000C0F208018847306805A94FF0000213468C
:102AE000A8470028B0D135E70399884704A8D04704
:102AF0000646049C002C3FF475AF8CE72DE9F843A3
:102B00000D46904600F1FF30022824D832B34AF631
:102B1000F446C2F207064AF6F047C2F207074FF042
:102B2000000402F1FF3909F0010930683B68095DD2
:102B30009847A0421ADA14E030683B68295D98474C
:102B400000280EDB04F1010430683A68295D9047E3
:102B500000281DDA05E04FF0FF3404E04FF00004D8
:102B600001E04FF0FF342046BDE8F88304F1010492
:102B7000A045F8D0B9F1000FDED030683A68295D81
:102B800090470028EDDB04F10104A045D4D1EAE729
:102B900004F10104A045CFD1E5E700BFF0B48CB04B
:102BA00006460F4601AC49F6E825C0F208050FCDF0
:102BB0000FC40FCD0FC495E8070084E80700019B00
:102BC000B7FBF3F0B0FBF6F1B1F5807F52D9029973
:102BD000B7FBF1F2B2FBF6F1B1F5807F4DD9039B63
:102BE000B7FBF3F0B0FBF6F1B1F5807F48D904995B
:102BF000B7FBF1F2B2FBF6F1B1F5807F43D9059B4B
:102C0000B7FBF3F0B0FBF6F1B1F5807F3ED9069942
:102C1000B7FBF1F2B2FBF6F1B1F5807F39D9079B32
:102C2000B7FBF3F0B0FBF6F1B1F5807F34D908992A
:102C3000B7FBF1F2B2FBF6F1B1F5807F2FD9099B1A
:102C4000B7FBF3F0B0FBF6F1B1F5807F2AD90A9912
:102C5000B7FBF1F2B2FBF6F1B1F5807F25D90B9B02
:102C6000B7FBF3F0B0FBF6F1B1F5807F20D94FF65A
:102C7000FF7021E04FF000021CE04FF0010219E06C
:102C80004FF0020216E04FF0030213E04FF004028F
:102C900010E04FF005020DE04FF006020AE04FF0A1
:102CA000070207E04FF0080204E04FF0090201E0DC
:102CB0004FF00A0241EA02200CB0F0BC704700BF9E
:102CC00070B506460C46086858B1896842F69D33CF
:102CD000C0F2080398474FF6FF71884214D00546AA
:102CE00001E04FF00005606858B1A16842F69D32DE
:102CF000C0F2080290474FF6FF73984204D045EAAD
:102D0000004535604FF0000070BD00BF70B40B6827
:102D10008D8A4A6802F00F0425430E8935438A7A6A
:102D200045EA42258C7D45EA0446CA7D46EA42458D
:102D30000C7E45EA844603F110024FEA421544191D
:102D40004651CE6866600A6900EB4315C5F80C224F
:102D50008C7D3CB18E8B4A8B42EA064500EB4314D6
:102D6000C4F81852856C4FF0011606FA03F66FEAA4
:102D700006021540CE7F06FA03F68C7F04FA03F4B0
:102D800044EA06442C438464456C2A4091F821505F
:102D900005FA03F591F8204004FA03F444EA0544E7
:102DA000224342644FF0010202FA03F291F82240FA
:102DB0001CB1046A1443046203E0046A24EA0204B6
:102DC000046291F82440012C846E0CBF1443944398
:102DD000846691F82540012C846E0CBF44EA0242BF
:102DE00024EA02428266032B0FD8C46E4FEAC30363
:102DF0004FF0FF0202FA03F224EA020291F82310D4
:102E000001FA03F31A43C26610E0A3F10403046F4E
:102E10004FEAC3034FF0FF0202FA03F224EA020270
:102E200091F8231001FA03F31A4302674FF00000F0
:102E300070BC704710B40C680B69934207D3CA602A
:102E400000EB4410C0F808224FF0000001E04FF6FC
:102E5000FF7010BC704700BF4FF0010303FA01F18F
:102E6000416070474FF0010303FA01F18160704740
:102E700010B44FEA811143184FF0020444504FF050
:102E8000FF309862196A5A6010BC7047C0F8C410CD
:102E9000704700BF4FEA81114FF002034350704763
:102EA00010B44FF0AC0303600A684C68B2FBF4F353
:102EB0004FEA131303F1FF344FF6FE7294420CD81D
:102EC00003628968416040F20223C0F820314FF06C
:102ED000500202604FF0000001E04FF0010010BC12
:102EE000704700BF436913F0020F03D0C1614FF078
:102EF000000070474FF00100704700BF436913F0B6
:102F0000010F04D0806908704FF0000070474FF047
:102F100001007047436913F0020F07D04FEAC15117
:102F20004FEAD152C2614FF0000070474FF00100EC
:102F3000704700BF436913F0010F08D080694FEA62
:102F4000C0524FEAD2530B604FF0000070474FF071
:102F50000100704710B54FF43D40C0F2015043F6F8
:102F60004123C0F2080398474FF000004FF03E01A4
:102F700043F21962C0F20802904743F28964C0F23A
:102F80000804A0470028FCD043F29960C0F2080072
:102F900080474FF4C061C4F20E0143F60173C2F2E0
:102FA0000D038B6243F2A964C0F20804A047002815
:102FB000FCD04FF0100043F27952C0F20802904763
:102FC00043F67900C0F2080080474FF43D40C0F25C
:102FD000015043F64121C0F20801884710BD00BFEF
:102FE00010B541F65023C4F20E034FF400425A606C
:102FF0004FF00B0043F2B964C0F20804A0474FF051
:103000000C00A0474FF00D00A0474FF00E00A04766
:103010004FF03B004FF0605143F2CD24C0F2080462
:10302000A0474FF055004FF06051A0474FF05600B9
:103030004FF06051A0474FF068004FF07901C2F6A1
:103040000001A0474FF05C004FF00101C2F6000103
:10305000A0474FF46060C4F20E004FF440714FF08F
:10306000006243F2F113C0F20803984710BD00BF9D
:103070000AB1416670470166704700BF4264B1F112
:10308000805F16D004D8C9B1B1F1006F15D109E045
:10309000B1F1405F12D0B1F1605F0FD0B1F1205FAC
:1030A0000BD17047036F016F0B4023EA02030367E4
:1030B00003E0036F42EA030101674260704700BF0B
:1030C00041647047F8B504460D4616461F4643F264
:1030D000C103C0F20803984720462946069A43F2E6
:1030E0007103C0F2080398470FB1256500E06565DC
:1030F0000EB1256300E0656325612560F8BD00BF62
:1031000070B504460D46164643F2C103C0F20803EB
:1031100098472046294606F0010243F27103C0F2A7
:103120000803984716F00A0F14BF2562656216F06F
:10313000020F02D0C4F8805004E016F0080F18BF48
:10314000C4F884506561256070BD00BFF0B583B0E0
:1031500007460C4616461D46B1F1205F22D006D820
:10316000B1F1006F0AD0B1F1805F39D106E0B1F161
:10317000405F21D0B1F1605F32D11DE03846214679
:10318000324643F27D03C0F2080398473846314681
:1031900005F0010243F27103C0F2080398474FF0B3
:1031A00001001FE011461A4643F20113C0F2080362
:1031B00098474FF0010015E005F0010000903846F7
:1031C0003146B4F1605F14BF00220122C5F38003D1
:1031D00043F2C504C0F20804A0474FF0010001E02B
:1031E0004FF0000003B0F0BDC06C7047806C7047BA
:1031F000F0B583B007460E46154602F0F044B4F130
:10320000205F36D006D8B4F1006F0AD0B4F1805FE9
:103210004DD11AE0B4F1405F33D0B4F1605F46D1D4
:103220002FE04FF00061324643F27D03C0F2080305
:1032300098473846314605F0010243F27103C0F267
:10324000080398474FF0010033E04FF080513246B9
:1032500043F27D03C0F2080398473846314605F033
:10326000010243F27103C0F2080398474FF00100D6
:103270001FE043F20113C0F2080398474FF001002A
:1032800017E005F0605205F0010000903846314625
:10329000B2F1605F14BF00220122C5F3800343F244
:1032A000C504C0F20804A0474FF0010001E04FF050
:1032B000000003B0F0BD00BF4FEA501000F5001150
:1032C00001F207724FEA4220704700BFF0B583B0A9
:1032D00007460D4643F2B923C0F208039847064655
:1032E00005F0F044B4F1205F41D006D8B4F1006F8E
:1032F0000AD0B4F1805F62D120E0B4F1405F44D0E5
:10330000B4F1605F5BD140E007F01F004FF00104B3
:1033100004FA00F730464FF000613A4643F27D036D
:10332000C0F2080398473046394605EA040243F2E2
:103330007103C0F208039847204642E007F01F07D8
:103340004FF0010404FA07F74FF080513A4643F278
:103350007D03C0F2080398473046394605EA040267
:1033600043F27103C0F208039847204629E007F0B2
:103370001F024FF0010404FA02F12A4643F201133E
:10338000C0F20803984720461BE007F01F014FF0EA
:10339000010405F0605205EA04000090304604FA8A
:1033A00001F1B2F1605F14BF00220122C5F3800376
:1033B00043F2C505C0F20805A847204601E04FF0DA
:1033C000000003B0F0BD00BF70B506460C4643F2E6
:1033D000E913C0F2080398470546304643F2ED1161
:1033E000C0F208018847054000F08C804AF654304E
:1033F000C2F207000068A0420CD14AF65432C2F271
:10340000070251680D4205D01646D3689847716887
:103410008D4377D04AF65430C2F207000069A042CB
:103420000CD14AF65432C2F2070251690D4205D05E
:103430001646D369984771698D4363D04AF6543074
:10344000C2F20700006AA0420CD14AF65432C2F21E
:103450000702516A0D4205D01646D36A9847716A31
:103460008D434FD04AF65430C2F20700006BA042A1
:103470000CD14AF65432C2F20702516B0D4205D00C
:103480001646D36B9847716B8D433BD04AF6543048
:10349000C2F20700006CA0420CD14AF65432C2F2CC
:1034A0000702516C0D4205D01646D36C9847716CDB
:1034B0008D4327D04AF65430C2F20700006DA04277
:1034C0000CD14AF65432C2F20702516D0D4205D0BA
:1034D0001646D36D9847716D8D4313D04AF654301C
:1034E000C2F20700006EA0420CD14AF65432C2F27A
:1034F0000702516E294205D04AF65433C2F207033F
:10350000DA6E904770BD00BF08B54FF46060C4F23A
:103510000E004FF00B0143F2C933C0F20803984785
:1035200008BD00BF08B54FF48050C4F20E004FF044
:103530000C0143F2C933C0F20803984708BD00BF2D
:1035400008B54FF49050C4F20E004FF00D0143F255
:10355000C933C0F20803984708BD00BF08B54FF44F
:10356000A050C4F20E004FF00E0143F2C933C0F276
:103570000803984708BD00BF4FF4C063C4F20E03B0
:103580001A6B22F0700108431863986E10F0080F50
:1035900007D010E000F1FF33906E10F0080F38D024
:1035A00009E04FF400604FF4C062C4F20E02916E65
:1035B00011F0080FEED04FF4C061C4F20E010A6B97
:1035C00022F0030343F002000863896E11F0080F34
:1035D00009D04FF00000704703F1FF33916E11F0F6
:1035E000080F13D009E04FF400634FF4C062C4F237
:1035F0000E02906E10F0080FEED04FF000007047F2
:103600004FF0010070474FF001007047013BF0D1CF
:10361000F9E7581ECBD1F3E788B14FF4C061C4F28B
:103620000E01086A4FF6FC72CFF6C86202404FF0F6
:103630000203C0F2371342EA0300086270474FF4F6
:10364000C063C4F20E031A6A22F45C1020F0030275
:1036500042F45C1040F001024FEA016142EA11407D
:1036600018624FF4C062C4F20E02936E13F0010FA1
:10367000FBD04FF4C061C4F20E01086A40F09B72A7
:1036800042F480330B6270474FF4C063C4F20E0300
:10369000986E00F4803070474FF4C063C4F20E039C
:1036A0004FF000529A6270474FF4C063C4F20E03A9
:1036B000986E00F0020070472C2835D81F2817D8C4
:1036C0004FF4C061C4F20E018A694FF0010303FA9E
:1036D00000F31A4093422AD04FF0010101FA00F0A2
:1036E0004FF4C062C4F20E0210614FF00000704748
:1036F0004FF4C063C4F20E03D3F80821A0F12000F8
:103700004FF0010101FA00F10A40914212D04FF04E
:10371000010303FA00F04FF4C062C4F20E02C2F8D3
:1037200000014FF0000070474FF0010070474FF06C
:10373000000070474FF00000704700BFFEE700BF79
:1037400038B540F20003C2F2070349F62462C0F222
:1037500008029A4203D040484049814204D3404B7A
:10376000404A9A4225D342E03F4D404C631B23F030
:1037700003054FF0000340F20002C2F2070249F6CF
:103780002461C0F2080105F10400C5F380045D580E
:103790009D5003F10403834255D1E0E75D589D50ED
:1037A00003F104035C589C5003F104038342F5D1F8
:1037B000D5E72F4D2F49481B20F0030440F608138E
:1037C000C2F20703E2184FF00001501BA0F1040001
:1037D000C0F3800445F8041F95422DD107E005F1A0
:1037E0000403696005F1080559609542F7D140F27C
:1037F0000005C0F2080525F0604222F07F014FF479
:103800006D40CEF20000816005F16044B4F5801F88
:1038100007D24FF46D43CEF200039D6845F000528D
:103820009A6044F2C541C0F20801884743F67530FA
:10383000C0F208008047FEE7002CD0D045F8041FF6
:103840009542CCD1D3E7002CA8D05C589C5003F112
:1038500004038342A2D182E7080907200000072061
:10386000FCAD072008090720040007200B090720EA
:1038700004090720F7AD07204FF4C063C4F20E031C
:10388000186B00F00301032900F2B180DFE801F0BA
:1038900002144F4F41F61020C4F20E00416911F09E
:1038A000800F40F21403C2F2070314BF4FF400422A
:1038B0004FF4FA421A609AE04FF4C063C4F20E0368
:1038C000186A10F0807F09D04FF4D853C0F2B703C4
:1038D00040F21402C2F20702136088E04FF4106154
:1038E000C0F23D0140F21402C2F2070211604FF42F
:1038F000C063C4F20E03186A00F07001102902D0F0
:10390000202974D109E04FF49050C0F27A0040F2BF
:103910001401C2F20701086069E04FF4D853C0F205
:10392000B70340F21402C2F2070213605FE04FF4E3
:10393000C062C4F20E02136A13F0807F09D04FF404
:10394000D851C0F2B70140F21402C2F2070211606E
:1039500027E04FF41060C0F23D0040F21401C2F2C3
:10396000070108604FF4C062C4F20E02136A03F04C
:103970007000102802D0202813D109E04FF4905392
:10398000C0F27A0340F21400C2F20700036008E0BC
:103990004FF4D851C0F2B70140F21402C2F207024C
:1039A00011604FF4C063C4F20E03186B00F0030102
:1039B000022913D14FF4C061C4F20E01886A896AEA
:1039C00040F21403C2F20703C0F30A401A6800FB76
:1039D0000220C9B2B0FBF1F21A6008E04FF4E053E4
:1039E000C0F64E6340F21402C2F2070213604FF4B5
:1039F000C062C4F20E02106B00F0700170290ED18B
:103A000040F21403C2F2070318684AF6AB22CAF662
:103A1000AA22A2FB00014FEA5100186070474FF440
:103A2000C063C4F20E031A6B40F21400C2F2070026
:103A3000C2F30211036823FA01F30360704700BF69
:103A40004EF6BF23C0F2211398420CD84FF42063E6
:103A5000C4F20E034FF0000018604FF44061C4F24E
:103A60000E01086070474FF27F01C0F2FA218842D0
:103A70000CD84FF42060C4F20E004FF48071016046
:103A80004FF44062C4F20E021160704748F6FF73B3
:103A9000C0F2D03398420CD84FF42061C4F20E012A
:103AA0004FF400720A604FF44063C4F20E031A60D0
:103AB00070474BF2FF31C0F2C44188420CD84FF43A
:103AC0002063C4F20E034FF440721A604FF440605A
:103AD000C4F20E000260704744F67F23C0F25D53CB
:103AE00098424FF42060C4F20E0094BF4FF48062FD
:103AF0004FF4A06202604FF44061C4F20E010A600C
:103B0000704700BF4AF6C433C2F20703196841B9CF
:103B10004AF6C433C2F207034CF60062C2F207024F
:103B20001A604AF6C431C2F207010B68181847F64A
:103B3000FC72C2F20802824206DB01464AF6C43039
:103B4000C2F20700016001E04FF0FF3318467047F2
:103B50004FF0FF30704700BF4FF400534B604FF001
:103B6000000070474FF00100704700BF4FF00000A9
:103B7000704700BF08B542F65573C0F20803984776
:103B800042F6E170C0F2080080474FF00B0043F2AC
:103B9000B964C0F20804A0474FF00C00A0474FF0F2
:103BA0000D00A0474FF00E00A04740F2A551C0F213
:103BB0000801884740F21D62C0F20802904740F2B7
:103BC000A513C0F20803984740F65900C0F2080058
:103BD000804740F69D04C0F20804A0474FF4A0516E
:103BE000C4F20E014FF480720A61C1F8A0200A638A
:103BF0004FF49053C4F20E034FF400101861C3F851
:103C0000A000586340F6E514C0F20804A047FEE7A0
:103C100081F0004102E000BF83F0004330B54FEA7D
:103C200041044FEA430594EA050F08BF90EA020FEA
:103C30001FBF54EA000C55EA020C7FEA645C7FEA7D
:103C4000655C00F0E2804FEA5454D4EB5555B8BFA0
:103C50006D420CDD2C4480EA020281EA030382EA11
:103C6000000083EA010180EA020281EA0303362DA3
:103C700088BF30BD11F0004F4FEA01314FF4801C76
:103C80004CEA113102D0404261EB410113F0004F88
:103C90004FEA03334CEA133302D0524263EB43033F
:103CA00094EA050F00F0A780A4F10104D5F1200EDD
:103CB0000DDB02FA0EFC22FA05F2801841F1000138
:103CC00003FA0EF2801843FA05F359410EE0A5F10C
:103CD00020050EF1200E012A03FA0EFC28BF4CF03D
:103CE000020C43FA05F3C01851EBE37101F00045F3
:103CF00007D54FF0000EDCF1000C7EEB00006EEB00
:103D00000101B1F5801F1BD3B1F5001F0CD3490889
:103D10005FEA30004FEA3C0C04F101044FEA4452E0
:103D200012F5800F80F09A80BCF1004F08BF5FEA67
:103D3000500C50F1000041EB045141EA050130BD47
:103D40005FEA4C0C404141EB010111F4801FA4F1EA
:103D50000104E9D191F0000F04BF01460020B1FA3F
:103D600081F308BF2033A3F10B03B3F120020CDA77
:103D70000C3208DD02F1140CC2F10C0201FA0CF055
:103D800021FA02F10CE002F11402D8BFC2F1200CBA
:103D900001FA02F120FA0CFCDCBF41EA0C01904070
:103DA000E41AA2BF01EB0451294330BD6FEA0404B9
:103DB0001F3C1CDA0C340EDC04F11404C4F12002A4
:103DC00020FA04F001FA02F340EA030021FA04F3B6
:103DD00045EA030130BDC4F10C04C4F1200220FA0D
:103DE00002F001FA04F340EA0300294630BD21FA4B
:103DF00004F0294630BD94F0000F83F4801306BF11
:103E000081F480110134013D4EE77FEA645C18BF04
:103E10007FEA655C29D094EA050F08BF90EA020F9B
:103E200005D054EA000C04BF1946104630BD91EA93
:103E3000030F1EBF0021002030BD5FEA545C05D196
:103E40004000494128BF41F0004130BD14F58004D5
:103E50003CBF01F5801130BD01F0004545F0FE4149
:103E600041F470014FF0000030BD7FEA645C1ABF7E
:103E7000194610467FEA655C1CBF0B46024650EAB5
:103E8000013406BF52EA033591EA030F41F40021E1
:103E900030BD00BF90F0000F04BF0021704730B567
:103EA0004FF4806404F132044FF000054FF000013C
:103EB00050E700BF90F0000F04BF0021704730B5FD
:103EC0004FF4806404F1320410F0004548BF4042D2
:103ED0004FF000013EE700BF42004FEAE2014FEA27
:103EE00031014FEA02701FBF12F07F4393F07F4F02
:103EF00081F06051704792F0000F14BF93F07F4F34
:103F0000704730B54FF4607401F0004521F0004176
:103F100020E700BF50EA010208BF704730B54FF0FC
:103F200000050AE050EA010208BF704730B511F001
:103F3000004502D5404261EB41014FF4806404F139
:103F400032045FEA915C3FF4DCAE4FF003025FEABB
:103F5000DC0C18BF03325FEADC0C18BF033202EB43
:103F6000DC02C2F1200300FA03FC20FA02F001FA9D
:103F700003FE40EA0E0021FA02F11444C1E600BF3C
:103F800070B54FF0FF0C4CF4E06C1CEA11541DBFEF
:103F90001CEA135594EA0C0F95EA0C0F00F0DEF8BA
:103FA0002C4481EA030621EA4C5123EA4C5350EA9F
:103FB000013518BF52EA033541F4801143F48013F0
:103FC00038D0A0FB02CE4FF00005E1FB02E506F081
:103FD0000042E0FB03E54FF00006E1FB03569CF0D6
:103FE000000F18BF4EF0010EA4F1FF04B6F5007FDC
:103FF00064F5407404D25FEA4E0E6D4146EB06064E
:1040000042EAC62141EA55514FEAC52040EA5E50D6
:104010004FEACE2EB4F1FD0C88BFBCF5E06F1ED880
:10402000BEF1004F08BF5FEA500E50F1000041EBB7
:10403000045170BD06F0004646EA010140EA020064
:1040400081EA0301B4EB5C04C2BFD4EB0C0541EA86
:10405000045170BD41F480114FF0000E013C00F39B
:10406000AB8014F1360FDEBF002001F0004170BDBF
:10407000C4F10004203C35DA0C341BDC04F11404D8
:10408000C4F1200500FA05F320FA04F001FA05F264
:1040900040EA020001F0004221F0004110EBD37031
:1040A00021FA04F642EB06015EEA430E08BF20EA5D
:1040B000D37070BDC4F10C04C4F1200500FA04F300
:1040C00020FA05F001FA04F240EA020001F0004192
:1040D00010EBD37041F100015EEA430E08BF20EA05
:1040E000D37070BDC4F1200500FA05F24EEA020E4D
:1040F00020FA04F301FA05F243EA020321FA04F07C
:1041000001F0004121FA04F220EA020000EBD37032
:104110005EEA430E08BF20EAD37070BD94F0000F32
:104120000FD101F00046400041EB010111F4801F66
:1041300008BF013CF7D041EA060195F0000F18BF17
:10414000704703F00046520043EB030313F4801F53
:1041500008BF013DF7D043EA0603704794EA0C0F0D
:104160000CEA135518BF95EA0C0F0CD050EA410623
:1041700018BF52EA4306D1D181EA030101F00041A0
:104180004FF0000070BD50EA410606BF10461946C8
:1041900052EA430619D094EA0C0F02D150EA0136D4
:1041A00013D195EA0C0F05D152EA03361CBF104615
:1041B00019460AD181EA030101F0004141F0FE41B4
:1041C00041F470014FF0000070BD41F0FE4141F438
:1041D000780170BD70B54FF0FF0C4CF4E06C1CEA38
:1041E00011541DBF1CEA135594EA0C0F95EA0C0FED
:1041F00000F0A7F8A4EB050481EA030E52EA0335A8
:104200004FEA013100F088804FEA03334FF08055C8
:1042100045EA131343EA12634FEA022245EA1115F5
:1042200045EA10654FEA00260EF000419D4208BFA6
:10423000964244F1FD0404F5407402D25B084FEA53
:104240003202B61A65EB03055B084FEA32024FF4FF
:1042500080104FF4002CB6EB020E75EB030E22BF5C
:10426000B61A754640EA0C005B084FEA3202B6EB1C
:10427000020E75EB030E22BFB61A754640EA5C00CB
:104280005B084FEA3202B6EB020E75EB030E22BF5B
:10429000B61A754640EA9C005B084FEA3202B6EB5C
:1042A000020E75EB030E22BFB61A754640EADC001B
:1042B00055EA060E18D04FEA051545EA16754FEA7D
:1042C00006164FEAC30343EA52734FEAC2025FEA9B
:1042D0001C1CC0D111F4801F0BD141EA00014FF02A
:1042E00000004FF0004CB6E711F4801F04BF0143FB
:1042F0000020B4F1FD0C88BFBCF5E06F3FF6AFAE17
:10430000B5EB030C04BFB6EB020C5FEA500C50F1A6
:10431000000041EB045170BD0EF0004E4EEA113129
:1043200014EB5C04C2BFD4EB0C0541EA045170BD30
:1043300041F480114FF0000E013C90E645EA060E74
:104340008DE60CEA135594EA0C0F08BF95EA0C0FA2
:104350003FF43BAF94EA0C0F0AD150EA01347FF4EA
:1043600034AF95EA0C0F7FF425AF104619462CE7C1
:1043700095EA0C0F06D152EA03353FF4FDAE104624
:10438000194622E750EA410618BF52EA43067FF475
:10439000C5AE50EA41047FF40DAF52EA43057FF405
:1043A000EBAE12E74FEA410212F5001215D211D519
:1043B0006FF47873B3EB625212D94FEAC12343F022
:1043C000004343EA505311F0004F23FA02F018BFA4
:1043D000404270474FF00000704750EA013005D16D
:1043E00011F0004008BF6FF0004070474FF0000030
:1043F000704700BF2DE9F8439846234B06461C68DA
:104400000F46D4F84801914618B904F5A670C4F8CF
:10441000480141681F2916DD1C4818B94FF0FF30CC
:10442000BDE8F8834FF4C87003F01EF90028F5D0FA
:10443000D4F84821002545600260C4F84801C0F85E
:104440008851C0F88C51B6B14468012202FA04F2D6
:10445000D0F8881100EB84031143022EC3F8889032
:10446000C0F888111C46C3F8088104D1D0F88C31FB
:104470001A43C0F88C2141688B1C4A1C40F82370F9
:1044800042600020BDE8F883149B080069760800AC
:10449000002100F0E5BE000070B5084B084C002577
:1044A000E01A841003EB8406043D1CB17259904756
:1044B000013CF9E7BDE8704005F0A8BC189E080073
:1044C0001C9E080038B50E4D0E4B0024E81A8510CE
:1044D000AC4205D00B4951F8242090470134F7E74E
:1044E00005F08AFC0849094A541AA5100024AC4278
:1044F00005D0054B53F8240080470134F7E738BD59
:10450000049E0800049E0800049E08000C9E0800FB
:104510000FB407B5064904AB086853F8042B81684B
:10452000019300F0F5FEBDE80E4004B0704700BFF7
:10453000180007200EB403B503AB53F8042B8168B1
:10454000019300F0E5FEBDE80C4003B0704700BFEA
:104550000FB407B5064904AB086853F8042B41684B
:10456000019301F02BFBBDE80E4004B0704700BF83
:10457000180007200EB403B503AB53F8042B4168B1
:10458000019301F01BFBBDE80C4003B0704700BF76
:1045900010B50023934203D0CC5CC4540133F9E737
:1045A00010BD82180346934202D003F8011BFAE7BC
:1045B000704700290CBF022200224FF4806300F0F4
:1045C00001B800002DE9F0411D46374B044618683C
:1045D0000E461746984618B1826B0AB902F05AF88F
:1045E000022F5DD8002D5BDB2146D8F8000001F0DA
:1045F0005FFFA189002001F080031AB26060A06112
:1046000022B129482169006802F0E0F9A189022F4E
:1046100021F08303A38112D036BB002D08BF4FF4D5
:104620008065284603F020F80646C8B94FF480603C
:1046300003F01AF8064688B94FF0FF3000E000207A
:10464000A189002241F00203A38104F14301012367
:10465000A260216021616361BDE8F0814FF4806553
:10466000A28942F08000A081012F05D1A1896A4270
:1046700041F00103A381A2610B48A28901680B4BA1
:1046800002F0080000B2CB6326602661656148B184
:1046900012F0030F18BF0025A5600020BDE8F081CF
:1046A0004FF0FF30BDE8F0811800072009660800D0
:1046B000034613F8012B002AFBD1181A0138704762
:1046C00070B592B10B4605461AB928781978401A88
:1046D00070BD10F8016B1C780131B442F5D1012A8C
:1046E000F3D0013A002CEDD1EFE7104670BD30B5A4
:1046F000013903461C463AB111F8015F013A03F84B
:10470000015B1C46002DF5D199188C4203D0002284
:1047100004F8012BF9E730BD30B5056811F8012B1D
:104720002C466B1C52B11D466378402B02DD5A2B80
:10473000D8BF20339342F1D0002030BD0360012068
:1047400030BD2DE9F04F99B08146884611924FF067
:10475000000A4FF0000B1391139A13780D2B05D814
:10476000092B13D2002B00F0B68112E02B2B06D0C0
:104770002D2B02D0202B0CD108E0012300E00023D8
:10478000541C139452780D932AB9A4E1511C13912F
:10479000E2E700240D94139C217830295CD16378E2
:1047A000582B01D0782B4BD10D9AA34F14AE009605
:1047B0000192484613A93A4615AB02F0B7FB10F038
:1047C0000706054600F02A85062E03D1621C1392C7
:1047D00000F024BD149A3AB116A8396803F090FD90
:1047E0004846149903F002FA1598062E21D8DFE8FE
:1047F00006F0040D08171C0D04004FF0000BDA46FC
:1048000017E0DDF858A0DDF85CB012E0179B00F26D
:10481000334123F48014DDF858A044EA015B08E03A
:10482000DFF818B24FF0000A03E06FF0004B4FF0D2
:10483000FF3A290740F1F2844BF0004B00F0EEBC48
:10484000139C621C139261783029F9D0002900F082
:10485000E5840126069601E000250695139F07973B
:10486000002704973E46139D2C782F2C16DC4846D3
:1048700002F07CFE03684846039302F077FE00686E
:10488000FFF716FF039902462846FFF719FF024675
:10489000C8B1002335461A46059377E0392CE6DC8B
:1048A0000F2E0CDC082ED8BF04984FF00A03A4F199
:1048B0003004D6BF03FB004003FB074704906C1C89
:1048C00001361394CFE74846139C039202F04EFE44
:1048D0000068FFF7EDFE21181391245C039A16B1CE
:1048E0003546134647E03346302C05D1139D01333E
:1048F000691C13916C78F7E7A4F13100082841D8BE
:10490000139D1A46002307951D46591C303C0594FB
:104910002CD05218681CC5EB000C8C4511DA00F144
:10492000FF3CBCF1100F0ADC0928D8BF049C4FF0F3
:104930000A0ED6BF0EFB04F40EFB07F704940130F9
:10494000E9E7002BACBFEB182B1C5D1C102B0CDC1B
:10495000092D4FF00A0305DC0499059803FB0103B8
:10496000049302E0059C03FB07470021139C0B46C0
:10497000601C13906478A4F130010929C5D9012085
:10498000059003E0002501212A460591652C01D000
:10499000452C57D125B91BB9069C002C00F09B80F3
:1049A000DDF84C8008F10101139198F801402B2C9F
:1049B00004D02D2C05D00020089009E0002108919A
:1049C00001E00124089408F10200139098F80240D5
:1049D000A4F13001092933D8302C04D113994C1C8F
:1049E00013944C78F8E7A4F1310008282AD8A4F1F0
:1049F0003000139C0A94139901F1010CCDF84CC0BE
:104A00004C782F2C0BDC0A99C1EB0C0EBEF1080F71
:104A100044F61F6E0BDC7045B8BF864607E0392CA4
:104A2000F1DC4FF00A0E0EFB00403038E3E7089847
:104A300050B1CEF1000E07E0480407200000F07FDF
:104A4000CDF84C804FF0000E002D49D1002B40F0E6
:104A5000E5830699002940F0E183059A002A3AD1BE
:104A60004E2C1BD002DC492C35D104E0692C02D03D
:104A70006E2C30D112E013A8A349FFF74DFE50B3BE
:104A8000139BA249581E139013A8FFF745FE10B9B7
:104A9000139C611C1391DFF888B219E013A89C499C
:104AA000FFF73AFEB8B1139A1378282B0ED113A84A
:104AB000984916AA02F088FC052807D11798DDF856
:104AC00058A040F0FF4444F4E00BA7E3DFF85CB2E9
:104AD0004FF0000AA2E30022CDF84C800D929DE336
:104AE000C2EB0E0204980692FFF7D4F9102DB4BF62
:104AF0002C461024002E08BF2E46092C82468B46D9
:104B000015DD854B03EBC402A2F14803D3E9002372
:104B1000FFF736FA824638468B46FFF7BBF9024666
:104B20000B4650465946FFF779F882468B460F2DC3
:104B300037DC0699002900F0718324DD162907DC93
:104B40007548524600EBC104D4E900015B4615E00C
:104B50000699C5F12502914223DC6F4CC5F10F0582
:104B600004EBC50152465B46D1E90001FFF708FAA4
:104B7000069A551B04EBC503D3E90023FFF700FA9F
:104B800082468B464AE3069810F1160F09DB624C09
:104B90005946A4EBC003D3E900235046FFF71AFBA4
:104BA000EEE706982C1B0419002C51DD14F00F01C0
:104BB00009D0594A5B4602EBC10003C85246FFF7D1
:104BC000DFF982468B4634F00F0300F0B380B3F573
:104BD0009A7F0FDD4FF00008CDF81080CDF82880C7
:104BE000CDF81C802220C9F80000DFF834B14FF066
:104BF000000A6EE150461F1159464FF0000A012F7E
:104C00000BDDFA0705D5454C04EBCA020CCAFFF7C9
:104C1000B7F90AF1010A7F10F1E7A1F154733F4996
:104C2000024601EBCA0003C8FFF7AAF93C4B3D4C12
:104C30000B40A34282468B46CCD8A4F58017BB42DA
:104C400086BFDFF8ECB04FF0FF3A01F1547B71E022
:104C500070D0674217F00F030AD02F4A504602EB7C
:104C6000C3045946D4E90023FFF7B4FA82468B46C1
:104C70003F115FD01F2F08DD4FF00008CDF81080E6
:104C8000CDF82880CDF81C801CE117F0100F14BF60
:104C90006A210021244C059150465946002F08DD19
:104CA000FB0703D5D4E90023FFF76AF97F10083426
:104CB000F4E7824605988B46E0B1C1F30A53C3F18D
:104CC0006B04002C16DD1F2C0EDD342C4FF0000A77
:104CD00002DD4FF05C7B0DE0203C4FF0FF3303FA28
:104CE00004F404EA010B05E04FF0FF3101FA04F08F
:104CF00000EA0A0A504659460022002304F028FB25
:104D00000028B9D118E000BF489B08004B9B080061
:104D1000519B08005C040720E09C0800D09D08001F
:104D20000000F07F0000A07C209B08000000F8FF3E
:104D3000FFFFEF7F0021059104983246009007990C
:104D400048462B4602F097FF069E0A90002EC0F2BE
:104D5000C580002210920A9C4846616802F020FF3C
:104D6000236921469F1CBA000C3107900C30FFF7D5
:104D70000FFC12A915A85246009101905B464846C7
:104D8000CDE908AB03F02AFA01211490484603F05C
:104D900000F8129A069E002A049026EAE677C0F2EE
:104DA000A080109D3B46AD18059C159E141BA019B4
:104DB0006FF47F718842B4BF04F23344C6F1360405
:104DC000059A2E191B19AE42B4BF304628469C18CE
:104DD000A042A8BF2046002802DD361A241A2D1A48
:104DE000109B8BB11A460499484603F06CF8049066
:104DF0000499149A484602F0D5FF14998046484613
:104E000002F0F4FECDF85080002E05DD48461499DE
:104E1000324603F09BF814902FB1484607993A4662
:104E200003F051F80790002C05DD4846079922460B
:104E300003F08CF80790002D05DD484604992A46BA
:104E400003F084F804901499079A484603F0EFF8A9
:104E50000021C468C160049980460B9403F0CAF82D
:104E6000002846DA002C40F0B281BAF1000F40F081
:104E7000AE81CBF313005C46002840F0A8819C4A29
:104E80002240B2F1D66F40F2A281D8F814305BB361
:104E900041460122484603F059F80499804603F040
:104EA000A9F8002840F393812BF00044059B200DC6
:104EB0000205002B4AD0B2F1D66F47D8B2F15C7F21
:104EC00000F2878122244FF0000A4FF0000BC9F84E
:104ED00000400A9B002B40F08D819FE1069D6A42B5
:104EE00038E7BB1A109D5FE7D8F810100129CFDC16
:104EF0006DE159D10B9C14B32BF07F417D4C21F413
:104F00007000A0425A462AD1059B514663B17848A9
:104F10001040B0F1D46F07D8030DC3F16B044FF00C
:104F2000FF3000FA04F401E04FF0FF34A14216D143
:104F30006F494FF0000A114001F5801B47E1CBF3A8
:104F4000130363B9BAF1000F09D1ADE7A2F58011DF
:104F50006FEA115C6FEA0C5B4FF0FF3A37E10AF041
:104F60000102002A00F033810B9BDDE9080153B1F7
:104F700003F0BFF802460B46DDE90801FEF74EFEDE
:104F800082468B4623E103F0B4F802460B46DDE986
:104F90000801FEF741FE0022002382468B4604F002
:104FA000D7F900288ED112E14046049903F06AF93E
:104FB00000224FF0804304460D4604F0DDF968B34B
:104FC0000B9810B100264C4F0FE05346BAF1000F7A
:104FD00003D1CBF3130636B90AE0012B03D1BBF1A1
:104FE000000F3FF46FAF454F00260025424C25E0EF
:104FF000204629460022404B04F0B4F940B920462F
:10500000294600223E4BFEF7BBFF05460C4601E059
:105010000B9D3B4C2E4604F100470FE020462946ED
:105020000022374BFEF7ACFF0B9F05460C4617B925
:1050300001F1004200E00A462E4617462C495B4625
:1050400019400C912F4A0C9890422CD1ABF1547B13
:10505000DDE90801CDE90E015046594603F049F853
:1050600002460B4630463946FEF78AFF0B4602469B
:1050700059465046FEF7D2FD82461D480B46084071
:10508000214988420CD9214A0F99914203D10E98A7
:10509000421C3FF4A7ADDFF874B04FF0FF3A85E053
:1050A00003F1547B4CE0059B002B37D00C99B1F1F8
:1050B000D46F33D8284621460BA3D3E9002304F04C
:1050C0005BF938B32146284604F074F9002808BF7C
:1050D0000120FEF7DFFE0C460B990546C1B904F12D
:1050E000004716E0AFF300800000C0FFFFFFDF4184
:1050F0000000F07FFFFF0F000000F03F0000F0BF56
:105100000000E03F0000E07FFFFF9F7CFFFFEF7F9C
:1051100027462E460C9A07F1D660871ADDE908016A
:1051200002F0E7FF02460B4630463946FEF728FFFD
:1051300002460B46DDE90801FEF770FD82468B460C
:10514000059B5E46002B31D1434A0C983240904279
:105150002CD121462846FFF725F9FEF7ABFE0B467A
:10516000024621462846FEF757FD0B9B04460D4696
:105170002BB9BAF1000F02D1CBF3130686B120464A
:1051800029462FA3D3E9002304F0ECF8002831D1FD
:10519000204629462CA3D3E9002304F001F904E0BA
:1051A0002BA3D3E9002304F0DDF818BB484614997B
:1051B00002F01CFD4846079902F018FD4846049984
:1051C00002F014FD4846414602F010FDC3E5059883
:1051D00080B1224A00230F920E9350465946DDE9D2
:1051E0000E23FEF7CDFE82468B4619B910B9222157
:1051F000C9F800104846149902F0F8FC484607998F
:1052000002F0F4FC4846049902F0F0FC48460A9982
:1052100002F0ECFC4846414602F0E8FC119808B167
:10522000139901600D9C524614B10BF1004300E04C
:105230005B461046194619B0BDE8F08FAFF3008009
:105240009535A094FFFFDF3F35E5AF350000E03F27
:105250009535A094FFFFCF3F0000F07F000050394C
:105260000A460349034608681946FFF76ABA00BFB1
:10527000180007200A460A4938B503460868194647
:10528000FFF75FFA04460D4603F06AFA18B9BDE865
:10529000384003F0D7BA2046294604F0ABF838BDB1
:1052A00018000720AFF3008093682DE9F04781468E
:1052B0000F4614461BB953601846BDE8F0874B6E85
:1052C0009B041ED51568A0680835C8B155F8041CA4
:1052D00055F808AC4FEA91080026464509DA4846D9
:1052E0005AF826103A4601F051FA431C0BD0013609
:1052F000F3E7A2684FEA8808C8EB0203A360E2E77D
:1053000001E001F019FC0021A1606160BDE8F087B7
:105310002DE9F04F8946A9B014461D461E46824627
:1053200018B1836B0BB901F0B5F9B9F80C0000F4B2
:10533000005211B249B940F40053D9F86400A9F8F9
:105340000C3020F40052C9F86420B9F80C1001F0B8
:10535000080318B248B1D9F8102032B1B9F80C10CE
:1053600001F01A030A2B16D109E05046494601F014
:1053700033F80028F2D04FF0FF320392D3E3B9F9AB
:105380000E00002807DB5046494622462B4600F017
:10539000CEFB0390C7E3002218AD0B950D920C9243
:1053A000019405920392A84601990C4611F8013B1D
:1053B0000BB1252BF9D1019AA51A19D00C990D988A
:1053C0004B1C88E82400072B00EB05020D9208F126
:1053D00008080C9309DD504649460BAAFFF764FF05
:1053E000002840F098830DF1600803984219039259
:1053F0002178002900F088830022013401948DF87F
:1054000027204FF0FF3C04921746019810F8013B0B
:105410000190632B00F0B38033DC392B1ADC312B85
:1054200080F291802B2B01D11A46EEE70ADC232B68
:1054300055D02A2B56D0202B40F0F581002A08BFEA
:105440002022E2E72E2B58D0302B79D02D2B40F0A4
:10545000EA814FE04F2B00F0DE8007DC442B40F068
:10546000E2818DF8272047F0100790E0552B00F0DF
:105470001F81582B40F0D781AE4D8DF82720059520
:1054800030E16F2B00F0C98010DC692B24D007DCE1
:10549000642B21D0682B40F0C68147F04007B4E769
:1054A0006C2B5FD06E2B40F0BE8196E0732B00F02A
:1054B000DF8006DC702B00F0CD80712B40F0B381D3
:1054C0005AE0752B00F0F680782B40F0AC819A4DB5
:1054D0008DF82720059505E18DF8272057E047F046
:1054E000010792E7331D3668002E049615DA7042E4
:1054F00004901E4647F0040787E7019911F8013B25
:105500002A2B01910BD1D6F800C0331DBCF1000F3E
:1055100003DA1E464FF0FF3C77E71E4675E74FF073
:10552000000CA3F13000092807D801990A2303FBD6
:105530000C0C11F8013B0191F3E74CEAEC7C68E7B5
:1055400047F0800761E701980021303B0A2404FB03
:10555000013110F8013BA3F13004092C0190F4D97A
:10556000049156E701990B786C2B02D1481C0190ED
:1055700002E047F0100748E747F0200745E73268A8
:1055800000258DF838208DF82750043655E1BA06ED
:1055900007D5073626F0070505F10806D5E90045C9
:1055A0000FE017F0100F06F1040101D0326805E09A
:1055B00017F0400F326801D014B200E01446E5172E
:1055C0000E46002C75F1000280F2B8802D23644253
:1055D00065EB45058DF82730B0E017F0200F8DF80A
:1055E000272006F1040205D0039C3568E0172C60E3
:1055F000686004E0FB0604D5336803991960164619
:10560000D2E63068039C17F0400F06F1040614BF81
:1056100004800460C8E647F0100717F0200008D0A7
:10562000F31D23F0070505F10806D5E90045002024
:105630007CE017F0100106F1040206D117F04000DB
:1056400003D0348800251646F1E736680025344635
:1056500016466BE0384B302178223468002547F03D
:1056600002078DF828108DF82920043605935CE098
:1056700031460025D1F800B00436AC458DF82750EE
:10568000584611DB62462946CDF800C002F05EFAAA
:10569000DDF800C0002800F0D480CBEB00046445A6
:1056A00040F3D1806446CEE0FFF702F80446CAE03A
:1056B00047F01007BD0606D5F01D20F0070404F1E1
:1056C000080630CC0CE017F0100F06F1040303D1EC
:1056D0007C0601D5348801E035682C4600251E463D
:1056E000012023E0B80607D5F41D24F0070101F1DD
:1056F0000806D1E900450CE017F0100F06F1040090
:1057000003D1790601D5348801E036683446002596
:105710000646FA0709D554EA050206D030228DF86C
:1057200028208DF8293047F00207022000218DF84B
:10573000271004E0749B0800859B08000120BCF141
:10574000000FA8BF27F0800754EA050102D1BCF181
:10575000000F58D001281DD002280DF15F0341D061
:1057600004F00702E40844EA4570E90804460D46DF
:10577000303254EA05019B461A7003F1FF33EFD132
:10578000F8075D464AD5302A48D030229B4605F8B6
:10579000012C43E0002D08BF0A2C03D230348DF8D1
:1057A0005F4036E00DF15F030293204629460A224E
:1057B0000023CDF800C003F06DFE0298303200F8EF
:1057C000012929460A220023DDF808B0029020466C
:1057D00003F060FE04460D4654EA0501DDF800C002
:1057E000E3D11BE0059904F00F0024090A5C44EAA8
:1057F0000570290904460D469B4603F8012954EA21
:105800000502EFD10AE038B9F90705D530208DF847
:105810005F000DF15F0B01E00DF1600B18ADCBEBFC
:10582000050465460FE08DF82720002B00F06C8101
:1058300000258DF838308DF8275001240DF1380BF4
:1058400001E0644605469DF82730AC42ACBF2146D6
:105850002946029113B10298421C029217F00201EC
:10586000069102D0029B981C029017F084020792C6
:105870003AD10499029BCB1A002B35DDA048102B9E
:10588000C8F800001ADD0C9910200D9AC8F8040021
:10589000481C103207280D9208F108080C900BDD07
:1058A000504649460BAA0093FFF7FEFC009B0028D8
:1058B00040F031810DF16008103BDFE70D9AC8F828
:1058C0000430D1180C9B0D91581C072808F10808CA
:1058D0000C9009DD504649460BAAFFF7E5FC00286D
:1058E00040F019810DF160089DF82720D2B10DF12B
:1058F0002701C8F800100C9901230D98C8F804304E
:105900004B1C421C072B0D9208F108080C9309DD73
:10591000504649460BAAFFF7C7FC002840F0FB8021
:105920000DF160080698C8B10AAAC8F800200C9AC0
:1059300002210D9BC8F80410511C981C07290D90DA
:1059400008F108080C9109DD504649460BAAFFF7FB
:10595000ABFC002840F0DF800DF16008079B802B36
:105960003AD10498029A831A002B35DD6549102B31
:10597000C8F800101ADD0C9A10210D98C8F8041010
:10598000511C103007290D9008F108080C910BDD0F
:10599000504649460BAA0093FFF786FC009B00285F
:1059A00040F0B9800DF16008103BDFE70C9A0D98CC
:1059B000511CC8F80430072903440D9308F1080866
:1059C0000C9109DD504649460BAAFFF76DFC0028F3
:1059D00040F0A1800DF160082D1B002D32DD4948FB
:1059E000102DC8F8000018DD0C9A0D98531C1021DA
:1059F0001030072BC8F804100D9008F108080C931C
:105A000009DD504649460BAAFFF74EFC002840F03E
:105A100082800DF16008103DE1E70C9A0D9B511C4E
:105A2000C8F8045007291D440D9508F108080C9189
:105A300008DD504649460BAAFFF736FC00286AD11C
:105A40000DF160080C9A0D98511CC8F80440072904
:105A50000444C8F800B00D9408F108030C9107DD68
:105A6000504649460BAAFFF71FFC002853D118AB3C
:105A70007A070BD4039B029A04990D988A42ACBF13
:105A80009B185B180393002835D02EE0049C0298E5
:105A9000241A002CEEDD1A4A102C1A6014DD0C9822
:105AA00010220D995A60421C10310833072A0D91BB
:105AB0000C9207DD504649460BAAFFF7F5FB00287C
:105AC00029D118AB103CE6E70C995C600D9B481C93
:105AD0001C1907280D940C90CCDD504649460BAAA2
