S01D0000457850726F6A656B7450696E6769735669634D69632E73726563C6
S21408000060CC07200D2608000926080009260800E7
S214080010092608000926080009260800000000002E
S214080020000000000000000000000000250908008D
S2140800300926080000000000A1090800DD090800DC
S21408004009260800092608000926080009260800C7
S21408005009260800092608000926080009260800B7
S2140800600926080009260800000000007924080070
S2140800708D240800A1240800B5240800000000000C
S21408008000000000092608000926080009260800BE
S2140800900926080009260800092608000926080077
S2140800A0092608000000000009260800092608009E
S2140800B00926080009260800092608000926080057
S2140800C00926080009260800092608000926080047
S2140800D00926080009260800092608000926080037
S2140800E00926080009260800092608000926080027
S2140800F00926080008B50548054B1B1A062B00D824
S21408010008BD044B002BFBD09847F9E7648E08001F
S214080110678E08000000000008B50748074B1B1A42
S2140801209B1003EBD373591000D108BD044A002A6C
S214080130FBD09047F9E700BF648E0800648E08007D
S2140801400000000010B5064C237843B9FFF7D2FF2D
S214080150044B13B10448AFF300800123237010BD8D
S214080160D808072000000000648E080008B5084B71
S2140801701BB108480849AFF300800848036813B164
S214080180074B03B19847BDE80840FFF7C5BF00BF57
S21408019000000000648E0800DC080720648E080053
S2140801A00000000038B525200E4B98470E4C204618
S2140801B00E490F4A08230F4DA847204600214FF442
S2140801C0401201230C4DA847204610210B4B984798
S2140801D020460A210A4B9847204600210A46094B22
S2140801E0984738BDB125080000000C40007A030A7D
S2140801F040420F00B102080005030800E5020800A7
S2140802002D030800F502080010B5164C2046164BBC
S214080210984720460A21154B9847B0F5AA7F16D965
S214080220A0F25513272B14D9A0F27D13272B12D929
S214080230A0F2A513312B10D9A0F2D713632B0ED931
S21408024040F23A2398428CBF0A20002010BD232093
S21408025010BD1E2010BD192010BD142010BD0F2083
S21408026010BD00BF00000C40250308003903080035
S2140802702DE9F0410C46904660B9002A0EDD8F182D
S214080280094E0A4D306821462B6898470134BC420F
S214080290F8D106E04FF0FF30BDE8F0810020BDE859
S2140802A0F0814046BDE8F08154AC072024AC072016
S2140802B030B4012404600024446040F20225C0F8EB
S2140802C02051C0F80441C0F8144145682B43520039
S2140802D0B1FBF2F14D1E2D02ADB22B434360204612
S2140802E030BC7047436823F01003436043681943E3
S2140802F04160704743681943D201D3B2194341603D
S214080300704700BF10B444682243090601F07064C1
S21408031022431B0703F040531A4342605DF8044B20
S214080320704700BF02230360704700BF012303FA2B
S21408033001F10161704700BF0F2903D8143150F846
S214080340210070470020704730B585B0124C204613
S2140803504FF000614FF440720023104DA847082064
S2140803600F4B98470F4B01934FF4E13302934FF42A
S214080370006303934FF48073636663656362C4F82F
S2140803808030236F23F480732367074801A9074B3F
S214080390984705B030BD00BF000E0E401D2208006D
S2140803A0B125080000BD010500080E401D20080004
S2140803B000B583B004480DF10701044B98479DF833
S2140803C0070003B05DF804FB00080E40692008002B
S2140803D0024B586900F00100704700BF00080E4045
S2140803E0034A536913F0010FFBD00120704700BF82
S2140803F000080E4000B585B0002301930293ADF8BF
S2140804000C30054801A9054B984701A8044B9847A6
S21408041005B05DF804FB00BF708A0800DD330800ED
S2140804201D33080038B50C4903240C600B224A60BB
S2140804300022CA6064220A61084D2846084B98477D
S21408044008484FF080514FF48072074B984728466B
S2140804502146064B984738BD28AC0720004009407F
S214080460DD1E080000120E40812108000520080045
S21408047010B584B024200A4B98470A4C204603211E
S214080480094B9847094B019300230293084B0393A3
S214080490204601A9074B9847074B984704B010BD5C
S2140804A0B1250800004009401120080040420F000E
S2140804B000BD01059D1E08002504080008B564282F
S2140804C034BF0246642202480249034B984708BDD7
S2140804D00040094028AC0720E11F080014381428FB
S2140804E01FD8DFE800F00B1E1E1E1E0F1E1E1E1E47
S2140804F0131E1E1E1E171E1E1E1E1B001422094B30
S2140805001A6070471922074B1A6070471E22054B5F
S2140805101A6070472322034B1A6070472822014B43
S2140805201A607047F40807202DE9F04F8BB0624B2D
S21408053098470990DFF8E4A1604E614901F1140B71
S21408054009A86421D047337853B900205D4B18605A
S2140805505D4B18605D4B18605D4B18605D4B9847A7
S2140805603378012BECD1574B1B68E3B95A4CA0479C
S2140805705A4DA8475A4BC3E90001A047A847594B0C
S214080580C3E90001A047A847574BC3E90001A047A5
S214080590564B9847564B984701224A4B1A60337871
S2140805A0934204D0CCE7474B1B68012BC8D1514B6C
S2140805B09847434A5061131F002253F8041F0A4401
S2140805C05B45FAD14C4981FB0213A3EBE2793C4B1D
S2140805D05A6843F8042B5B45FAD10023384A53611E
S2140805E0464B1B68C9EB030302935F42364B1F60FA
S2140805F0374B1B680393424C3846A047CDE90401A5
S214080600324B1868A04702460B46DDE904013D4D0B
S214080610A847CDE900013C4D334BD3E9000124A39C
S214080620D3E90023A84702460B46DFF8F480DDE945
S2140806300001C047CDE900010398A047CDE90601AF
S2140806401BA1D1E90001274BD3E90023A84702469E
S2140806500B46DDE90601C04702460B462B4CDDE992
S2140806600401A04702460B46DDE90001A0471C4BE3
S214080670D3E90023C047264B9847002802DB254BC2
S214080680186002E00022234B1A60104B1F60039B81
S21408069002995A1A0E4B1A601E4C20680D4B984742
S2140806A0094B1A682068494652421B4B984747E749
S2140806B09A9999999999B93FC113080094090720FE
S2140806C02C09072018090720FC080720F808072027
S2140806D000090720BD040800E1030800F503080028
S2140806E0200907201009072008090720B103080079
S2140806F0DD04080009020800ABAAAA2AF4080720A5
S214080700D12D0800352B0800F1300800392B0800D9
S214080710C13208002809072025080800091608001D
S2140807209D2E0800AFF30080044B03F14C015A6875
S21408073043F8042B8B42FAD1704700BFE80907201C
S214080740044B03F14C015A6843F8042B8B42FAD148
S214080750704700BF980907202DE9F04383B0184B6F
S21408076098470190174D184CDFF87C80DFF87C908E
S21408077001A86421A847237843B9C04730B1C847C1
S214080780012801D0C84708B9C84720702378012B2C
S214080790EED10E4F384619210D4EB04738460D4B50
S2140807A01968B04738460C4B1968B04738460B4BA3
S2140807B01968B0470A4B98470A4B9847D8E700BFCE
S2140807C0C11308000916080094090720748A08004F
S2140807D09D330800E80907209809072044090720E0
S2140807E02907080041070800D1030800B1030800DC
S2140807F008B50A4B186878B1186D40B91A4601232F
S21408080052F8041F39B10133142BF9D108BD044B33
S2140808109847142008BD184608BD00BF9809072049
S2140808204107080038B50D4614466428A8BF64205A
S214080830044B1860044B9847044B43F82050044B6D
S2140808401C6038BDE8090720F1070800980907204A
S2140808504409072000F1080343604FF0FF32826026
S214080860C360036100230360704700BF0023036171
S214080870704700BF43685A684A6042688A605A6888
S21408088091605960416008610368013303607047EE
S21408089010B40C68B4F1FF3F01D103690AE000F117
S2140808A00803C2681268944204D35B685A681268E0
S2140808B09442FAD25A684A6091608B60596008611F
S2140808C00368013303605DF8044B70474368826829
S2140808D09A60836842685A6003695A68824204BF0D
S2140808E082685A60002202611A68013A1A6018681B
S2140808F0704700BF03480068006880F3088862B63F
S21408090000DF00BF08ED00E04FF0807340F8043CBD
S21408091040F8081C002340F80C3C40F8202C4038CF
S214080920704700BF064B19680868B0E8F00F80F3F8
S21408093009884FF0000080F311884EF00D0E7047BE
S214080940FCAA07204FF08052014B1A60704700BF80
S21408095004ED00E0EFF311804FF0A00181F3118859
S2140809607047002008B5034B9847034B1A680132B6
S2140809701A6008BD550908000000072080F3118892
S214080980704700BF08B5044A1368013B136013B9E3
S2140809900020024B984708BD000007207D09080084
S2140809A0EFF309800C4B1A6820E9F00F10602DE968
S2140809B008404FF0A00080F3118800F0AFFE4FF01B
S2140809C0000080F31188BDE8084019680868B0E898
S2140809D0F00F80F309887047FCAA072008B54FF087
S2140809E08052054B1A60054B9847054B98470020E0
S2140809F0044B984708BD00BF04ED00E05509080001
S214080A00E11308007D090800034A044B1A60072210
S214080A10043B1A60704700BF1F48010014E000E05E
S214080A2010B5094B1A6842F470021A601A6842F048
S214080A3070421A60054B98470024054B1C60054B0E
S214080A409847204610BD00BF20ED00E0090A0800C0
S214080A5000000720F508080030B4134A13688342DC
S214080A6001D21A46FAE7114654681519854203D189
S214080A70686804445460104642688418A3420CD13F
S214080A800A4C24689C4206D05B681A4442600B688D
S214080A901B68036002E0036000E00360814218BF41
S214080AA0086030BC704700BF3CAA072038AA072059
S214080AB038B50446284B9847284B1B689BB9284AE4
S214080AC0284B13600021516049F6F0729818234DA0
S214080AD0286049F6F475595199505A601860224BA7
S214080AE01A68103A1A60002C2DD004F1100212F081
S214080AF0070F1CBF22F007020832511E49F6FE7384
S214080B00994222D816490C6863689A4204D9236821
S214080B1013B121461C46F7E7104B1B689C4216D0BB
S214080B200D68103523680B6063689B1A202B04D960
S214080B30A018436062600D4B98470B4B1A686168B3
S214080B40521A1A6004E0002502E0002500E000259D
S214080B50074B9847284638BDB113080038AA07201F
S214080B603CAA0720380A072004000720590A08006C
S214080B700115080010B5044668B1074B9847074B9F
S214080B80196854F80C2C0A441A60A4F11000044B97
S214080B909847044B984710BDB11308000400072077
S214080BA0590A08000115080010B50446036C3BB93D
S214080BB003681BBB4068134B9847002363601DE01F
S214080BC06AB980681A46104B9847A268236C134483
S214080BD0A3606268934211D32368A3600EE0C068DE
S214080BE01A46094B9847226C5242E3681344E3605E
S214080BF021688B4202D263681A44E260A36B013311
S214080C00A36310BD351A08001D34080038B503461E
S214080C1005685DB1026CC4681444C46040688442C8
S214080C2028BFDD600846D968014B984738BD00BF25
S214080C301D340800F8B504461D4B9847A36C002BD6
S214080C4012DD636A83B104F124061A4D1A4F01E0D7
S214080C50636A4BB13046A84700B1B847A36C013B5E
S214080C60A364A36C002BF3DC4FF0FF33A364134B91
S214080C7098470F4B9847636C002B12DD236983B1A6
S214080C8004F110060B4D0C4F01E023694BB13046BA
S214080C90A84700B1B847636C013B6364636C002BDC
S214080CA0F3DC4FF0FF336364044B9847F8BD00BF8E
S214080CB06509080051180800811908008509080008
S214080CC038B50D46044618B9164B984700BFFDE7D9
S214080CD0154B98472368226CE06B00FB02F0191846
S214080CE061600021A163A360821A1344E3604FF099
S214080CF0FF336364A36455B923697BB104F110001C
S214080D000A4B9847012809D1094B984706E004F191
S214080D101000084DA84704F12400A847064B98473A
S214080D20012038BD55090800650908005118080053
S214080D30450908005508080085090800F8B50D4655
S214080D401746064688B150200E4B9847044660B1B1
S214080D5005FB06F001300B4B9847206040B920464B
S214080D60094B984701E000BFFDE7084B9847FAE7AC
S214080D70E663256420460121054B984784F84D70A4
S214080D802046F8BDB10A0800750B0800550908008A
S214080D90C10C08002DE9F04F85B08A4601929B46A3
S214080DA0044618B9364B984700BFFDE709B9036CE7
S214080DB01BB90027334E344D03E0314B984700BF2C
S214080DC0FDE7B047A26BE36B9A4212D22046514623
S214080DD05A462E4B9847636A3BB104F124002C4BC5
S214080DE09847012801D12B4B9847274B9847012055
S214080DF043E0019B1BB9244B984700203DE01FB9F0
S214080E0002A8254B98470127A847244B9847B04780
S214080E10636CB3F1FF3F04BF00236364A36CB3F1B4
S214080E20FF3F04BF0023A364A84702A801A91C4BE0
S214080E309847E0B9B047D4F83890D4F83C80A8472B
S214080E40C1450ED104F110000199164B984720466B
S214080E50154B9847154B98470028B2D10D4B984725
S214080E60AFE72046104B9847104B9847A9E720460F
S214080E700D4B98470D4B9847002005B0BDE8F08FFE
S214080E80550908006509080085090800A90B080027
S214080E905118080045090800D5180800B1130800BD
S214080EA0FD180800AD170800350C080001150800E5
S214080EB02DE9F0410E4615469846044618B91C4BCF
S214080EC0984700BFFDE729B9036C1BB1184B984734
S214080ED000BFFDE7164B98470746A26BE36B9A429E
S214080EE018D2204631464246124B9847A36CB3F1B7
S214080EF0FF3F0AD1636A7BB104F124000E4B984782
S214080F0060B16DB101242C600BE0A36C0133A364BF
S214080F10012406E0002404E0012402E0012400E0A5
S214080F2001243846054B98472046BDE8F08100BFA7
S214080F3055090800A90B0800511808007D09080083
S214080F402DE9F04F85B0894601929A46044618B9AD
S214080F50444B984700BFFDE709B9036C2BB9002737
S214080F60414EDFF834B1414D03E03E4B984700BF91
S214080F70FDE7B047A36B002B28D0E5682046494616
S214080F803B4B9847BAF1000F12D1A36B013BA36302
S214080F90236813B9374B98476060236993B104F107
S214080FA01000354B984701280CD1344B984709E078
S214080FB0E560636A33B104F124002F4B984708B103
S214080FC02E4B9847294B9847012048E0019B1BB9B0
S214080FD0264B9847002042E017B902A8D8470127B1
S214080FE0A847274B9847B047636CB3F1FF3F04BF49
S214080FF000236364A36CB3F1FF3F04BF0023A3641C
S214081000A84702A801A91F4B984710BBB047D4F8B9
S2140810103880A847B8F1000F15D1236823B9B04720
S2140810206068194B9847A84704F124000199174BA4
S21408103098472046164B9847164B9847002898D14D
S2140810400E4B984795E72046114B9847114B984703
S2140810508FE720460E4B98470E4B9847002005B062
S214081060BDE8F08F550908006509080085090800DD
S2140810700D0C08008D1908005118080045090800CD
S214081080B1130800FD180800B9190800AD170800C4
S214081090350C080001150800D518080038B50446B0
S2140810A00D460D4B9847636CB3F1FF3F04BF002312
S2140810B06364A36CB3F1FF3F04BF0023A364074B2C
S2140810C09847A36B23B904F124002946044B984794
S2140810D02046044B984738BD65090800850908006E
S2140810E00D180800350C080010B504460E4B1B6892
S2140810F058600E4B1B68984207D20D4B18680A4B6F
S214081100196804310B4B984710BD0B4B1868064BF3
S21408111019680431074B9847084B1B689C423CBF2C
S214081120064B1C6010BD00BFFCAA072018AB0720A2
S2140811301CAB0720910808005CAA072008000720B7
S2140811402DE9F84F0E4617469A460A9DDDF8308078
S214081150814618B9624B984700BFFDE7042D03D9AE
S2140811605F4B984700BFFDE74C205E4B9847044608
S214081170002800F0B180B8F1000F40F0A980B80050
S214081180584B9847206318B92046574B9847A3E012
S214081190A521BA00554B984707F18047013F236BB6
S2140811A003EB870323F0070B04F1340031460A22C9
S2140811B04F4B9847002384F83D30042D34BF2E4605
S2140811C00426E662A664271D3846DFF87081C04705
S2140811D004F11800C0472461C6F10506A6616462DA
S2140811E0584649465246434B9847206010F0070F2A
S2140811F003D03B4B984700BFFDE70B9B03B11C6031
S2140812003D4B98473D4B1A6801321A603C4B1B68A9
S2140812102BBB3B4B1C60394B1B68012B29D1394E25
S21408122006F16409DFF8E0803046C04714364E45BC
S214081230FAD1DFF80C914846334EB047DFF8048100
S2140812404046B0473148B0473148B0473148B047C4
S214081250314BC3F80090314BC3F8008009E0304B9F
S2140812601B6833B9264B1B68DB6A9D4224BF244B98
S2140812701C60E36A2B4A1268934284BF294A1360AB
S214081280294A1168216401311160284A126893427C
S21408129084BF264A136003EB83031A4800EB8300D7
S2140812A03946234B9847234B98471D4B1B684BB131
S2140812B0134B1B68DB6A9D4207D91F4B98470120D2
S2140812C0BDE8F88F0120BDE8F88F0120BDE8F88F4B
S2140812D0C0F8308040465BE74FF0FF30BDE8F88F37
S2140812E055090800B10A0800750B08002F340800D5
S2140812F07535080009090800650908003CAB072091
S214081300FCAA072094AA07205508080000AB072067
S21408131068AA072048AA07205CAA07201CAB072053
S21408132060AA072040AB072020AB072090AA07201A
S2140813307508080085090800450908006D080800B2
S21408134024AB07207CAA072010B584B0002300939E
S2140813500193029303930E480E4982220E4CA0472F
S21408136001280ED10D4B984701280AD10C4B9847F7
S21408137001220C4B1A6000220B4B1A600B4B984745
S21408138004E018B9064B984700BFFDE704B010BD47
S214081390991608008C8A0800411108002D1B0800C1
S2140813A05509080060AA072018AB0720210A08007C
S2140813B0024B1A6801321A60704700BF14AB072048
S2140813C010B5044B9847044B1C68044B98472046B6
S2140813D010BD00BF6509080018AB0720850908007E
S2140813E02DE9F0413A4B1B68002B6BD1394B1A6834
S2140813F001321A601B6803BB374B1B681B681BB19E
S214081400364B984700BFFDE7334B1968344A1068D7
S21408141018601160334A1168013111601B681B6837
S21408142023B94FF0FF32304B1A6006E02A4B1B6890
S214081430DB68DB685A682C4B1A60264B1A682A4BFE
S2140814401B689A4242D3244B1B681B684BB1224B3D
S2140814501B68DB68DC6863681E4A1268934213D907
S2140814600EE04FF0FF32204B1A60BDE8F0811A4BB1
S2140814701B68DB68DC686368164A1268934207D9FB
S214081480194A1360BDE8F081184E194FDFF86C80D2
S214081490251D2846B047A36A13B104F11800B047C3
S2140814A0E36A3A68934288BF3B6003EB830008EB25
S2140814B0800029460F4B9847074B1B681B68002B74
S2140814C0D5D1CEE70C4B1A6801321A60BDE8F08118
S2140814D014AB072018AB07205CAA0720550908009C
S2140814E01CAB0720F8AA072008000720CD0808002C
S2140814F090AA07207508080044AA072094AA07207F
S2140815002DE9F843314B1B681BB9314B984700BF90
S214081510FDE7304B98472D4B1A68013A1A601B684E
S214081520002B48D12C4B1B68002B46D00025DFF833
S214081530D4802A4F2A4E1DE0D8F80C30DC6804F117
S2140815401800B84704F104094846B847E36A326801
S214081550934288BF336003EB8303224800EB830083
S2140815604946214B9847214B1B68E26ADB6A9A4238
S21408157028BF0125D8F80030002BDDD11C4B1B688E
S21408158063B11B4B1B687BB11A4D194CA8472368DF
S214081590013B23602368002BF8D105E0012D03D01A
S2140815A0154B1B68012B0AD10022134B1A60134BEC
S2140815B09847012404E0002402E0002400E0002408
S2140815C00F4B98472046BDE8F88300BF14AB0720AA
S2140815D055090800650908003CAB0720CD08080037
S2140815E090AA072094AA072075080800FCAA0720D6
S2140815F044AA0720E113080038AB0720450908006D
S2140816008509080000AB072038B50C46054618B90A
S214081610194B984700BFFDE719B9174B984700BF05
S214081620FDE7164B98472B681C44154A12689342E8
S21408163007D9A3421CD9124B1B682C609C420FD9B1
S21408164006E0A34212D80E4B1B689C420ED80FE049
S2140816500C4B186804300C4B984720460B4B9847A1
S2140816600B4B984730B90B4B984738BD2C60EFE7C3
S2140816702C60F5E738BD00BF55090800B11308000F
S21408168018AB0720FCAA0720CD080800E9100800B8
S214081690011508004509080080B5154D154EDFF8F8
S2140816A078801CE0144B9847144B1C68144B9847DA
S2140816B0ACB1144B9847114BDB68DC68201D124B05
S2140816C09847124B1A68013A1A602B68013B2B6040
S2140816D00F4B9847206B0F4FB8472046B8472B68E4
S2140816E0002BDFD13368012BF9D9C047F7E700BFD5
S2140816F064AA072094AA0720B113080068AA07203E
S2140817000115080065090800CD0808003CAB07204D
S21408171085090800750B08004509080008B51D4B23
S2140817201B685BB91C4B1B6803EB83039B001B4AB7
S214081730D358CBB9184B1B6853B905E00122184B90
S2140817401A6008BD1A682AB9164B984700BFFDE705
S214081750114B12491A68013A1A601A6802EB82029B
S21408176051F82220002AEDD00B4B1B6803EB8303AD
S2140817700A4A02EB83035A6852685A6003F1080162
S2140817808A4204BF52685A605B68DA68064B1A6079
S21408179008BD00BF14AB072090AA072094AA07200C
S2140817A038AB072055090800FCAA072038B50C46B0
S2140817B018B90E4B984700BFFDE70D4D296818313C
S2140817C00C4B9847286804300B4B9847B4F1FF3FFA
S2140817D005D1296809480431094B984738BD094B93
S2140817E018682044084B984738BD00BF55090800BC
S2140817F0FCAA072091080800CD08080048AA072078
S2140818007508080018AB0720E910080038B50D461B
S21408181018B9094B984700BFFDE7084C21681831EE
S214081820074B984720680430064B9847064B1868BD
S2140818302844064B984738BD55090800FCAA0720D7
S21408184075080800CD08080018AB0720E91008003E
S21408185038B5C368DC681CB9164B984700BFFDE767
S21408186004F118052846144B9847144B1B689BB977
S214081870251D2846104B9847E36A114A126893427A
S21408188084BF0F4A136003EB83030E4800EB830004
S21408189029460D4B984703E00C4829460A4B9847BB
S2140818A00B4B1B68E06ADB6A984234BF00200120B5
S2140818B038BD00BF55090800CD08080014AB07203E
S2140818C090AA072094AA07207508080000AB0720EE
S2140818D0FCAA072008B518B9054B984700BFFDE7CE
S2140818E0044A12680260044A1268426008BD00BFD3
S2140818F055090800F8AA072018AB072038B50D4682
S214081900044618B9184B984700BFFDE719B9164B97
S214081910984700BFFDE7154B98472B68B3F1FF3F84
S21408192019D0134A116822688A4204D0114A1168ED
S21408193062688A4211D90F4A11686268891A8B420E
S2140819400DD90C490968521A13442B6020460A4BD5
S2140819509847002404E0002402E0012400E0012463
S214081960064B9847204638BD550908006509080003
S214081970F8AA072018AB0720D5180800850908001C
S2140819800122014B1A60704738AB0720014B1868D4
S214081990704700BFFCAA0720054B1B6833B1054BF0
S2140819A01B68002B14BF02200120704700207047D8
S2140819B060AA072014AB072038B5044600282ED0A6
S2140819C0C36A174A1268D26A934228D2144A12681F
S2140819D0D26AC2F10502826103EB8303114A02EB65
S2140819E0830342699A4216D1051D28460E4B98472E
S2140819F00B4B1B68DB6AE3620C4A1268934284BF8F
S214081A000A4A136003EB8303064800EB8300294663
S214081A10074B984738BD024B1B68DB6AC36238BD64
S214081A20FCAA072094AA0720CD08080090AA072039
S214081A307508080038B50446D0B1C26A836C9A4265
S214081A4016D0051D28460B4B9847A36CE362C3F1D6
S214081A500502A261084A1268934284BF064A1360C8
S214081A6003EB8303054800EB83002946044B98479D
S214081A7038BD00BFCD08080090AA072094AA072002
S214081A807508080010B504464160206191420AD8DE
S214081A90D21A81698A4211D20A4B1868211D0A4B4C
S214081AA09847002010BD9A4201D2994208D2074BA7
S214081AB01868211D044B9847002010BD012010BD52
S214081AC0012010BD78AB07209108080044AB07201A
S214081AD070B50D4B98470D4B1B688BB90C4D2846B7
S214081AE00C4EB0470C4C2046B0470C4B1D600C4BB8
S214081AF01C6005200C2100220A4B9847034B1860EF
S214081B00094B984770BD00BF6509080074AB0720ED
S214081B1048AB0720550808005CAB072044AB0720F5
S214081B2078AB07203D0D08008509080010B584B07D
S214081B300B4B98470B4B1B6863B104230093002399
S214081B40019302930393084808494FF48272084C9D
S214081B50A04718B9074B984700BFFDE704B010BD6B
S214081B60D11A080074AB0720811C0800988A080060
S214081B70411108005509080010B584B00F4C2468B8
S214081B80C4B10191029203906BB90D4B9847012896
S214081B900A4B186801A907BF069A002300221346B5
S214081BA0084CA04707E0204601A91A460023064C21
S214081BB0A04700E0002004B010BD00BF74AB0720AB
S214081BC099190800950D0800B10E08002DE9F04790
S214081BD082B08146224B98478046224B1B68984223
S214081BE034D2214E214F24E0DA68D2F800A0DB6810
S214081BF0DC68251D2846B847636A20469847E36987
S214081C00012B16D1A3695344534506D96360246152
S214081C1030682946164B98470BE000230093204669
S214081C2019465246134CA04718B9134B984700BF9D
S214081C30FDE733681A68002AD6D1104A11680A48A0
S214081C40016013600123C9F8003002E00023C9F8D8
S214081C500030044BC3F80080404602B0BDE8F08769
S214081C60C113080070AB072044AB0720CD08080056
S214081C7091080800791B08005509080078AB07206A
S214081C802DE9F04387B04D4DDFF860814C4B1B685B
S214081C901A68002A00F08780DB681E68494B984758
S214081CA003A8494B98470746039B002B30D186422A
S214081CB024D8464B9847424B1B68DB68DC68201DD7
S214081CC0C047E369012B14D1A169204631443A463E
S214081CD033463F4FB84701280BD1002300932046D0
S214081CE0194632463B4EB04718B93B4B984700BF9B
S214081CF0FDE7636A204698470CE000262868F11B33
S214081D00364B9847314B984720B9354B984701E0F2
S214081D102E4B984702A82C4B98470746314EDFF8BB
S214081D20B09038E0059C1CB1616909B1201DC04718
S214081D30039902291FD003292AD000292BD1049BF6
S214081D40A169204619443A46C847012823D1636A40
S214081D5020469847E369012B1DD1A269002300930A
S214081D6020461946049C22441A4CA04798B91A4B98
S214081D70984700BFFDE70499A16119B9164B984723
S214081D8000BFFDE7204639443A463B46C84702E0CE
S214081D902046154B9847286803A900221346B047E3
S214081DA00028BFD172E7074B984703A8064B984709
S214081DB00746039B002BA0D0AAE700BF74AB0720FA
S214081DC044AB0720B1130800CD1B08000115080016
S214081DD0851A0800791B0800550908009D10080098
S214081DE045090800410F0800750B0800CD080800D3
S214081DF02DE9F0410E461546013802280FD892B153
S214081E000024DFF83C800D4FD8F80000315D3B68B1
S214081E10984700280ADB0134A542F5D10AE04FF0BE
S214081E20FF30BDE8F0810020BDE8F0814FF0FF30BC
S214081E30BDE8F0812046BDE8F08100BF50AC072021
S214081E4054AC0720F0B48CB007460E4601AC124DD1
S214081E500FCD0FC40FCD0FC495E8070084E8070020
S214081E606A46002352F8044FB6FBF4F4B4FBF7F4C2
S214081E70B4F5807F03D901330B2BF3D104E00A2B8A
S214081E8005D844EA032004E04FF6FF7001E04FF659
S214081E90FF700CB0F0BC7047A08A080070B5064604
S214081EA00C46086840B189680B4B984705464FF6BC
S214081EB0FF73984201D10EE00025606840B1A16822
S214081EC0054B98474FF6FF73984204D045EA0045FD
S214081ED03560002070BD70BD451E080070B40B68E4
S214081EE08C8A4A6802F00F0214430D892C438A7ABA
S214081EF044EA42248A7D44EA0244CA7D44EA4244CB
S214081F000A7E44EA824400EB4312C2F80042CC68D8
S214081F10C2F804420C69C2F80C428A7D3AB18C8B2E
S214081F204A8B42EA044400EB4312C2F81842856C16
S214081F304FF001129A40D2431540CE7F9E408C7FC8
S214081F409C4044EA06442C438464446C224091F83E
S214081F5021509D4091F820409C4044EA0544224385
S214081F60426401229A4091F822401CB1046A144344
S214081F70046203E0046A24EA0204046291F8244036
S214081F80012C846E0CBF14439443846691F8254054
S214081F90012C846E0CBF44EA024224EA024282669E
S214081FA0032B0CD8C46EDB00FF229A4024EA0202F8
S214081FB091F8231001FA03F31343C3660CE0043BBD
S214081FC0046FDB00FF229A4024EA020291F82310ED
S214081FD001FA03F313430367002070BC704700BF81
S214081FE010B40C680B69934206D3CA6000EB441021
S214081FF0C0F80822002001E04FF6FF705DF8044B99
S214082000704700BF012303FA01F14160704700BF23
S214082010012303FA01F18160704700BF10B4AC23B6
S21408202003600A684B68B2FBF3F31B095C1E4FF6A5
S214082030FE7294420AD803628B68436040F2022319
S214082040C0F8203150230360002000E001205DF82E
S214082050044B7047436913F0020F02D0C161002099
S21408206070470120704700BF436913F0010F03D083
S21408207083690B700020704701207047436913F08E
S214082080020F04D0C1F30801C16100207047012087
S214082090704700BF436913F0010F05D08369C3F387
S2140820A008030B60002070470120704710B50E48E3
S2140820B00E4B984700203E210D4B98470D4CA047E5
S2140820C00028FCD00C4B98470C4A0D4B9A620D4CD6
S2140820D0A0470028FCD010200B4B98470B4B98477E
S2140820E00148024B984710BD00BD0105D9270800D6
S2140820F02D2508008125080091250800013F0D20A0
S21408210000060E40A1250800C9240800BD260800C0
S21408211010B54FF40042134B5A600B20124CA047E0
S2140821200C20A0470D20A0470E20A0473B204FF0CC
S21408213060510E4CA04755204FF06051A0475620DE
S2140821404FF06051A04768200949A0475C2009491C
S214082150A04709484FF440714FF00062074B984774
S21408216010BD00BF501A0E40B1250800AD22080069
S2140821707900002801000028000E0E408123080080
S2140821804264B1F1805F16D004D8C1B1B1F1006FD6
S2140821900AD013E0B1F1405F11D0B1F1605F0ED004
S2140821A0B1F1205F0AD17047036F016F0B4023EA35
S2140821B00203036702E0036F134303674260704736
S2140821C0416412F0010F14BF4166016612F00A0F4F
S2140821D014BF0162416212F0020F02D0C0F88010EC
S2140821E004E012F0080F18BFC0F8841041610160BF
S2140821F0704700BF10B44164019C0CB1416600E012
S21408220001660BB1016500E041650AB1016300E0B3
S2140822104163016101605DF8044B7047F0B583B017
S21408222007460C4616461D46B1F1205F1AD006D85A
S214082230B1F1006F0AD0B1F1805F07D028E0B1F1A4
S214082240405F15D0B1F1605F12D021E038462146D4
S2140822503246114B984715F0010F14BF7E663E664E
S214082260012016E011461A460C4B9847012010E04C
S21408227005F00103009338463146B4F1605F14BF99
S21408228000220122C5F38003054CA047012000E088
S214082290002003B0F0BD00BF81210800C12108005E
S2140822A0F5210800C06C7047806C704770B582B026
S2140822B00D46440904F5001404F20774660201F09A
S2140822C0F044B4F1205F30D006D8B4F1006F0AD0DD
S2140822D0B4F1805F18D049E0B4F1405F30D0B4F173
S2140822E0605F2DD042E000F01F0001248440304695
S2140822F04FF0006122461F4B984715F0010F14BF98
S21408230074663466012032E000F01F000124844021
S21408231030464FF080512246164B984715F0010F6D
S21408232014BF74663466012021E000F01F01012402
S214082330304604FA01F12A460F4B9847204616E025
S21408234000F01F01012405F0605205EA040300931B
S214082350304604FA01F1B2F1605F14BF0022012290
S214082360C5F38003054DA847204600E0002002B0CC
S21408237070BD00BF81210800C1210800F5210800B2
S214082380F0B583B007460E46154602F0F044B4F1A1
S214082390205F26D006D8B4F1006F0AD0B4F1805F6B
S2140823A013D034E0B4F1405F1FD0B4F1605F1CD0A6
S2140823B02DE04FF000613246164B984715F0010F96
S2140823C014BF7E663E66012022E04FF080513246FA
S2140823D0104B984715F0010F14BF7E663E66012025
S2140823E016E00D4B9847012012E005F0605205F004
S2140823F00103009338463146B2F1605F14BF0022ED
S2140824000122C5F38003054CA047012000E0002008
S21408241003B0F0BD81210800C1210800F52108009D
S2140824202DE9F04104460E46104B984705462046CF
S2140824300F4B9847054017D00E4F07F10C046C3722
S21408244054F80C3CB3420AD154F8081C294206D06A
S21408245023683046984754F8083C25EA0305BC42EA
S21408246002D01034002DEBD1BDE8F081A52208007B
S214082470A92208007CAB072008B502480B21024BAE
S214082480984708BD000E0E402124080008B50248EB
S2140824900C21024B984708BD00100E402124080066
S2140824A008B502480D21024B984708BD00120E4099
S2140824B02124080008B502480E21024B984708BD9B
S2140824C000140E4021240800174B1A6B22F07002E5
S2140824D0104318639B6E13F0080F09D14FF400637E
S2140824E0114901E0013B19D08A6E12F0080FF9D0A5
S2140824F00D4B1A6B22F0030242F002021A63986E22
S21408250010F008000CD14FF40063074901E0013BC6
S21408251008D08A6E12F0080FF9D07047012070476D
S214082520002070470120704700060E4038B1114958
S2140825300B6A114A1A40114B13430B6270470D4A37
S214082540136A23F45C1323F0030343F45C1343F089
S2140825500103090289B20B431362936E13F0010F4D
S214082560FBD0044A136A43F09B7343F48033136228
S214082570704700BF00060E40FCFFC8FE0200370189
S214082580024B986E00F48030704700BF00060E407D
S2140825904FF00052014B9A62704700BF00060E408B
S2140825A0024B986E00F00200704700BF00060E400F
S2140825B02C2820D81F280DD8124B9A69012383404F
S2140825C01A40934219D0012303FA00F00D4B186104
S2140825D0002070470B4BD3F808212038012383408E
S2140825E01A4093420BD0012303FA00F0054BC3F8B8
S2140825F00001002070470120704700207047002027
S214082600704700BF00060E40FEE700BF10B51E4B21
S2140826101E4A9A4203D01E4B1B4A9A4204D31D4BAD
S2140826201D4A9A420FD31AE01C4B1D4CE41A24F09C
S214082630030404340023144814495A581A5004331F
S214082640A342FAD1EBE7174B1749C91A21F0030141
S2140826501A1D1144002243F8042F8B42FBD1134A5B
S21408266022F0604323F07F0311498B6002F1604239
S214082670B2F5801F03D28A6842F000528A600D4B7A
S21408268098470D4B9847FEE700000720648E080021
S214082690D80807205CAC0720D808072004000720C5
S2140826A0DB080720D408072057AC072000000800DE
S2140826B000ED00E051330800012A08003E4B1B6B72
S2140826C003F00303032B5FD8DFE803F0020E2B2B7F
S2140826D03A4B5B6913F0800F14BF4FF400424FF477
S2140826E0FA42374B1A604FE0334B1B6A13F0807F71
S2140826F003D0344A324B1A6046E0334A304B1A60ED
S2140827002D4B1B6A03F07003102B02D0202B04D02D
S2140827103AE02E4A2A4B1A6036E02A4A284B1A60B4
S21408272032E0254B1B6A13F0807F03D0254A244BE2
S2140827301A6012E0244A224B1A601F4B1B6A03F0E9
S2140827407003102B02D0202B04D006E01F4A1C4B27
S2140827501A6002E01B4A1A4B1A60174B1B6B03F0F1
S2140827600303022B0DD1144B986A996A144BC0F3D5
S2140827700A401A6800FB0222C9B2B2FBF1F21A60DC
S21408278002E0134A0E4B1A600B4B1B6B03F07003E8
S214082790702B07D10A4B1A680E49A1FB0202520891
S2140827A01A607047044B196B054BC1F302111A687F
S2140827B0CA401A60704700BF00060E40101A0E4046
S2140827C00C000720001BB70000093D0000127A0025
S2140827D0001C4E0EABAAAAAA1B4B984206D800238A
S2140827E01A4A136002F5007213607047184B984235
S2140827F007D84FF48073154A136002F50072136009
S2140828007047144B984207D84FF400730F4A13606A
S21408281002F50072136070470F4B984207D84FF4C2
S21408282040730A4A136002F50072136070470B4B38
S214082830984294BF4FF480634FF4A063034A136032
S21408284002F5007213607047BFEA2101000A0E40C5
S2140828507FF0FA02FF8FD003FFB3C4047F4A5D05FA
S214082860094B1B6813B9094A074B1A60064B1B68C5
S2140828701A180749914204DB1046034A10601846A6
S21408288070474FF0FF307047ECAB072060CC07204E
S214082890FC7F08204FF0FF30704700BF4FF400530E
S2140828A04B600020704700BF01207047002070472B
S2140828B0F0B583B004460D46002301931F4B98429B
S2140828C007D11F461E4E38462946B0470028FAD17B
S2140828D019E01C4B984209D11F461B4E384601A9E1
S2140828E0B0470028FAD1019B2B7019E0174B984285
S2140828F009D11E46144C304601A9A0470028FAD133
S214082900019B2B7018E0124B9C4209D11E460E4CB8
S214082910304601A9A0470028FAD1019B2B700BE08E
S2140829200C4B9C4208D11E46074C304601A9A047CE
S2140829300028FAD1019B2B7003B0F0BD00080E40AA
S21408294069200800008009409520080000C009405A
S21408295000000A4000400A4070B50C46214B9842D9
S21408296007D11E46204D30462146A8470028FAD1F2
S2140829702BE01E4B984207D11E461D4D3046214679
S214082980A8470028FAD122E01A4B984207D11E46DB
S214082990174D30462146A8470028FAD119E0164BAD
S2140829A0984207D11E46124D30462146A8470028B1
S2140829B0FAD110E0114B98420FD11E460C4D304606
S2140829C02146A8470028FAD109E0012070BD012059
S2140829D070BD012070BD012070BD002070BD0120B3
S2140829E070BD00BF00080E40552008000080094052
S2140829F07D20080000C0094000000A4000400A4048
S214082A0030B589B0304B9847304B98470B20304C40
S214082A10A0470C20A0470D20A0470E20A0472D4B0E
S214082A2098470820A0472C4D2C4B1D602C4A2D4B50
S214082A301A602D4A2D4B1A602D4B05934FF4E1333F
S214082A4006934FF4006307930820A047284605A975
S214082A50284B9847284D2B6898680021274CA04794
S214082A602B6858680021A0472B6898680021A04763
S214082A70234B9847234B9847022300930023019340
S214082A8002930393204821494FF48062204CA047C4
S214082A90012802D01F48204B9847012300930023A3
S214082AA00193029303931D481D494FF48062184C06
S214082AB0A047012802D01B48174B98471A4B98473F
S214082AC0002009B030BD00BFAD2008001121080065
S214082AD0B1250800A501080000080E4054AC0720E0
S214082AE05929080050AC0720B128080024AC072054
S214082AF000BD01051D200800100007203F3408000F
S214082B00710408004903080029050800CC8A080053
S214082B1041110800DC8A08009D33080059070800A0
S214082B20FC8A0800108B08004913080081F0004151
S214082B3002E000BF83F0004330B54FEA41044FEA95
S214082B40430594EA050F08BF90EA020F1FBF54EA30
S214082B50000C55EA020C7FEA645C7FEA655C00F0CC
S214082B60E2804FEA5454D4EB5555B8BF6D420CDD9D
S214082B702C4480EA020281EA030382EA000083EA20
S214082B80010180EA020281EA0303362D88BF30BDC0
S214082B9011F0004F4FEA01314FF4801C4CEA113116
S214082BA002D0404261EB410113F0004F4FEA033375
S214082BB04CEA133302D0524263EB430394EA050F00
S214082BC000F0A780A4F10104D5F1200E0DDB02FA6F
S214082BD00EFC22FA05F2801841F1000103FA0EF203
S214082BE0801843FA05F359410EE0A5F120050EF1C9
S214082BF0200E012A03FA0EFC28BF4CF0020C43FAFA
S214082C0005F3C01851EBE37101F0004507D54FF006
S214082C10000EDCF1000C7EEB00006EEB0101B1F556
S214082C20801F1BD3B1F5001F0CD349085FEA30009C
S214082C304FEA3C0C04F101044FEA445212F5800FA7
S214082C4080F09A80BCF1004F08BF5FEA500C50F144
S214082C50000041EB045141EA050130BD5FEA4C0C27
S214082C60404141EB010111F4801FA4F10104E9D1B0
S214082C7091F0000F04BF01460020B1FA81F308BFA7
S214082C802033A3F10B03B3F120020CDA0C3208DD73
S214082C9002F1140CC2F10C0201FA0CF021FA02F14E
S214082CA00CE002F11402D8BFC2F1200C01FA02F1BE
S214082CB020FA0CFCDCBF41EA0C019040E41AA2BFE3
S214082CC001EB0451294330BD6FEA04041F3C1CDAAB
S214082CD00C340EDC04F11404C4F1200220FA04F0CB
S214082CE001FA02F340EA030021FA04F345EA030175
S214082CF030BDC4F10C04C4F1200220FA02F001FA37
S214082D0004F340EA0300294630BD21FA04F02946B8
S214082D1030BD94F0000F83F4801306BF81F4801151
S214082D200134013D4EE77FEA645C18BF7FEA655CC4
S214082D3029D094EA050F08BF90EA020F05D054EA96
S214082D40000C04BF1946104630BD91EA030F1EBF9B
S214082D500021002030BD5FEA545C05D1400049419F
S214082D6028BF41F0004130BD14F580043CBF01F592
S214082D70801130BD01F0004545F0FE4141F4700178
S214082D804FF0000030BD7FEA645C1ABF1946104653
S214082D907FEA655C1CBF0B46024650EA013406BF54
S214082DA052EA033591EA030F41F4002130BD00BF13
S214082DB090F0000F04BF0021704730B54FF48064D0
S214082DC004F132044FF000054FF0000150E700BF51
S214082DD090F0000F04BF0021704730B54FF48064B0
S214082DE004F1320410F0004548BF40424FF000019D
S214082DF03EE700BF42004FEAE2014FEA31014FEAE0
S214082E0002701FBF12F07F4393F07F4F81F060512E
S214082E10704792F0000F14BF93F07F4F704730B59D
S214082E204FF4607401F0004521F0004120E700BF30
S214082E3050EA010208BF704730B54FF000050AE0B7
S214082E4050EA010208BF704730B511F0004502D5B8
S214082E50404261EB41014FF4806404F132045FEABA
S214082E60915C3FF4DCAE4FF003025FEADC0C18BF5F
S214082E7003325FEADC0C18BF033202EBDC02C2F155
S214082E80200300FA03FC20FA02F001FA03FE40EAE7
S214082E900E0021FA02F11444C1E600BF70B54FF0E7
S214082EA0FF0C4CF4E06C1CEA11541DBF1CEA1355C9
S214082EB094EA0C0F95EA0C0F00F0DEF82C4481EA31
S214082EC0030621EA4C5123EA4C5350EA013518BF51
S214082ED052EA033541F4801143F4801338D0A0FB3E
S214082EE002CE4FF00005E1FB02E506F00042E0FBEB
S214082EF003E54FF00006E1FB03569CF0000F18BFF1
S214082F004EF0010EA4F1FF04B6F5007F64F5407498
S214082F1004D25FEA4E0E6D4146EB060642EAC6212B
S214082F2041EA55514FEAC52040EA5E504FEACE2E98
S214082F30B4F1FD0C88BFBCF5E06F1ED8BEF1004F9B
S214082F4008BF5FEA500E50F1000041EB045170BD17
S214082F5006F0004646EA010140EA020081EA03015B
S214082F60B4EB5C04C2BFD4EB0C0541EA045170BD57
S214082F7041F480114FF0000E013C00F3AB8014F1D1
S214082F80360FDEBF002001F0004170BDC4F100041A
S214082F90203C35DA0C341BDC04F11404C4F120059B
S214082FA000FA05F320FA04F001FA05F240EA0200F6
S214082FB001F0004221F0004110EBD37021FA04F62C
S214082FC042EB06015EEA430E08BF20EAD37070BDE6
S214082FD0C4F10C04C4F1200500FA04F320FA05F045
S214082FE001FA04F240EA020001F0004110EBD37047
S214082FF041F100015EEA430E08BF20EAD37070BDB7
S214083000C4F1200500FA05F24EEA020E20FA04F38F
S21408301001FA05F243EA020321FA04F001F000413E
S21408302021FA04F220EA020000EBD3705EEA430EAF
S21408303008BF20EAD37070BD94F0000F0FD101F0DE
S2140830400046400041EB010111F4801F08BF013C17
S214083050F7D041EA060195F0000F18BF704703F055
S2140830600046520043EB030313F4801F08BF013DDC
S214083070F7D043EA0603704794EA0C0F0CEA135598
S21408308018BF95EA0C0F0CD050EA410618BF52EA52
S2140830904306D1D181EA030101F000414FF0000058
S2140830A070BD50EA410606BF1046194652EA430666
S2140830B019D094EA0C0F02D150EA013613D195EADA
S2140830C00C0F05D152EA03361CBF104619460AD122
S2140830D081EA030101F0004141F0FE4141F470012C
S2140830E04FF0000070BD41F0FE4141F4780170BD1C
S2140830F070B54FF0FF0C4CF4E06C1CEA11541DBF81
S2140831001CEA135594EA0C0F95EA0C0F00F0A7F882
S214083110A4EB050481EA030E52EA03354FEA0131AF
S21408312000F088804FEA03334FF0805545EA1313C2
S21408313043EA12634FEA022245EA111545EA10658A
S2140831404FEA00260EF000419D4208BF964244F121
S214083150FD0404F5407402D25B084FEA3202B61A40
S21408316065EB03055B084FEA32024FF480104FF414
S214083170002CB6EB020E75EB030E22BFB61A754688
S21408318040EA0C005B084FEA3202B6EB020E75EB1B
S214083190030E22BFB61A754640EA5C005B084FEA83
S2140831A03202B6EB020E75EB030E22BFB61A754650
S2140831B040EA9C005B084FEA3202B6EB020E75EB5B
S2140831C0030E22BFB61A754640EADC0055EA060E1C
S2140831D018D04FEA051545EA16754FEA06164FEA5F
S2140831E0C30343EA52734FEAC2025FEA1C1CC0D10B
S2140831F011F4801F0BD141EA00014FF000004FF098
S214083200004CB6E711F4801F04BF01430020B4F158
S214083210FD0C88BFBCF5E06F3FF6AFAEB5EB030C10
S21408322004BFB6EB020C5FEA500C50F1000041EB0D
S214083230045170BD0EF0004E4EEA113114EB5C04DA
S214083240C2BFD4EB0C0541EA045170BD41F48011AD
S2140832504FF0000E013C90E645EA060E8DE60CEAB5
S214083260135594EA0C0F08BF95EA0C0F3FF43BAFD2
S21408327094EA0C0F0AD150EA01347FF434AF95EA89
S2140832800C0F7FF425AF104619462CE795EA0C0F6D
S21408329006D152EA03353FF4FDAE1046194622E73A
S2140832A050EA410618BF52EA43067FF4C5AE50EA14
S2140832B041047FF40DAF52EA43057FF4EBAE12E704
S2140832C04FEA410212F5001215D211D56FF4787341
S2140832D0B3EB625212D94FEAC12343F0004343EAE4
S2140832E0505311F0004F23FA02F018BF40427047BF
S2140832F04FF00000704750EA013005D111F0004049
S21408330008BF6FF0004070474FF00000704700BFDE
S214083310014600200246034602F096B8002100F057
S2140833208BBF000038B5084D084C641BA41005EB8D
S214083330840524B155F8043D013C9847F9E7BDE8F3
S214083340384005F083BD00BF588E08005C8E080024
S21408335070B50E4B0E4D0024ED1AAD101E46AC424D
S21408336004D056F8242090470134F8E705F064FDA9
S214083370084D094B0024ED1AAD101E46AC4204D089
S21408338056F8242090470134F8E770BD448E0800AC
S214083390448E08004C8E0800448E08000FB407B50B
S2140833A0064904AB086853F8042B8168019300F0BB
S2140833B09AFF03B05DF804EB04B0704710000720CE
S2140833C00EB403B503AB53F8042B8168019300F0E1
S2140833D08AFF02B05DF804EB03B070470FB407B578
S2140833E0064904AB086853F8042B4168019301F0BA
S2140833F0CDFB03B05DF804EB04B07047100007205F
S2140834000EB403B503AB53F8042B4168019301F0DF
S214083410BDFB02B05DF804EB03B0704710B500239F
S214083420934203D0CC5CC4540133F9E710BD024480
S2140834300346934202D003F8011BFAE770470029B7
S2140834400CBF022200224FF4806300F001B800008F
S2140834502DE9F0411D46364B04461F680E46904639
S21408346027B1BB6B13B9384602F018F9B8F1020F4A
S21408347059D8002D57DB3846214602F0C6F80023F7
S2140834806360A361A3891B0603D53846216902F049
S214083490E1FAA389B8F1020F23F08303A38112D0BF
S2140834A036BB002D08BF4FF48065284603F0E4F8C5
S2140834B00646C8B94FF4806003F0DEF8064688B9B9
S2140834C04FF0FF3000E00020A38943F00203A381F9
S2140834D00023A36004F1430323602361012363618F
S2140834E0BDE8F0814FF48065A38943F08003A3818B
S2140834F0B8F1010F05D1A38943F00103A3816B42FC
S214083500A3610C4BFB63A389266003F0080080B216
S2140835102661656148B113F0030F18BF0025A56042
S2140835200020BDE8F0814FF0FF30BDE8F08100BF15
S2140835301000072059560800034613F8012B002AE6
S214083540FBD1181A0138704770B58AB10B46054684
S2140835501C7810F8016B0131B44201D1012A03D15D
S21408356028781B78C01A70BD013A002CEED1F7E710
S214083570104670BD10B5034632B111F8014B013A3A
S21408358003F8014B002CF7D11A44934203D00021CC
S21408359003F8011BF9E710BD30B5026811F8015BA6
S2140835A0541C5DB153782246A3F14104E4B2192CA9
S2140835B098BF2033AB42F1D0002030BD0460012014
S2140835C030BD2DE9F0410D46904603F0A4FD0646B1
S2140835D00F46B8F1000F0FD0C5F30A53C3F16B03BB
S2140835E0002B09DD1C0504F17F5303F54013002268
S2140835F0FFF754FCBDE8F08130463946BDE8F08157
S2140836002DE9F04F00239FB08146049115921A9336
S2140836104FF0000A4FF0000B1991199A13780D2BEA
S21408362005D8092B14D2002B00F0B38113E02B2BFE
S21408363007D02D2B02D0202B0DD109E001260996A4
S21408364001E000270997531C199353782BB9A0E17A
S21408365001321992E1E700260996199C2378302B47
S2140836605AD16378582B01D0782B49D1099F1AABC9
S21408367000930197484619A99D4A1BAB02F075FCB2
S21408368010F00706054600F0AF85062E02D1013475
S214083690199480E11A9A3AB11CA8352103F040FE25
S2140836A048461A9903F0B6FA1B9A062E21D8DFE880
S2140836B006F0040D08171C0D04004FF0000BDA4640
S2140836C017E0DDF870A0DDF874B012E01D9B02F27A
S2140836D0334223F48013DDF870A043EA025B08E067
S2140836E0DFF810B24FF0000A03E06FF0004B4FF01F
S2140836F0FF3A2B0740F178854BF0004B00F074BD7D
S214083700199B5A1C19925B78302BF9D0002B00F0C5
S2140837106B850123059301E000260596199F4FF057
S21408372000080797CDF80C804446199E3578A5F111
S2140837303003DAB2092A10D8082CD8BF039F4FF0F6
S2140837400A02D8BF02FB073706F10106D4BF039763
S21408375002FB083801341996E7E7484602F016FFD8
S2140837600768484602F012FF0068FFF7E5FE39468C
S21408377002463046FFF7E8FE064628B100232A46EA
S214083780194625460A935FE04846199D02F0FEFE54
S2140837900068FFF7D1FE2B1819932A5C002C45D138
S2140837A02346302A05D1199A0133511C19915278AB
S2140837B0F7E7A2F13101082942D8199E19460023D5
S2140837C007961D46303A03F1010029D001446E1CC5
S2140837D0771B874210DA771E082F06DC039F4FF008
S2140837E00A0C0CFB07F7039704E0102EDCBF0A2729
S2140837F007FB08F80136EBE7002BACBFEB182B1CD1
S214083800082B03F1010505DC039E0A2303FB0626A5
S214083810039604E0102DDCBF0A2303FB08280020CB
S214083820199B5A1C19925A78034602E025463346D5
S2140838303146A2F130000928C4D901270A9703E0C7
S2140838400025012029460A9022F02006452E55D14B
S21408385025B91BB9059E002E00F09B80199F7A1C7F
S21408386019927A7804972B2A04D02D2A05D0002698
S2140838700F9608E000200F9001E001270F97049E9E
S214083880B21C1992B278A2F13007092F34D8302A20
S21408389004D1199A571C19975278F8E7A2F13107FC
S2140838A0082F2BD81998A2F130070690199A561C9B
S2140838B0199652780E96A2F13000C6B2092E05D88F
S2140838C04FF00A0C0CFB0727303FEFE70E98069ED2
S2140838D0C6EB000CBCF1080F44F61F6C02DC67450B
S2140838E0B8BFBC460F9F5FB1CCF1000C08E000BF24
S2140838F0408B08000000F07F049E19964FF0000CDD
S214083900002D4CD1002B40F06F84059F002F40F00F
S2140839106B840A9800283CD14E2A1BD002DC492A20
S21408392005D036E0692A02D06E2A13D031E019A8ED
S214083930AC49FFF731FE60B3199B19A8013BAA49A9
S2140839401993FFF729FE10B9199B01331993DFF86D
S214083950B4B21AE019A8A549FFF71EFEC8B1199B0C
S2140839601B78282B0FD119A8A1491CAA02F03FFDE5
S214083970052808D11D9BDDF870A043F0FF4B4BF4DB
S214083980E00B00F031BCDFF880B24FF0000A00F020
S2140839902BBC049B19930026099600F025BCC1EBA6
S2140839A00C010398102DB4BFAC464FF0100CCDF8A0
S2140839B008C00691FFF7FCF9DDF808C0002C08BF20
S2140839C02C46BCF1090F82468B4615DD894B03EB66
S2140839D0CC0353E91223FFF761FA064640460F4622
S2140839E0FFF7E6F902460B4630463946FFF7A4F8D5
S2140839F0DDF808C082468B460F2D37DC069F002F61
S214083A0000F0F28323DD162F07DC7A49524601EBD5
S214083A10C701D1E900015B4614E0069EC5F12503FF
S214083A209E4223DC734CC5F10F0504EBC503751BDA
S214083A30D3E9000152465B4604EBC504FFF72EFAAD
S214083A40D4E90023FFF72AFA82468B46CCE3069F82
S214083A5016370BDBDDF818C0664F5046A7EBCC07C9
S214083A605946D7E90023FFF743FBEDE7069ECCEB64
S214083A700508B044B8F1000F61DD18F00F030AD04E
S214083A805C4A02EBC303D3E9000152465B46FFF7E4
S214083A9005FA82468B4638F00F0800F0C880B8F55D
S214083AA09A7F13DD4FF00008CDF80C80CDF81C8007
S214083AB0CDF81480079F2223C9F80030DFF844B1F8
S214083AC04FF0000A002F40F07B838DE34FEA28185A
S214083AD0504659460026B8F1010F0DDD18F0010FC3
S214083AE006D0454B03EBC603D3E90023FFF7D6F908
S214083AF001364FEA6808EEE73F4B8246A1F1547B51
S214083B0003EBC60652465B46D6E90001FFF7C6F940
S214083B1021F000438B461B0D38491B058B42824615
S214083B20C0D8A1F580118B4206D90026DFF8DCB094
S214083B304FF0FF3A04967CE00BF1547B77E076D0A2
S214083B40C8F1000818F00F030AD02A4A504602EBBC
S214083B50C3035946D3E90023FFF7CAFA82468B46C1
S214083B605FEA281863D0B8F11F0F08DD4FF0000889
S214083B70CDF80C80CDF81C80CDF814801EE118F026
S214083B80100F14BF6A26002604961D4E5046594646
S214083B90B8F1000F0ADD18F0010F03D0D6E90023AC
S214083BA0FFF77CF94FEA68080836F1E7049F824673
S214083BB08B469FB3C1F30A53C3F16B03002B2DDD6D
S214083BC01F2B25DD342B4FF0000A02DD4FF05C7BFF
S214083BD024E0203B4FF0FF3101FA03F303EA0B0B16
S214083BE01CE000BF908B0800938B0800998B080098
S214083BF0548B0800208D0800108E08000000A07C5A
S214083C00688B08000000F07F0000F8FFFFFFEF7FDA
S214083C104FF0FF3202FA03F303EA000A5046594609
S214083C200022002304F0A2FB00289FD101E0002711
S214083C300497039E48460096079922462B4603F0AB
S214083C402CF8079000283FF42DAF069F4FF0000889
S214083C507B42002FA8BF00230E93CDF80C80079E4A
S214083C604846716802F0B0FF059000283FF422AF7E
S214083C70326906F10C01023292000C30FFF7CEFBD7
S214083C801BAB00931CAB0193484652465B46CDE9F6
S214083C900AAB03F0B4FA1A9000283FF40BAF484674
S214083CA0012103F089F8039000283FF403AF1B9B1B
S214083CB0DDF818C0002B2CEAEC77C0F28B800E9C3F
S214083CC03A461C44049E1C9D9B1B59196FF47F732F
S214083CD09942C5F1360580F287805B1A1F2BC3EB25
S214083CE005054FF0010078DC9840002314900F93E8
S214083CF0049866191544A642B4BF334623460544BD
S214083D00AB42A8BF2B46002B02DDF61AED1AE41AC2
S214083D100E9900296FD1002E00F38780002F40F0FF
S214083D208E80002D00F39580002C00F39C8048467A
S214083D301A99059A03F090F9804600283FF4BAAE1F
S214083D40C6680023C3600399089603F068F900283C
S214083D5080F29880002E40F02082BAF1000F40F0E2
S214083D601C82CBF31303002B40F017822BF0004382
S214083D701B0D1B05B3F1D66F40F20F82D8F814302E
S214083D80002B7AD041460122484603F0F5F80399FD
S214083D90804603F044F9002840F3FF812BF00043E7
S214083DA0049F1B0D1B05002F00F09C80B3F1D66FF7
S214083DB000F29880B3F15C7F00F2F181079E22231F
S214083DC04FF0000A4FF0000BC9F80030002E40F004
S214083DD0F78109E2FA1A0E9C74E7844E1490761A54
S214083DE000FA06F60F9683E700264FF0010C0F96AA
S214083DF0CDF850C07CE7484603990E9A03F07DF844
S214083E00039000283FF456AE484603991A9A02F0E3
S214083E10DCFF034600283FF44DAE48461A99029345
S214083E2002F0F8FE029B1A9375E748461A9932463E
S214083E3003F0A2F81A9000287FF470AF3AE64846D6
S214083E4005993A4603F059F8059000287FF469AFBB
S214083E5030E6484605992A4603F08EF8059000286D
S214083E607FF462AF26E648460399224603F084F8B4
S214083E70039000287FF45BAF1CE6D8F81030012BBF
S214083E8080DC8AE163D1089FCBF313032FB358492C
S214083E905A468B422FD1049E51466EB1554B0BEABB
S214083EA00303B3F1D46F07D81B0DC3F16B034FF0B0
S214083EB0FF3000FA03F301E04FF0FF3399421AD1BE
S214083EC04D4B9A4202D101313FF4F4AD494B4FF0C5
S214083ED0000A134003F5801B5FE163B9BAF1000FCF
S214083EE009D15BE7A3F580136FEA135B6FEA0B5BF8
S214083EF04FF0FF3A51E10F9B13B113EA0B0F02E0A4
S214083F00149E16EA0A0F00F04881089F5046594644
S214083F10049A57B1FFF755FB02460B46DDE90A013E
S214083F20FEF70AFE82468B4637E1FFF74AFB024653
S214083F300B46DDE90A01FEF7FDFD00220023824656
S214083F408B4604F013FA00287FF438AF25E1404684
S214083F50039903F0A6F900224FF0804304460D4665
S214083F6004F018FA002832D0089E26B1234F0026FF
S214083F7034463D464CE0BAF1000F03D1CBF31303A9
S214083F803BB90BE0BAF1010F03D1BBF1000F3FF4C8
S214083F9015AF00261A4F0024184D39E0204629464A
S214083FA00022164B04F0ECF940B9204629460022B8
S214083FB0144BFEF773FF04460D4601E0114D00242E
S214083FC005F1004716941797DDE9166720E02046A6
S214083FD0294600220B4BFEF761FF089E04460D4655
S214083FE096B901F10047109011970FE0E3FBFFFF29
S214083FF0FFFF0F000000F07FFFFFEF7F0000F03F9D
S2140840000000F0BF0000E03FCDE91045DDE910678D
S2140840102BF0004C4FEA1C5C834B4FEA0C5C9C452B
S21408402031D1DDE90A01ABF1547BCDE90C015046EC
S2140840305946CDF808C003F06EF802460B463046DF
S2140840403946FEF72BFF02460B4650465946FEF702
S21408405073FD21F000431B0D744A1B0593428246EC
S214084060DDF808C00CD9724B0D99994203D10C9A09
S21408407001323FF41FADDFF8B8B14FF0FF3A7BE0EE
S21408408001F1547B42E0049B53B3BCF1D46F27D8AC
S2140840905DA3D3E9002320462946CDF808C004F0DE
S2140840A079F9DDF808C0B8B12946204604F090F939
S2140840B0002808BF0120FEF77BFE089E04460D4632
S2140840C0DDF808C026B901F100471290139701E001
S2140840D0CDE91245DDE9126707F1D663CCEB030795
S2140840E0DDE90A01CDF808C003F015F802460B46CC
S2140840F030463946FEF7D2FE02460B46DDE90A018F
S214084100FEF71AFDDDF808C082468B46049F002F8E
S21408411032D12BF000431B0D1B059C452CD129469C
S2140841202046FFF7CDF8FEF753FE02460B4620461C
S2140841302946FEF7FFFC089F04460D462FB9BAF13C
S214084140000F02D1CBF3130686B12046294630A3CA
S214084150D3E9002304F014F9002831D12046294673
S2140841602DA3D3E9002304F029F904E02CA3D3E90E
S214084170002304F005F918BB48461A9902F04AFDD0
S2140841804846059902F046FD4846039902F042FD66
S2140841904846414602F03EFD61E5049E86B1254F3D
S2140841A000200C900D9750465946DDE90C23FEF783
S2140841B075FE82468B4619B910B92223C9F8003015
S2140841C048461A9902F026FD4846059902F022FD4F
S2140841D04846039902F01EFD4846079902F01AFD64
S2140841E04846414602F016FD159E0EB1199B3360EF
S2140841F0099F1FB150460BF1004101E05046594651
S2140842001FB0BDE8F08F00BF0000C0FFFFFFDF4112
S2140842109535A094FFFFDF3F35E5AF350000E03F5A
S2140842209535A094FFFFCF3F0000E07FFFFF9F7CFF
S214084230FFFFEF7F000050390A4603490346086827
S2140842401946FFF7DDB900BF100007200A460A49DD
S21408425038B5034608681946FFF7D2F904460D46EE
S21408426003F0CCFA18B9BDE8384003F02BBB20465B
S214084270294604F0CDF838BD10000720AFF30080BB
S21408428093682DE9F04781460F4614461BB95360DC
S2140842901846BDE8F0874B6E9D041DD51568A368C3
S2140842A00835BBB155F8043C55F808AC4FEA9308F6
S2140842B00026464509DA48465AF826103A4601F0D6
S2140842C0B7FA431C0AD00136F3E7A368A3EB8803C2
S2140842D0A360E4E7184601E001F074FC0023A3603D
S2140842E06360BDE8F0872DE9F04FADB088460292CE
S2140842F01C461E46834618B1836B0BB901F0CEF9EF
S214084300B8F80C30980409D443F40053A8F80C30D5
S214084310D8F8643023F40053C8F86430B8F80C3082
S214084320190709D5D8F8103033B1B8F80C3003F0AF
S2140843301A030A2B14D108E05846414601F02AF819
S2140843400028F2D04FF0FF30D9E3B8F90E30002B32
S21408435006DB58464146029A234600F0E1FBCEE3C8
S21408436000231CAA0F921193109394460A93059360
S214084370029B1C4613F8012B1AB90298251A03D17A
S2140843801DE0252AF5D1F8E7119B02992B441193D5
S214084390109B8CE822000133072B109302DC0CF1EB
S2140843A0080C09E0584641460FAAFFF769FF00289F
S2140843B040F09F830DF1700C059A2A4405922378E5
S2140843C0002B00F08F83002201348DF837204FF041
S2140843D0FF3A04921746651C23780295582B64D03A
S2140843E02DDC2E2B76D012DC2A2B66D008DC202B70
S2140843F05FD0232B40F0008247F00107029CEAE7D3
S2140844002B2B01D11A46F9E72D2B60D0F4E1392B76
S21408441007DC312B7FDA302B40F0EE8147F080073F
S214084420ECE74F2B00F0E080552B00F02081442B62
S21408443040F0E2818DF8372047F0100794E06E2BA5
S21408444000F0B6800DDC682B76D005DC632B00F018
S2140844508380642B26D0CFE1692B23D06C2B6ED0BB
S214084460CAE1712B75D013DC6F2B00F0BF80702B60
S21408447040F0C2813023A0488DF83830782334685D
S214084480002547F002078DF8393004360A902EE1E9
S214084490752B00F0EE80782B00F00381732B40F02C
S2140844A0AB81BFE08DF837205EE08DF83720934C5F
S2140844B0FAE0002A08BF2022A0E7331D3668002E3F
S2140844C0049601DB1E4699E7754204951E4647F09A
S2140844D0040793E7029C2378611C2A2B02D04FF02E
S2140844E0000A0AE0D6F800A0331DBAF1000F1E46EF
S2140844F0029183DA4FF0FF3A80E7A3F130000928EB
S21408450005D80A2303FB0A0A11F8013BF5E74AEA2D
S214084510EA7A029162E700250495049C303B0A215A
S21408452001FB04340299049411F8013BA3F130000E
S2140845300928EED80291F0E747F040075EE7029DAB
S2140845402B786C2B02D10135029502E047F0100754
S21408455054E747F0200751E7336800258DF84830C0
S2140845608DF83750043651E1BA0607D5073626F0D7
S214084570070303F10806D3E900450DE017F0100F0E
S21408458006F1040301D0346804E0346817F0400FDD
S21408459018BF24B2E5171E46002C75F1000080F2FD
S2140845A0AF802D23644265EB45058DF83730A7E0CC
S2140845B017F0200F8DF8372006F1040107D0059C68
S2140845C03068E51722462B46C0E900230AE0FB06BA
S2140845D005D47F0603D53368059C1C8002E0336843
S2140845E0059D1D600E46C3E647F0100717F020032A
S2140845F008D0073626F0070303F10806D3E9004576
S214084600002375E017F0100106F1040206D117F032
S214084610400303D0348800251646F1E734680025A1
S214084620164665E0D6F8009000239A4506F104067B
S2140846308DF83730484611DB19465246CDF804C087
S21408464002F096FADDF804C0002800F0E480C9EB12
S21408465000005045B8BF82460025DDE0CDF804C00E
S214084660FEF76AFF00258246DDF804C0D4E047F06E
S2140846701007BD0607D5073626F0070303F1080618
S214084680D3E900450BE017F0100F06F1040303D139
S2140846907C0601D5348800E0346800251E460123D0
S2140846A026E0154C8DF83720B8060A9407D5073645
S2140846B026F0070202F10806D2E900450BE017F0DB
S2140846C0100F06F1040203D1790601D5348800E0FC
S2140846D0346800251646FA0709D554EA050006D0B8
S2140846E030228DF838208DF8393047F0020702233B
S2140846F000228DF8372004E0CD8B0800BC8B08001C
S2140847000123BAF1000FA8BF27F0800754EA050175
S21408471002D1BAF1000F5ED0012B1FD0022B0DF18B
S2140847206F0345D0E00840EA4571E80804F0070240
S214084730069107903032DDE9064554EA05019946A8
S2140847401A7003F1FF33EDD1F80749464ED5302AE3
S2140847504CD09946302301F8013C47E0002D08BFAD
S2140847600A2C05D230348DF86F400DF16F093DE004
S2140847700DF16F020392204629460A220023CDF83F
S21408478004C003F095FE039B303203F80129204647
S2140847902946DDF80C900A220393002303F088FECE
S2140847A004460D4654EA0500DDF804C0E3D11DE0D2
S2140847B00A9904F00F028A5C994603F8012922092F
S2140847C042EA0570290908900991DDE9084554EA86
S2140847D00502EDD10AE03BB9F90705D50DF1B00998
S2140847E0302309F8413D01E00DF1700955460DF1F9
S2140847F0700AC9EB0A0A0FE08DF83720002B00F084
S214084800718100258DF848308DF837504FF0010A31
S2140848100DF1480900E005469DF83730AA45ACBFBB
S21408482054462C4603B1013417F00203039318BF0D
S214084830023417F084030B933BD10498031B002B18
S21408484037DDA64A102BCCF800201BDD1022CCF84A
S2140848500420119A10321192109A0132072A1092E7
S21408486002DC0CF1080C0BE0584641460FAA0193EF
S214084870FFF706FD019B002840F03B810DF1700C08
S214084880103BDEE7119ACCF8043013441193109BC2
S2140848900133072B109302DC0CF1080C09E058468C
S2140848A041460FAAFFF7ECFC002840F022810DF1E4
S2140848B0700C9DF83730DBB10DF13703CCF80030BB
S2140848C00123CCF80430119B01331193109B01335C
S2140848D0072B109302DC0CF1080C09E058464146F9
S2140848E00FAAFFF7CDFC002840F003810DF1700CED
S2140848F0039BD3B10EABCCF800300223CCF80430BF
S214084900119B02331193109B0133072B109302DC83
S2140849100CF1080C09E0584641460FAAFFF7B0FC10
S214084920002840F0E6800DF1700C0B9B802B3FD1E1
S214084930049B1B1B002B03933ADD039B102B684B31
S214084940CCF800301BDD1023CCF80430119B103354
S2140849501193109B0133072B109302DC0CF1080C03
S21408496009E0584641460FAAFFF78AFC002840F09F
S214084970C0800DF1700C039B103B0393DDE7039B8F
S2140849800398CCF80430119B03441193109B013311
S214084990072B109302DC0CF1080C09E05846414638
S2140849A00FAAFFF76DFC002840F0A3800DF1700CED
S2140849B0CAEB0505002D34DD494B102DCCF8003028
S2140849C019DD1023CCF80430119B10331193109B7B
S2140849D00133072B109302DC0CF1080C09E058464B
S2140849E041460FAAFFF74CFC002840F082800DF1E4
S2140849F0700C103DE0E7119BCCF804501D44109B4A
S214084A0011950133072B109302DC0CF1080C08E013
S214084A10584641460FAAFFF733FC002869D10DF126
S214084A20700C119B8CE8000653441193109B0133BD
S214084A30072B109302DC0CF1080307E058464146A2
S214084A400FAAFFF71DFC002853D11CAB7A070AD41F
S214084A50059D0498119B8442ACBF2D192D18059509
S214084A60002B35D02EE004990D1B002DF0DD1B4AD7
S214084A70102D1A6015DD10225A60119A1032119204
S214084A80109A0132072A109201DC083307E05846CC
S214084A9041460FAAFFF7F4FB00282AD11CAB103DAD
S214084AA0E5E75D60119B1D44109B11950133072BAC
S214084AB01093CDDD584641460FAAFFF7E1FB0028C4
S214084AC0C6D016E0584641460FAAFFF7D9FB80B96C
S214084AD0002310930DF1700C4AE400BF9C8B08006D
S214084AE0AC8B0800119B23B1584641460FAAFFF726
S214084AF0C7FBB8F80C305B063FF524AC05982DB01C
S214084B00BDE8F08F30B51346044A05460C461068D3
S214084B1029462246BDE83040FFF7E5BB10000720CF
S214084B2070B50C468989ADF58D6D21F00201ADF89A
S214084B300C10616E06461991E189ADF80E10E16910
S214084B400791616A09911AA9009104914FF480614E
S214084B5002910591002106916946FFF7C4FB051EE0
S214084B6007DB3046694600F050FD002818BF4FF0B6
S214084B70FF35BDF80C305B0603D5A38943F0400328
S214084B80A38128460DF58D6D70BD00BF2DE9F04F49
S214084B901D468B89D7B09E0481460C46069206D4DD
S214084BA043F400538B814B6E23F400534B66002668
S214084BB00596B04637460496069E16F8013B0696B6
S214084BC00993002B00F0A6839D4E3168CA185278C8
S214084BD002F0080202F0FF0BBAB16368002B0DDD85
S214084BE02368326819780A4452781007E4D5626850
S214084BF00133013A013762602360EEE748462146F2
S214084C0002F07FFD0028EBD0D6E7252B50D1069A78
S214084C105E46069813780130632B069000F0908065
S214084C2022D8392B09D8302B6ED2252B40D02A2BE8
S214084C3057D0002B40F0A88069E34F2B6ED004D8DD
S214084C40442B66D04C2B59D09EE0582B70D05B2B4B
S214084C5040F09A8016A8069902F002FE4BF0400B28
S214084C6006904FF0010AA5E06E2B71D00CD8682B81
S214084C7047D003D8642B00F08F8085E0692B00F0BE
S214084C808E806C2B31D07FE0732B56D008D86F2BD4
S214084C900BD0702B78D16B484BF4087B059054E00A
S214084CA0752B42D0782B43D06EE0664A059239E0E1
S214084CB06368002B0EDD2368069E197816F8012C0B
S214084CC0914240F0278362680133013A62602360AC
S214084CD0013771E74846214602F013FD0028EAD05E
S214084CE010E34BF0100B069A93E753786C2B02D11F
S214084CF00232069202E04BF0010BF4E74BF0020B8F
S214084D00F1E74BF0040BEEE70A2202FB0636303ECC
S214084D10E9E74D484BF0010B059047E049494BF051
S214084D20010B05914FF0080842E0464A05923DE01F
S214084D30444B4BF4007B059307E04FF0020A39E03A
S214084D404BF0400B4FF0000A34E04FF010082FE00D
S214084D501BF0100F7FF430AF1BF0040F05F10401B1
S214084D6002D02B681F8004E01BF0010F03D02B68CD
S214084D701F600D4620E71BF0020FF8D028683A4659
S214084D80FB17C0E90023F4E70B445B7803F0030342
S214084D90012B09D14BF0010B2B49059106E02A4A55
S214084DA04FF00008059203E0274B05934FF00A08DA
S214084DB04FF0030A6368002B03DD1BF0400F0FD08B
S214084DC01EE04846214602F09CFC0028F5D099E2F1
S214084DD062680137013A002A62600ADD01332360FF
S214084DE0236817491A7809680A4452781107EFD4D5
S214084DF006E04846214602F084FC0028F0D081E20E
S214084E00BAF1020F00F0F380BAF1030F00F0B08198
S214084E10BAF1010F0BF0100A00F09680002E08BFBA
S214084E2001261BF0010B61D00AA800210822FEF714
S214084E30FEFABAF1000F09D1D5F800B0043507E03C
S214084E40400407200D7C08006D7908004FF0000B21
S214084E500023039301F08EFB039B834200F05282EB
S214084E6021680CAA11F8010B03F1010CD0546368F1
S214084E704846013B84E80A000AAB00935946634655
S214084E80CDF80CC001F010FE421CDDF80CC000F096
S214084E90398228B9BAF1000F04D1CBF800A001E096
S214084EA002300AD06744013EBAF1000F03D10BF175
S214084EB0040BD44601E04FF0000C6368002B11DCAD
S214084EC048462146CDF80CC002F01BFCDDF80CC0A5
S214084ED040B1BCF1000F40F01582BAF1000F00F0A7
S214084EE0FA8069E6002EF8D06346B2E7BAF1000FFA
S214084EF018D063682268B3420DDA9B44F61A134446
S214084F0023604846214602F0FCFB0028F1D0BBF19E
S214084F10000F05D1F6E19B1BB34416446360266078
S214084F205F4449E60094484629680122334605F15D
S214084F30040A00F0E9FC002800F0E481049E074417
S214084F4001360496554637E6002E08BF4FF0FF3662
S214084F50BAF1000F1ED04FF0000A236816A91A7877
S214084F608A5C92B162680AF1010A013A0133564531
S214084F706260236000F0C481002AEEDC48462146C1
S214084F8002F0BFFB0028E8D0BAE1BAF1000F40F003
S214084F90B781BFE1D5F800A005F1040B5546236894
S214084FA016A91A788A5CBAB16268013A62605A1C15
S214084FB022601B7805F8013B0AEB06039D420BD0DE
S214084FC06368002BEBDC4846214602F09AFB002873
S214084FD0E5D0554500F09681B5EB0A0A00F09A81AF
S214084FE0049E002301362B7004965D4688E1002E49
S214084FF008BF4FF0FF360BF010001BF0010A0790B1
S2140850006CD000210AA80822FEF711FA079919B9E8
S214085010D5F800A0043501E00DF1240A0023226823
S214085020A449127809680A44527810074DD4002E0D
S2140850304BD0039301F09EFA039B834200F06281F3
S21408504021680CAA11F8010B03F1010BD054636810
S2140850504846013B84E80A000AAB009351465B4683
S21408506001F022FD431C00F04D8110B9CAF800007B
S21408507001E002301AD0DAF8000001F049FA60B10F
S214085080BBF1000F21D00BF1FF3B0CAB484613F8E1
S2140850900B10224602F01DFFF2E7079A5F44013E16
S2140850A01AB90AF1040A934600E083466368002B9F
S2140850B009DC4846214602F024FB20B1BBF1000F6C
S2140850C040F0208101E05B46A9E7079E002E7FF4AA
S2140850D073ADCAF80060049E01366CE50798D8B12F
S2140850E0236874491A7809680A445278110700F147
S2140850F0078162680AF1010A013A0133564562607F
S214085100236000F0FD80002AEADC4846214602F0CB
S214085110F8FA0028E4D0F3E0D5F800A005F1040B6F
S2140851205546236863491A7809680A44527812076C
S21408513014D46268013A62605A1C22601B7805F82B
S214085140013B0AEB06039D4208D06368002BE8DCA7
S2140851504846214602F0D5FA0028E2D0049E0023ED
S2140851602B700136CAEB05052F4404965D4623E5E9
S214085170731E262B4FF000008ABFA6F127030023D4
S21408518027264BF4586B07900DF1300A21680A78E9
S214085190392A09D8382A33D2302A14D02CD82B2AC0
S2140851A03AD02D2A38D05DE0582A3BD004D8A2F150
S2140851B0410005282AD955E0612A53D3662A25D9FD
S2140851C0782A2FD04EE01BF4006F36D0B8F1000FC7
S2140851D003D14BF4007B4FF008081BF4806F02D015
S2140851E02BF4B06B29E02BF4607B0BB1013B013646
S2140851F0079A0132079224E02F4830F9188008E011
S2140852002D4830F91880B8F1080F01E0B8F10A0FF8
S21408521028DD2BF4386B10E01BF0800F22D02BF023
S214085220800B0AE00BF4C060B0F5007F1AD12BF4AF
S214085230007B4BF4A06B4FF010088AF800200AF1A8
S214085240010A6268013A002A626002DD01312160C3
S21408525006E048462146039302F053FA039B08B932
S214085260013E93D11BF4807F0ED00CAB9A4508D92B
S2140852701AF8011C4846224602F02BFE0AF1FF36B1
S214085280B2460CAB9A4545D01BF0100233D14346C4
S21408529048460CA9059E8AF80020B0471BF0200F48
S2140852A005F1040321D11BF0040F07D02A681080EB
S2140852B01DE000BF40040720DE8B08001BF001023B
S2140852C013D11BF0020F10D0144B059E48469E4281
S2140852D00CA9434602D102F01FFD01E002F0D6FBFE
S2140852E02B680435C3E9000102E02A6810601D46F1
S2140852F0049E013604960CAB079EC3EB0A0AB2441A
S214085300574459E4049E16B1A3895B0602D54FF0AC
S214085310FF3000E0049857B0BDE8F08F0D7C080019
S2140853200A4B2DE9F0411C6880460F46164624B104
S214085330A56B15B9204600F0B1F9204641463A4615
S2140853403346BDE8F041FFF721BC00BF1000072038
S21408535030B51346044A05460C46106829462246C8
S214085360BDE83040FFF712BC100007202DE9F041D9
S214085370884617461E46044618B1856B0DB900F0D8
S2140853808DF9204641463A463346BDE8F041FFF7D8
S214085390FDBB00BF38B52B4B054618680C4618B140
S2140853A0836B0BB900F07AF9A28993B2180720D458
S2140853B0D90605D4092342F040022B60A2813BE0BF
S2140853C0580712D5216B41B104F14003994202D027
S2140853D0284600F03FFB00232363A38923F0240319
S2140853E0A3810023636023692360A38943F008032D
S2140853F0A38123694BB9A38903F42073B3F5007F0F
S21408540003D02846214601F0D3F8A38913F00102F9
S21408541005D00022A26062695242A26103E09907A1
S21408542058BF6269A26022694AB903F0800080B258
S21408543030B143F04003A3814FF0FF3038BD002061
S21408544038BD00BF100007202DE9F8439846224BC8
S21408545006461C680F46D4F84801914618B904F564
S214085460A670C4F8480143681F2B16DD1B4B1BB9F2
S2140854704FF0FF30BDE8F8834FF4C87001F0FCF831
S2140854800028F5D0D4F84811002545600160C4F816
S2140854904801C0F88851C0F88C514468A6B101226A
S2140854A0A24000EB8405C5F88890D0F88811022E33
S2140854B041EA0201C0F88811C5F8088104D1D0F87D
S2140854C08C311A43C0F88C21631C0234436040F8C0
S2140854D024700020BDE8F883348B0800796608003D
S2140854E0024B13B10248FDF713BF704700000000D7
S2140854F0253308008A892DE9F04193B20546180736
S2140855000C465ED44B6842F40062002B8A8102DCAB
S214085510CB6B002B18DDA66AB6B102F480520023C6
S21408552092B22F682B600AB1226D10E0E169284616
S2140855300123B047411C024609D12B683BB11D2BFD
S21408554001D0162B4AD12F600020BDE8F081A38930
S2140855505B0705D56368D21A236B0BB1E36BD21AC7
S214085560A66A2846E1690023B047461CA28905D1E9
S2140855702B681BB11D2B01D0162B1DD1002322F43E
S214085580006292B263602369D104A281236004D5C5
S214085590421C01D12B6803B92065216B2F600029B6
S2140855A0D2D004F14003994202D0284600F052FABD
S2140855B000202063BDE8F08142F04002A281BDE8E9
S2140855C0F0810E69002EBFD09B070A680CBF4B6996
S2140855D00023C6EB02080E608B6012E0A3894FF02A
S2140855E0FF3043F04003A381BDE8F081676A284690
S2140855F0E16932464346B8470028EFDD0644C0EB6B
S2140856000808B8F1000FF1DC9EE738B50C460546E9
S21408561018B1836B0BB900F041F8B4F90C0028B147
S21408562028462146BDE83840FFF764BF38BD014626
S21408563020B9044B0449186800F02CBC034B1868C2
S214085640FFF7E3BF348B08000B560800100007204E
S2140856500020704700207047014900F0FFBB00BFDC
S2140856602582080070B54B1E68255D430E4605F179
S214085670740101F011F8044640B1002180E84200A8
S2140856800C30A06005F16802FDF7D1FE204670BD1B
S214085690014B1868FFF7E0BF348B08002DE9F84F78
S2140856A0846B0646002C62D1324B4568C3630323DD
S2140856B0C0F8E43200F53B73C0F8E832DFF8BCA067
S2140856C00423DFF8BC90DFF8BC802B4FC0F8E0421C
S2140856D02146AB812C606C60AC606C66EC812C61FA
S2140856E06C61AC6105F15C000822FDF7A0FEED6177
S2140856F0C5F820A0C5F82490C5F82880EF62B568DC
S21408570009234FF0010BAB812C606C60AC606C66B3
S214085710A5F80EB02C616C61AC6105F15C00214601
S2140857200822FDF784FEED61C5F820A0C5F8249090
S214085730C5F82880EF62F5681223AB8102232C6037
S2140857406C60AC606C66EB812C616C61AC6105F1D9
S2140857505C0021460822FDF76AFEED61C5F820A028
S214085760C5F82490C5F82880EF62C6F838B0BDE8BA
S214085770F88F00BF595608004F790800CD78080002
S214085780F37808002B790800F8B51C4B07461E6806
S214085790B36B13B93046FFF781FF06F53876B46861
S2140857A07368013B04D4B4F90C5075B16834F8E753
S2140857B033682BB938460421FFF754FF306008B128
S2140857C03668ECE70C233B60F8BD4FF6FF73E381C1
S2140857D00123A38165662560A5606560256165610E
S2140857E0A56104F15C0029460822FDF720FE256322
S2140857F065636564A5642046F8BD00BF348B080061
S2140858007047704770477047024B0349186800F0A6
S21408581025BB00BF1000072051560800024B03495D
S214085820186800F01BBB00BF10000720555608007C
S21408583093892DE9F3410E4699048046144606D40A
S21408584043F400539381536E43F40053536600F0B9
S21408585091FE012806D1731EFE2B03D88DF804602E
S21408586007460EE03246404601A904F15C0302F002
S214085870F3FB421C074604D1A38943F04003A381E7
S2140858802BE00025BD4224D0A26801AB013A002ACD
S214085890A26016DAA1698A4208DB5B5D226813708B
S2140858A0236819780A2910D1404601E0595D404618
S2140858B0224602F07FFBB0F1FF335842584130B120
