S01D0000457850726F6A656B7450696E6769735669634D69632E73726563C6
S21408000028CC072001310800FD300800FD30080024
S214080010FD300800FD300800FD3008000000000034
S214080020000000000000000000000000B50A0800FC
S214080030FD30080000000000450B0800810B080092
S214080040FD300800FD300800FD300800FD300800CF
S214080050FD300800FD300800FD300800FD300800BF
S214080060FD300800FD30080000000000C92E08001A
S214080070E52E0800012F08001D2F080000000000CC
S21408008000000000FD300800FD300800FD300800C4
S214080090FD300800FD300800FD300800FD3008007F
S2140800A0FD30080000000000FD300800FD300800A4
S2140800B0FD300800FD300800FD300800FD3008005F
S2140800C0FD300800FD300800FD300800FD3008004F
S2140800D0FD300800FD300800FD300800FD3008003F
S2140800E0FD300800FD300800FD300800FD3008002F
S2140800F0FD30080008B50548054B191A062900D82A
S21408010008BD044A002AFBD09047F9E7546908005E
S214080110576908000000000008B50748074B191A79
S2140801208A1002EBD273591000D108BD044A002A7F
S214080130FBD09047F9E700BF5469080054690800E7
S2140801400000000010B5064C237843B9FFF7D2FF2D
S214080150044810B10448AFF300800121217010BD97
S214080160D0080720000000005469080008B5084BAE
S2140801701BB108480849AFF300800848016811B168
S214080180074A02B19047BDE80840FFF7C5BF00BF61
S2140801900000000054690800D408072054690800C5
S2140801A00000000038B54FF0250043F27903C0F28E
S2140801B0080398474FF00004C4F20C0420464FF496
S2140801C0F441C0F6032144F24022C0F20F024FF079
S2140801D0080340F2D925C0F20805A84720464FF084
S2140801E000014FF440124FF0010340F23935C0F2D7
S2140801F00805A84720464FF0100140F21932C0F211
S2140802000802904720464FF00A0140F26133C0F2D8
S2140802100803984720464FF000010A4640F2293363
S214080220C0F20803984738BD10B54FF00004C4F272
S2140802300C04204640F25933C0F20803984720467B
S2140802404FF00A0140F26D32C0F20802904710BD26
S2140802502DE9F8430C46904648BB002A2BDD8F183C
S2140802604AF61C46C2F207064AF6EC35C2F20705FD
S2140802706FEA010907EB090000F0010930682B68EE
S214080280984704F10104BC4219D10DE030682B6888
S2140802902146984704F10104214630682A689047A9
S2140802A004F10104BC42F1D14046BDE8F8834FF0A2
S2140802B0FF30BDE8F8834FF00000BDE8F883B9F1D9
S2140802C0000FE3D030682A682146904704F10104FD
S2140802D0BC42DBD1E8E700BF30B44FF0010404604D
S2140802E04FF00004446040F20225C0F82051C0F8E0
S2140802F00441C0F8144145682B434FEA4202B1FB5B
S214080300F2F101F1FF324FEA026143EA114343601A
S214080310204630BC704700BF436823F01002426096
S2140803204368194341607047436819434FEAC2124D
S214080330D3B219434160704710B4446822434FEA69
S214080340016101F0706422434FEA037303F04051E1
S2140803500A43426010BC70474FF0020303607047C0
S2140803604FF0010303FA01F1016170470F2904D821
S21408037001F1140150F8210070474FF00000704753
S21408038030B585B04FF46064C4F20E0420464FF0D2
S21408039000614FF440724FF0000342F60D35C0F28C
S2140803A00805A8474FF0080043F27903C0F208038F
S2140803B098474FF43D40C0F2015001904FF4E131A8
S2140803C002914FF4006203924FF48073636663658C
S2140803D06362C4F88030206F20F4807121674FF480
S2140803E00060C4F20E0001A942F66102C0F20802DB
S2140803F0904705B030BD00BF00B583B04FF400602D
S214080400C4F20E000DF1070142F6BD03C0F2080360
S21408041098479DF8070003B000BD00BF4FF400637F
S214080420C4F20E03586900F00100704738B54AF662
S214080430F031C2F207014FF003050D604FF00B03D1
S2140804404B604FF00000C8604FF064020A614FF43A
S2140804508044C4F20904204642F2FD63C0F2080351
S21408046098474FF49050C4F20E004FF080514FF466
S214080470807242F63D23C0F2080398472046294674
S21408048042F64902C0F20802904738BD10B584B05B
S2140804904FF0240043F27903C0F2080398474FF45C
S2140804A08044C4F2090420464FF0030142F6550280
S2140804B0C0F20802904744F24020C0F20F000190B4
S2140804C04FF0000102914FF43D43C0F201530393ED
S2140804D0204601A942F2B162C0F20802904740F2F3
S2140804E02D40C0F20800804704B010BD08B502468B
S2140804F064280CD84FF48040C4F209004AF6F0315C
S214080500C2F2070142F62503C0F20803984708BD61
S2140805102DE9F04786B0CDE9000114461D4643F69E
S2140805202136C0F208061298B047CDE9020143F614
S214080530ED38C0F2080822462B46C047CDE904012C
S2140805401498B04707460C4643F6416AC0F2080AB4
S214080550DDE90001DDE90E23D04702460B463846A2
S2140805602146C04702460B4643F68909C0F20809E9
S214080570DDE90401C84704460D461398B04702460D
S2140805800B46DDE9020143F68506C0F20806B047C9
S21408059006460F46DDE91001DDE90023D04702468E
S2140805A00B4630463946C04702460B462046294683
S2140805B0C84744F21103C0F20803984706B0BDE8DE
S2140805C0F08700BFA0F11400142856D8DFE800F022
S2140805D00B555555551A555555552955555555388C
S2140805E055555555470040F6EC03C2F2070340F24E
S2140805F0D1121A6040F6F400C2F207004FF0550117
S2140806000160704740F6EC03C2F2070340F2A912F5
S2140806101A6040F6F400C2F207004FF04D01016080
S214080620704740F6EC03C2F2070340F29F121A60C6
S21408063040F6F400C2F207004FF04601016070472A
S21408064040F6EC03C2F207034FF4C8721A6040F68D
S214080650F400C2F207004FF03E010160704740F612
S214080660EC03C2F207034FF4C3721A6040F6F400B4
S214080670C2F207004FF03701016070470000000023
S2140806802DE9F0478AB041F2FD73C0F20803984797
S214080690099041F69D37C0F2080740F65816C2F290
S2140806A0070671A5D5E9004509A84FF03201B847F5
S2140806B03078D0B94FF0000040F60011C2F20701BA
S2140806C0086040F6F802C2F20702106040F6F0032F
S2140806D0C2F20703186040F6FC01C2F20701086080
S2140806E040F2ED42C0F20802904730780128DBD18C
S2140806F040F60013C2F20703196831BB40F21D42E8
S214080700C0F208029047E8B140F2F930C0F208009B
S2140807108047012805D140F2F933C0F2080398470C
S21408072080B140F2F931C0F20801884740F2C5525C
S214080730C0F20802904740F60010C2F207004FF0D9
S2140807400103036031780129AED140F60012C2F2E7
S214080750070210680128A7D140F22923C0F208032F
S2140807609847814640F6EC01C2F207010A68131A58
S21408077040F6F800C2F207000360002B11DA40F6D4
S214080780F403C2F20703186840F60411C2F2070120
S214080790086040F6FC03C2F207034FF064021A60D2
S2140807A03AE04FF000004FF00001C4F20401CDE932
S2140807B000014FF000004FF00001C3F6D871CDE9F4
S2140807C00201049340F6F001C2F207010A68059296
S2140807D040F6FC03C2F2070318680690204629462E
S2140807E023A3D3E9002340F2115CC0F2080CE047CB
S2140807F0002808DA0028B8BF404240F60412C2F2C1
S2140808000702106008E0642840F60411C2F20701E7
S214080810D2BF086064220A6040F6F808C2F20708E9
S214080820D8F8000040F6F001C2F20701086040F66A
S214080830FC03C2F207031A688018186040F6041A08
S214080840C2F2070ADAF8000040F2ED41C0F20801E9
S2140808508847DAF800004946D8F8002040F60D1315
S214080860C0F2080398471FE79A9999999999B93F4A
S214080870333333333333D33F40F65C13C2F20703C4
S21408088003F14C015A6843F8042B53F8040F43F855
S214080890040C5A6843F8042B8B42F6D1704700BF05
S2140808A008B540F65C13C2F20703186810B340F6A2
S2140808B05C11C2F207010A6D9AB94FF0010040F6C2
S2140808C05C13C2F2070353F8041FB1B908BD53F806
S2140808D0042F8AB100F10102104653F8041F79B9B3
S2140808E008BD40F67900C0F2080080474FF01400B3
S2140808F008BD08BD4FF0000008BD00F10100E6E79E
S21408090002F101001428E2D1F3E700BF38B50D461E
S214080910144640F6AC13C2F20703186040F6A1006E
S214080920C0F20800804740F65C11C2F2070141F8A1
S214080930205040F60812C2F20702146038BD00BF05
S2140809402DE9F04383B041F2FD73C0F208039847DF
S214080950019041F69D36C0F2080640F21D45C0F2E9
S214080960080540F2F937C0F2080740F65814C2F2F4
S214080970070401A84FF0FA01B047A84730B1B847B6
S214080980012801D0B84708B9B84720702078012850
S214080990EFD146F61809C0F20809484640F6AC11E9
S2140809A0C2F20701096844F27518C0F20808C04781
S2140809B0484640F65C12C2F207021168C04748462D
S2140809C040F60813C2F207031968C04740F67900D4
S2140809D0C0F208008047CCE700F1080343604FF0F8
S2140809E0FF328260C36003614FF000010160704708
S2140809F04FF000030361704743685A684A604268CC
S214080A008A605A689160596041600861016801F11E
S214080A1001010160704700BF10B40C68B4F1FF3FD5
S214080A2001D103690AE000F10803C268126894421B
S214080A3004D35B685A6812689442FAD25A684A60C5
S214080A4091608B6059600861016801F101010160DD
S214080A5010BC7047436882689A60816843684B6038
S214080A6001694A68824204BF82684A604FF0000300
S214080A700361086800F1FF320A600868704700BF23
S214080A8003480068006880F3088862B600DF00BF85
S214080A9008ED00E04FF0807340F8043C40F8081C6E
S214080AA04FF0000140F80C1C40F8202CA0F1400044
S214080AB0704700BF064B19680868B0E8F00F80F367
S214080AC009884FF0000080F311884EF00D0E70472D
S214080AD0C4AA07204EF60453CEF200034FF0805205
S214080AE01A607047EFF311804FF0A00181F3118868
S214080AF070474FF0000000BF08B540F6E523C0F287
S214080B000803984740F20000C2F20700026802F1A4
S214080B100102026008BD00BF80F31188704700BF5D
S214080B2008B540F20002C2F20702136803F1FF306C
S214080B30106030B94FF0000040F61931C0F20801D5
S214080B40884708BDEFF309800C4B1A6820E9F00FB8
S214080B5010602DE908404FF0A00080F3118801F0DE
S214080B6077F84FF0000080F31188BDE80840196850
S214080B700868B0E8F00F80F309887047C4AA072011
S214080B8008B54EF60453CEF200034FF080521A60B2
S214080B9040F6E520C0F20800804741F62101C0F281
S214080BA0080188474FF0000040F61933C0F20803E2
S214080BB0984708BD4EF21403CEF2000344F61F020F
S214080BC0C0F201021A604EF21000CEF200004FF09A
S214080BD007010160704700BF10B54EF62053CEF2ED
S214080BE000031A6842F470001860196841F07044EF
S214080BF01C6040F6B533C0F2080398474FF000046F
S214080C0040F20002C2F20702146040F68120C0F2E9
S214080C1008008047204610BD30B44AF60422C2F2C7
S214080C20070200E01A4613688342FBD3114654684D
S214080C301519854203D1686804195460104642683D
S214080C408418A3420FD14AF60024C2F20704246887
S214080C509C4206D05B689A1842600B681A68026065
S214080C6002E0036000E00360814218BF086030BC01
S214080C70704700BF38B5044641F2E973C0F208036E
S214080C8098474AF60020C2F20700016821BB4AF6D8
S214080C900422C2F2070240F60023C2F207031360DA
S214080CA04FF00001516003F51F4202F1F0004AF6CA
S214080CB00025C2F207052860C2F8F410C2F8F01042
S214080CC049F6F0715960186040F20403C2F207034F
S214080CD01A68A2F110021A60002C3CD004F1100227
S214080CE012F0070F1CBF22F00702083202F1FF308D
S214080CF049F6FE75A84231D84AF60421C2F2070121
S214080D000C6801E02146044663689A4202D92068C6
S214080D100028F7D14AF60025C2F207052B689C4240
S214080D201FD00D6805F110052068086061688B1AE9
S214080D30202B07D9A0184360626040F61942C0F21B
S214080D400802904740F20400C2F207000368616890
S214080D505A1A026007E04FF0000504E04FF000055D
S214080D6001E04FF0000541F6B110C0F208008047D8
S214080D70284638BD10B50446C8B141F2E973C0F23A
S214080D800803984740F20400C2F20700016854F8C6
S214080D900C2C8B180360A4F1100040F61941C0F221
S214080DA00801884741F6B110C0F20800804710BD18
S214080DB0F8B5044640F6F923C0F208039847A06C35
S214080DC000281ADD616A19B917E0616A51B914E09A
S214080DD004F1240641F6D955C0F2080541F65D77B8
S214080DE0C0F208073046A84700B1B847A26C02F11F
S214080DF0FF33A364A06C0028E7DC4FF0FF32A26440
S214080E0040F62133C0F20803984740F6F920C0F2AE
S214080E1008008047616C00291ADD22691AB917E0B4
S214080E20226952B914E004F1100641F6D955C0F209
S214080E30080541F65D77C0F208073046A84700B1B6
S214080E40B847636C03F1FF306064616C0029E7DC27
S214080E504FF0FF33636440F62130C0F20800804745
S214080E60F8BD00BF38B50346056875B1026CC4689E
S214080E70A418C4604068844228BFDD600846D96864
S214080E8044F2B513C0F20803984738BD10B50446B7
S214080E90036C63B9016800292ED1406842F2490301
S214080EA0C0F2080398474FF00000606024E082B95B
S214080EB080681A4644F2B513C0F208039847A26839
S214080EC0216C5018A0606368984215D32268A26007
S214080ED012E0C0681A4644F2B513C0F208039847F1
S214080EE0226CC2F10000E1680B18E36022689342A6
S214080EF002D261680818E060A26B02F10102A263E0
S214080F0010BD00BF38B50D46044630B940F6E52496
S214080F10C0F20804A04700BFFDE740F6F923C0F278
S214080F20080398472368E06B226C00FB0231616077
S214080F304FF00001A163A36000F1FF3002FB00330D
S214080F40E3604FF0FF326264A26485B92169C1B1DB
S214080F5004F1100041F6D953C0F208039847012857
S214080F600FD140F6D520C0F20800804709E004F10A
S214080F70100040F6D915C0F20805A84704F1240069
S214080F80A84740F62132C0F2080290474FF0010009
S214080F9038BD00BFF8B50D4617460646E0B14FF017
S214080FA0500040F67543C0F208039847044698B1C7
S214080FB006FB05F000F1010040F67541C0F2080195
S214080FC08847206070B9204640F67552C0F208027D
S214080FD0904701E000BFFDE740F6E520C0F20800B4
S214080FE08047F7E7E663256420464FF0010140F6A0
S214080FF00573C0F20803984784F84D702046F8BD7C
S2140810002DE9F04F85B08A4601920093044630B920
S21408101040F6E524C0F20804A04700BFFDE741B942
S214081020036C4BB140F6E520C0F20800804700BFCD
S214081030FDE74FF0000701E04FF0000740F6F926FD
S214081040C0F2080641F6816BC0F2080B40F621355F
S214081050C0F20805B047A26BE16B8A421FD2204651
S2140810605146009A40F68D63C0F208039847616AB5
S21408107069B104F1240041F6D952C0F2080290473B
S214081080012804D140F6D520C0F20800804740F673
S2140810902133C0F2080398474FF0010066E0019B31
S2140810A03BB940F62132C0F2080290474FF00000E4
S2140810B05CE01FB902A8D8474FF00107A84741F2DD
S2140810C0E970C0F208008047B047626CB2F1FF3F93
S2140810D004BF00226264A16CB1F1FF3F04BF002187
S2140810E0A164A84702A801A941F6B163C0F20803A3
S2140810F0984770BBB047D4F83890D4F83C80A847D7
S214081100C1451AD104F11000019941F61152C0F2F6
S21408111008029047204640F6B151C0F208018847B9
S21408112041F6B110C0F208008047002892D140F678
S214081130D523C0F2080398478CE7204640F6B151FD
S214081140C0F20801884741F6B113C0F20803984771
S21408115080E7204640F6B152C0F20802904741F6B2
S214081160B110C0F2080080474FF0000005B0BDE897
S214081170F08F00BF2DE9F0410E4615469846044606
S21408118030B940F6E525C0F20805A84700BFFDE7D8
S21408119041B9036C33B140F6E520C0F20800804739
S2140811A000BFFDE740F6E521C0F20801884707467C
S2140811B0A26BE36B9A4221D220463146424640F65D
S2140811C08D63C0F208039847A06CB0F1FF3F0ED1BC
S2140811D0626AB2B104F1240041F6D954C0F2080498
S2140811E0A04788B19DB14FF001042C6011E0A16CB6
S2140811F001F10101A1644FF001040AE04FF0000478
S21408120007E04FF0010404E04FF0010401E04FF05E
S2140812100104384640F61933C0F2080398472046BA
S214081220BDE8F0812DE9F04F85B0894601929A46CF
S214081230044630B940F6E524C0F20804A04700BFCB
S214081240FDE741B9036C4BB140F6E520C0F2080053
S214081250804700BFFDE74FF0000701E04FF00007AA
S21408126040F6F926C0F2080641F6816BC0F2080B74
S21408127040F62135C0F20805B047A16B00293FD0DB
S214081280E5682046494640F66563C0F20803984775
S214081290BAF1000F1CD1A36B03F1FF30A0632168DD
S2140812A029B941F66D72C0F208029047606023695A
S2140812B0F3B104F1100041F6D951C0F2080188478D
S2140812C0012815D140F6D520C0F2080080470FE067
S2140812D0E560606A60B104F1240041F6D951C0F2B5
S2140812E00801884720B140F6D522C0F20802904788
S2140812F040F62132C0F2080290474FF0010071E034
S214081300019A3AB940F62132C0F2080290474FF0E7
S214081310000067E01FB902A8D8474FF00107A847A2
S21408132041F2E973C0F208039847B047606CB0F121
S214081330FF3F04BF00206064A16CB1F1FF3F04BF0B
S2140813400021A164A84702A801A941F6B162C0F22B
S21408135008029047002838D1B047D4F83880A84704
S214081360B8F1000F25D123683BB9B047606841F64D
S214081370A171C0F208018847A84704F12400019922
S21408138041F61152C0F208029047204640F6B15383
S214081390C0F20803984741F6B110C0F2080080472B
S2140813A000287FF469AF40F6D521C0F208018847C7
S2140813B062E7204640F6B151C0F20801884741F678
S2140813C0B112C0F20802904756E7204640F6B153DD
S2140813D0C0F20803984741F6B110C0F208008047EB
S2140813E04FF0000005B0BDE8F08F00BF38B50446E2
S2140813F00D4640F6F923C0F208039847606CB0F132
S214081400FF3F04BF00206064A16CB1F1FF3F04BF3A
S2140814100021A16440F62132C0F208029047A36B6F
S2140814203BB904F12400294641F68552C0F2080269
S2140814309047204640F6B151C0F20801884738BDAB
S21408144010B504464AF6C423C2F207031868446077
S2140814504AF6E021C2F207010A68944211D24AF617
S214081460E422C2F2070210684AF6C423C2F207034F
S214081470196801F1040140F61922C0F208029047E3
S21408148010BD4AF62423C2F2070318684AF6C42198
S214081490C2F20701096801F1040140F61922C0F2F8
S2140814A00802904740F20800C2F2070003689C4210
S2140814B004D240F20801C2F207010C6010BD00BF5A
S2140814C02DE9F84F0F4690469A460A9D0C9E81468F
S2140814D030B940F6E527C0F20807B84700BFFDE771
S2140814E0042D06D940F6E525C0F20805A84700BF32
S2140814F0FDE74FF04C0040F67543C0F208039847E6
S2140815000446002800F02781002E40F022814FEA8A
S214081510880040F67541C0F20801884706462063F1
S21408152030B9204640F67552C0F20802904712E1DC
S21408153030464FF0A5014FEA880244F2C716C0F2BB
S2140815400806B04708F1FF38206B00EB880222F047
S214081550070B04F1340039464FF00A0244F2E52737
S214081560C0F20807B8474FF0000384F83D30042D52
S21408157034BF2E460426E662A66404F104073846FD
S21408158040F6F118C0F20808C04704F11800C04732
S2140815902461C6F10506A661646258464946524665
S2140815A040F69523C0F208039847206010F0070F0E
S2140815B006D040F6E524C0F20804A04700BFFDE7C1
S2140815C00B9901B10C6040F6F920C0F2080080477C
S2140815D04AF60433C2F207031A6802F101021A60D7
S2140815E04AF6C421C2F207010868002849D14AF61B
S2140815F0C421C2F207010C604AF60430C2F20700A2
S2140816000368012B50D14AF65C29C2F207094846FE
S21408161040F6D916C0F20806B04709F11400B047DC
S21408162009F12800B04709F13C00B04709F150001D
S214081630B0474AF6EC29C2F207094846B0474AF6C8
S2140816404428C2F207084046B0474AF6C820C2F205
S2140816500700B0474AF63020C2F20700B0474AF6FD
S2140816601020C2F20700B0474AF62422C2F2070248
S214081670C2F800904AF6E421C2F20701C1F80080D9
S21408168012E04AF62823C2F207031A6862B94AF635
S214081690C421C2F207010868C36A9D4204D34AF609
S2140816A0C422C2F207021460E06A4AF60833C2F29D
S2140816B007031A68904204D94AF60831C2F20701AD
S2140816C008604AF6E823C2F207031A68226402F1A1
S2140816D001021A604AF65821C2F207010B689842BE
S2140816E004D94AF65822C2F20702106000EB8001BD
S2140816F04AF65C200346C2F2070303EB810039462C
S21408170040F6F912C0F20802904740F62131C0F2BE
S214081710080188474AF62820C2F20700036883B102
S2140817204AF6C422C2F207021168C86A85420CD972
S21408173040F6D523C0F2080398474FF00100BDE8ED
S214081740F88F4FF00100BDE8F88F4FF00100BDE8B4
S214081750F88F0663ECE64FF0FF30BDE8F88F00BF61
S21408176010B584B04FF000030093019302930393DF
S21408177041F6FD20C0F2080046F63001C0F2080126
S2140817804FF0820241F2C144C0F20804A047012883
S2140817901FD142F28513C0F208039847012818D1D2
S2140817A040F6E521C0F2080188474AF62823C2F227
S2140817B007034FF001021A604AF6E020C2F207005B
S2140817C04FF00001016040F6D933C0F2080398478D
S2140817D007E030B940F6E520C0F20800804700BFB1
S2140817E0FDE704B010BD00BF4AF6C023C2F20703E7
S2140817F01A6802F101021A60704700BF10B540F679
S214081800F923C0F2080398474AF6E020C2F2070018
S214081810046840F62131C0F208018847204610BD0A
S2140818202DE9F84F4AF6C023C2F2070318680028C5
S21408183040F0B3804AF6E023C2F20703186800F1C6
S214081840010018601968002939D14AF62422C2F224
S21408185007021368186830B140F6E525C0F2080597
S214081860A84700BFFDE74AF62423C2F20703196813
S2140818704AF6E422C2F207021068186011604AF6B7
S214081880DC22C2F20702116801F1010111601B682F
S214081890186838B940F20803C2F207034FF0FF3061
S2140818A018600CE04AF62422C2F207021168CB68D8
S2140818B0D868426840F20801C2F207010A604AF690
S2140818C0E022C2F20702116840F20803C2F20703D8
S2140818D01868814269D34AF62422C2F207021168C0
S2140818E00B687BB14AF62424C2F207042068C26853
S2140818F0D46863684AF6E021C2F2070108688342A2
S2140819001AD912E040F20803C2F207034FF0FF307C
S2140819101860BDE8F88F3468E268D468636848469B
S214081920C2F2070001688B421CD940F20802C2F2D4
S21408193007021360BDE8F88F40F65527C0F208077F
S2140819404AF65828C2F207084AF65C2BC2F2070B7A
S21408195040F6F91AC0F2080A4AF62426C2F2070622
S2140819604AF6E02904F104052846B847A36A13B1E5
S21408197004F11800B847E16AD8F80020914288BFF9
S214081980C8F8001001EB81000BEB80002946D04711
S214081990336819680029BED1B4E74AF60C21C2F2AA
S2140819A007010A6802F101020A60BDE8F88F00BF65
S2140819B02DE9F0474AF6C023C2F20703186830B983
S2140819C040F6E525C0F20805A84700BFFDE740F643
S2140819D0F921C0F2080188474AF6C024C2F2070473
S2140819E0226802F1FF3323602068002878D14AF67F
S2140819F00431C2F207010C684CBB4FF0000474E0D7
S214081A00D8F80C20D46804F11800B84704F1040983
S214081A104846B847E36A3068834288BF3360514611
S214081A20C2F2070103EB830201EB8200494640F647
S214081A30F913C0F2080398474AF6C420C2F2070012
S214081A400168E46ACA6A944228BF01250FE04FF08D
S214081A5000054AF6C828C2F2070840F65527C0F21D
S214081A6008074AF65826C2F207064AF65C2AD8F845
S214081A700020002AC4D14AF60C23C2F207031868CD
S214081A80B0B14AF60C22C2F207021368CBB141F68F
S214081A902105C0F208054AF60C24C2F20704A84736
S214081AA0206800F1FF3121602268002AF7D108E09B
S214081AB0012D06D04AF60031C2F207010C68012C47
S214081AC011D14AF60033C2F207034FF000041C6037
S214081AD040F6D520C0F2080080474FF0010404E025
S214081AE04FF0000401E04FF0000440F62131C0F248
S214081AF0080188472046BDE8F08700BF2DE9F8436F
S214081B004AF62C25C2F2070541F2E978C0F2080821
S214081B104AF63026C2F2070641F6B1172DE0C0474E
S214081B2034683B46C0F20803984734B340F6F920B9
S214081B30C0F208008047F168CC6804F1040040F65B
S214081B405522C0F2080290474AF60433C2F2070349
S214081B50186800F1FF3119602A6802F1FF332B601C
S214081B6040F62130C0F208008047206B40F67559D1
S214081B70C0F20809C8472046C8472B68002BCED1B4
S214081B804AF65C20C2F2070001680129F5D940F63A
S214081B90D522C0F208029047EFE700BF38B50C46DA
S214081BA0054630B940F6E524C0F20804A04700BF51
S214081BB0FDE731B940F6E525C0F20805A84700BF9D
S214081BC0FDE741F2E973C0F208039847286804194C
S214081BD04AF6E022C2F20702116888420AD9A042F1
S214081BE032D94AF6E022C2F2070211682C608C420B
S214081BF01CD909E0A04225D84AF6E023C2F207031A
S214081C00186884421ED81FE04AF6C423C2F20703A7
S214081C10186800F1040040F65522C0F20802904702
S214081C20204641F24141C0F20801884741F6B1100A
S214081C30C0F20800804748B940F6D523C0F208032A
S214081C40984738BD2C60DFE72C60EFE738BD00BF4B
S214081C5008B54AF6C023C2F207031868A8B94AF6B8
S214081C605821C2F207010A6802EB82034FEA830092
S214081C704AF65C21C2F207010A5852BB4AF65823B4
S214081C80C2F20703186888B909E04AF60031C2F2BA
S214081C9007014FF00100086008BD1A6872B940F6DF
S214081CA0E523C0F20803984700BFFDE74AF6582325
S214081CB0C2F207034AF65C21C2F207011A6802F16B
S214081CC0FF3018601A6802EB820051F82020002ABC
S214081CD0E3D04AF65823C2F20703196801EB8100DD
S214081CE04AF65C22C2F2070202EB8003596848688B
S214081CF0586003F10802904204BF406858605B6869
S214081D00D9684AF6C420C2F20700016008BD00BFC1
S214081D1038B50C4630B940F6E524C0F20804A047AA
S214081D2000BFFDE74AF6C425C2F20705296801F197
S214081D30180140F61922C0F208029047286800F1F8
S214081D40040040F65521C0F208018847B4F1FF3F69
S214081D500CD129684AF61020C2F2070001F10401E6
S214081D6040F6F913C0F20803984738BD4AF6E02053
S214081D70C2F207000368E01841F24142C0F20802C6
S214081D80904738BD38B50D4630B940F6E524C0F260
S214081D900804A04700BFFDE74AF6C424C2F20704B9
S214081DA0216801F1180140F6F912C0F208029047BE
S214081DB0206800F1040040F65521C0F20801884763
S214081DC04AF6E020C2F207000368E81841F24142EA
S214081DD0C0F20802904738BD38B5C368DC6834B925
S214081DE040F6E524C0F20804A04700BFFDE704F16A
S214081DF01805284640F65521C0F2080188474AF6D5
S214081E00C020C2F20700026822BB04F10405284677
S214081E1040F65521C0F208018847E06A4AF658227B
S214081E20C2F207021368984204D94AF65821C2F249
S214081E300701086000EB80034AF65C200246C2F2FF
S214081E40070202EB8300294640F6F913C0F208039E
S214081E50984709E04AF6C820C2F20700294640F625
S214081E60F913C0F2080398474AF6C421C2F20701DC
S214081E700A68E06AD36A984234BF0020012038BD59
S214081E8008B5034630B940F6E523C0F2080398477C
S214081E9000BFFDE74AF6DC22C2F2070210681860A7
S214081EA04AF6E021C2F207010A685A6008BD00BF78
S214081EB038B50D46044630B940F6E522C0F20802A9
S214081EC0904700BFFDE731B940F6E525C0F20805A2
S214081ED0A84700BFFDE740F6F923C0F20803984775
S214081EE02868B0F1FF3F29D04AF6DC22C2F2070282
S214081EF0116823688B4207D04AF6E022C2F207022E
S214081F00116863688B421CD94AF6E022C2F20702BF
S214081F1011686368CA1A904216D94AF6E021C2F2D6
S214081F2007010A689B1A18182860204641F681643B
S214081F30C0F20804A0474FF0000407E04FF0000482
S214081F4004E04FF0010401E04FF0010440F62131AF
S214081F50C0F208018847204638BD00BF4AF600335D
S214081F60C2F207034FF001021A6070474AF6C4230C
S214081F70C2F20703186870474AF62823C2F2070316
S214081F80186848B14AF6C021C2F207010A68002A52
S214081F9014BF0220012070474FF00000704700BFB2
S214081FA038B5044600284ED0C36A4AF6C422C2F2A0
S214081FB007021068C16A8B4245D24AF6C422C2F2AA
S214081FC007021068C16AC1F10502A26103EB830328
S214081FD04AF65C20C2F2070000EB830162698A4277
S214081FE02AD104F10405284640F65522C0F2080214
S214081FF090474AF6C423C2F207031868C16AE1622A
S2140820004AF65822C2F207021368994204D94AF6D9
S2140820105820C2F20700016001EB81014AF65C22F3
S2140820201346C2F2070303EB8100294640F6F9126D
S214082030C0F20802904738BD4AF6C423C2F2070326
S2140820401868C16AE16238BD38B5044650B3C26A3A
S214082050836C9A4226D000F10405284640F655219E
S214082060C0F208018847A06CE062C0F10502A261D0
S2140820704AF65823C2F207031968884204D94AF672
S2140820805822C2F20702106000EB80034AF65C2072
S214082090C2F2070000EB8300294640F6F912C0F2A8
S2140820A00802904738BD00BF70B540F6F923C0F265
S2140820B0080398474AF63C30C2F20700016849BB55
S2140820C04AF61035C2F20705284640F6D916C0F279
S2140820D00806B0474AF62434C2F207042046B0473A
S2140820E04AF60C32C2F2070215604AF64033C2F2CC
S2140820F007031C604FF005004FF00C014FF000027C
S21408210040F69573C0F2080398474AF63C31C2F287
S2140821100701086040F62130C0F20800804770BD0D
S21408212010B5044641602061914212D8D01AA169C0
S214082130884221D24AF64033C2F20703186804F1EF
S214082140040140F61922C0F2080290474FF000003A
S21408215010BD9A4201D2994211D24AF60C33C2F205
S2140821600703186804F1040140F61922C0F20802B1
S21408217090474FF0000010BD4FF0010010BD4FF023
S214082180010010BD10B584B042F2A903C0F20803DE
S21408219098474AF63C30C2F207000168B9B14FF0DA
S2140821A0040200924FF0000301930293039342F255
S2140821B02530C0F2080046F63C01C0F208014FF48C
S2140821C0827241F2C144C0F20804A04730B940F612
S2140821D0E524C0F20804A04700BFFDE704B010BD20
S2140821E010B584B04AF63C34C2F2070424682CB30F
S2140821F0019102920390B3B941F67973C0F20803CD
S214082200984701284AF63C33C2F20703186801A922
S21408221007BF069A00230022134641F20104C0F2C3
S2140822200804A0470CE0204601A91A464FF0000310
S21408223041F27514C0F20804A04701E04FF0000010
S21408224004B010BD2DE9F04F85B0824641F2FD730B
S214082250C0F20803984781464AF63830C2F20700AB
S214082260016889454FD22BE0DC682668DD68EC6893
S21408227004F104052846C047616A20468847E06995
S21408228001282CD1A369F218B24209D962602461E8
S2140822903868294640F61923C0F2080398471EE016
S2140822A0CDF800B02046594632465B46039CA04708
S2140822B0A8B940F6E526C0F20806B04700BFFDE715
S2140822C04AF60C37C2F2070740F65528C0F2080847
S2140822D04FF0000B42F2E113C0F2080303933B6889
S2140822E018680028C0D14AF64032C2F207021168C0
S2140822F04AF60C30C2F20700016013604FF0010383
S214082300CAF8003003E04FF00002CAF800204AF688
S2140823103832C2F20702C2F80090484605B0BDE857
S214082320F08F00BF2DE9F04F89B04AF60C3BC2F299
S214082330070B41F2E973C0F20803039342F2452AF9
S214082340C0F2080ADBF800000268002A00F0C48021
S214082350C7683D68039B984704A8D0470646049874
S214082360002850D1B54237D841F6B117C0F2080751
S214082370B847DBF80030D868C46804F1040040F6B3
S2140823805522C0F208029047E16901291ED1A769C3
S2140823902046E91932462B4642F22116C0F20806B4
S2140823A0B047012812D14FF0000300932046194683
S2140823B02A4642F2E115C0F20805A84730B940F6A9
S2140823C0E527C0F20807B84700BFFDE7636A20465E
S2140823D098471DE04FF000054AF63C31C2F2070167
S2140823E00868A91B41F2ED36C0F20806B04741F668
S2140823F0B114C0F20804A04750B940F6D525C0F27B
S2140824000805A84704E041F6B112C0F20802904752
S21408241004A8D04707464AF63C36C2F2070641F2F9
S2140824202525C0F2080540F65528C0F2080842F2ED
S2140824302119C0F2080946E0079C24B1606910B16A
S21408244004F10400C047059A022A26D0032A34D08D
S214082450002A38D1069BA169204659183A46C8472B
S214082460012830D1636A20469847E06901282AD1B6
S214082470A2694FF00003009320461946069C1219DD
S21408248042F2E114C0F20804A047E0B940F6E52598
S214082490C0F20805A84700BFFDE7069BA36133B94D
S2140824A040F6E526C0F20806B04700BFFDE720461E
S2140824B0F9183A463B46C84705E0204640F67551A7
S2140824C0C0F208018847306805A94FF00002134695
S2140824D0A8470028B0D135E70399884704A8D0470D
S2140824E00646049C002C3FF475AF8CE72DE9F843AC
S2140824F00D46904600F1FF30022824D832B34AF63B
S2140825001C46C2F207064AF61847C2F207074FF0FB
S214082510000402F1FF3909F0010930683B68095DDB
S2140825209847A0421ADA14E030683B68295D984755
S21408253000280EDB04F1010430683A68295D9047EC
S21408254000281DDA05E04FF0FF3404E04FF00004E1
S21408255001E04FF0FF342046BDE8F88304F101049B
S214082560A045F8D0B9F1000FDED030683A68295D8A
S21408257090470028EDDB04F10104A045D4D1EAE732
S21408258004F10104A045CFD1E5E700BFF0B48CB054
S21408259006460F4601AC46F64405C0F208050FCDC0
S2140825A00FC40FCD0FC495E8070084E80700019B09
S2140825B0B7FBF3F0B0FBF6F1B1F5807F52D902997C
S2140825C0B7FBF1F2B2FBF6F1B1F5807F4DD9039B6C
S2140825D0B7FBF3F0B0FBF6F1B1F5807F48D9049964
S2140825E0B7FBF1F2B2FBF6F1B1F5807F43D9059B54
S2140825F0B7FBF3F0B0FBF6F1B1F5807F3ED906994C
S214082600B7FBF1F2B2FBF6F1B1F5807F39D9079B3B
S214082610B7FBF3F0B0FBF6F1B1F5807F34D9089933
S214082620B7FBF1F2B2FBF6F1B1F5807F2FD9099B23
S214082630B7FBF3F0B0FBF6F1B1F5807F2AD90A991B
S214082640B7FBF1F2B2FBF6F1B1F5807F25D90B9B0B
S214082650B7FBF3F0B0FBF6F1B1F5807F20D94FF663
S214082660FF7021E04FF000021CE04FF0010219E075
S2140826704FF0020216E04FF0030213E04FF0040298
S21408268010E04FF005020DE04FF006020AE04FF0AA
S214082690070207E04FF0080204E04FF0090201E0E5
S2140826A04FF00A0241EA02200CB0F0BC704700BFA7
S2140826B070B506460C46086858B1896842F28D53CC
S2140826C0C0F2080398474FF6FF71884214D00546B3
S2140826D001E04FF00005606858B1A16842F28D52DB
S2140826E0C0F2080290474FF6FF73984204D045EAB6
S2140826F0004535604FF0000070BD00BF70B40B6831
S2140827008D8A4A6802F00F0425430E8935438A7A73
S21408271045EA42258C7D45EA0446CA7D46EA424596
S2140827200C7E45EA844603F110024FEA4215441926
S2140827304651CE6866600A6900EB4315C5F80C2258
S2140827408C7D3CB18E8B4A8B42EA064500EB4314DF
S214082750C4F81852856C4FF0011606FA03F66FEAAD
S21408276006021540CE7F06FA03F68C7F04FA03F4B9
S21408277044EA06442C438464456C2A4091F8215068
S21408278005FA03F591F8204004FA03F444EA0544F0
S214082790224342644FF0010202FA03F291F8224003
S2140827A01CB1046A1443046203E0046A24EA0204BF
S2140827B0046291F82440012C846E0CBF14439443A1
S2140827C0846691F82540012C846E0CBF44EA0242C8
S2140827D024EA02428266032B0FD8C46E4FEAC3036C
S2140827E04FF0FF0202FA03F224EA020291F82310DD
S2140827F001FA03F31A43C26610E0A3F10403046F58
S2140828004FEAC3034FF0FF0202FA03F224EA020279
S21408281091F8231001FA03F31A4302674FF00000F9
S21408282070BC704710B40C680B69934207D3CA6033
S21408283000EB4410C0F808224FF0000001E04FF605
S214082840FF7010BC704700BF4FF0010303FA01F198
S214082850416070474FF0010303FA01F18160704749
S21408286010B44FF0AC0303600A684C68B2FBF4F38C
S2140828704FEA131303F1FF344FF6FE7294420CD856
S21408288003628968416040F20223C0F820314FF0A5
S214082890500202604FF0000001E04FF0010010BC4B
S2140828A0704700BF436913F0020F03D0C1614FF0B1
S2140828B0000070474FF00100704700BF436913F0EF
S2140828C0010F04D0806908704FF0000070474FF081
S2140828D001007047436913F0020F07D04FEAC15151
S2140828E04FEAD152C2614FF0000070474FF0010026
S2140828F0704700BF436913F0010F08D080694FEA9C
S214082900C0524FEAD2530B604FF0000070474FF0AA
S2140829100100704710B54FF43D40C0F2015043F235
S2140829200143C0F2080398474FF000004FF03E01FD
S21408293042F6D972C0F20802904743F24904C0F240
S2140829400804A0470028FCD043F25900C0F208004B
S21408295080474FF4C061C4F20E0143F60173C2F219
S2140829600D038B6243F26904C0F20804A0470028EE
S214082970FCD04FF0100042F63972C0F208029047B9
S21408298043F23920C0F2080080474FF43D40C0F2B9
S214082990015043F20141C0F20801884710BD00BF4C
S2140829A010B541F65023C4F20E034FF400425A60A5
S2140829B04FF00B0043F27904C0F20804A0474FF02A
S2140829C00C00A0474FF00D00A0474FF00E00A047A0
S2140829D04FF03B004FF0605142F68D44C0F20804B9
S2140829E0A0474FF055004FF06051A0474FF05600F3
S2140829F04FF06051A0474FF068004FF07901C2F6DB
S214082A000001A0474FF05C004FF00101C2F600013C
S214082A10A0474FF46060C4F20E004FF440714FF0C8
S214082A20006242F6B133C0F20803984710BD00BFF3
S214082A300AB1416670470166704700BF4264B1F14B
S214082A40805F16D004D8C9B1B1F1006F15D109E07E
S214082A50B1F1405F12D0B1F1605F0FD0B1F1205FE5
S214082A600BD17047036F016F0B4023EA020303671D
S214082A7003E0036F42EA030101674260704700BF44
S214082A8041647047F8B504460D4616461F4642F69A
S214082A908123C0F20803984720462946069A42F63C
S214082AA03123C0F2080398470FB1256500E0656535
S214082AB00EB1256300E0656325612560F8BD00BF9B
S214082AC070B504460D46164642F68123C0F2080342
S214082AD098472046294606F0010242F63123C0F2FE
S214082AE00803984716F00A0F14BF2562656216F0A9
S214082AF0020F02D0C4F8805004E016F0080F18BF82
S214082B00C4F884506561256070BD00BFF0B583B019
S214082B1007460C4616461D46B1F1205F22D006D859
S214082B20B1F1006F0AD0B1F1805F39D106E0B1F19A
S214082B30405F21D0B1F1605F32D11DE038462146B2
S214082B40324642F63D23C0F20803984738463146D7
S214082B5005F0010242F63123C0F2080398474FF009
S214082B6001001FE011461A4642F6C123C0F20803C8
S214082B7098474FF0010015E005F001000090384630
S214082B803146B4F1605F14BF00220122C5F380030A
S214082B9042F68524C0F20804A0474FF0010001E081
S214082BA04FF0000003B0F0BDC06C7047806C7047F3
S214082BB0F0B583B007460E46154602F0F044B4F169
S214082BC0205F36D006D8B4F1006F0AD0B4F1805F23
S214082BD04DD11AE0B4F1405F33D0B4F1605F46D10E
S214082BE02FE04FF00061324642F63D23C0F208035C
S214082BF098473846314605F0010242F63123C0F2BE
S214082C00080398474FF0010033E04FF080513246F2
S214082C1042F63D23C0F2080398473846314605F089
S214082C20010242F63123C0F2080398474FF001002C
S214082C301FE042F6C123C0F2080398474FF0010090
S214082C4017E005F0605205F001000090384631465E
S214082C50B2F1605F14BF00220122C5F3800342F67A
S214082C608524C0F20804A0474FF0010001E04FF0A9
S214082C70000003B0F0BD00BF4FEA501000F5001189
S214082C8001F207724FEA4220704700BFF0B583B0E2
S214082C9007460D4642F67943C0F2080398470646AB
S214082CA005F0F044B4F1205F41D006D8B4F1006FC7
S214082CB00AD0B4F1805F62D120E0B4F1405F44D01E
S214082CC0B4F1605F5BD140E007F01F004FF00104ED
S214082CD004FA00F730464FF000613A4642F63D23C4
S214082CE0C0F2080398473046394605EA040242F619
S214082CF03123C0F208039847204642E007F01F0732
S214082D004FF0010404FA07F74FF080513A4642F6AE
S214082D103D23C0F2080398473046394605EA0402C0
S214082D2042F63123C0F208039847204629E007F008
S214082D301F024FF0010404FA02F12A4642F6C123A4
S214082D40C0F20803984720461BE007F01F014FF023
S214082D50010405F0605205EA04000090304604FAC3
S214082D6001F1B2F1605F14BF00220122C5F38003AF
S214082D7042F68525C0F20805A847204601E04FF030
S214082D80000003B0F0BD00BF70B506460C4642F61C
S214082D90A933C0F2080398470546304642F6AD31D7
S214082DA0C0F208018847054000F08C804AF6443097
S214082DB0C2F207000068A0420CD14AF64432C2F2BA
S214082DC0070251680D4205D01646D36898477168C1
S214082DD08D4377D04AF64430C2F207000069A04215
S214082DE00CD14AF64432C2F2070251690D4205D0A8
S214082DF01646D369984771698D4363D04AF64430BE
S214082E00C2F20700006AA0420CD14AF64432C2F267
S214082E100702516A0D4205D01646D36A9847716A6A
S214082E208D434FD04AF64430C2F20700006BA042EA
S214082E300CD14AF64432C2F20702516B0D4205D055
S214082E401646D36B9847716B8D433BD04AF6443091
S214082E50C2F20700006CA0420CD14AF64432C2F215
S214082E600702516C0D4205D01646D36C9847716C14
S214082E708D4327D04AF64430C2F20700006DA042C0
S214082E800CD14AF64432C2F20702516D0D4205D003
S214082E901646D36D9847716D8D4313D04AF6443065
S214082EA0C2F20700006EA0420CD14AF64432C2F2C3
S214082EB00702516E294205D04AF64433C2F2070388
S214082EC0DA6E904770BD00BF08B54FF46060C4F274
S214082ED00E004FF00B0142F68953C0F208039847DC
S214082EE008BD00BF08B54FF48050C4F20E004FF07E
S214082EF00C0142F68953C0F20803984708BD00BF84
S214082F0008B54FF49050C4F20E004FF00D0142F68B
S214082F108953C0F20803984708BD00BF08B54FF4A8
S214082F20A050C4F20E004FF00E0142F68953C0F2CC
S214082F300803984708BD00BF4FF4C063C4F20E03E9
S214082F401A6B22F0700108431863986E10F0080F89
S214082F5007D010E000F1FF33906E10F0080F38D05D
S214082F6009E04FF400604FF4C062C4F20E02916E9E
S214082F7011F0080FEED04FF4C061C4F20E010A6BD0
S214082F8022F0030343F002000863896E11F0080F6D
S214082F9009D04FF00000704703F1FF33916E11F02F
S214082FA0080F13D009E04FF400634FF4C062C4F270
S214082FB00E02906E10F0080FEED04FF0000070472B
S214082FC04FF0010070474FF001007047013BF0D109
S214082FD0F9E7581ECBD1F3E788B14FF4C061C4F2C5
S214082FE00E01086A4FF6FC72CFF6C86202404FF030
S214082FF00203C0F2371342EA0300086270474FF430
S214083000C063C4F20E031A6A22F45C1020F00302AE
S21408301042F45C1040F001024FEA016142EA1140B6
S21408302018624FF4C062C4F20E02936E13F0010FDA
S214083030FBD04FF4C061C4F20E01086A40F09B72E0
S21408304042F480330B6270474FF4C063C4F20E0339
S214083050986E00F4803070474FF4C063C4F20E03D5
S2140830604FF000529A6270474FF4C063C4F20E03E2
S214083070986E00F0020070472C2835D81F2817D8FD
S2140830804FF4C061C4F20E018A694FF0010303FAD7
S21408309000F31A4093422AD04FF0010101FA00F0DB
S2140830A04FF4C062C4F20E0210614FF00000704781
S2140830B04FF4C063C4F20E03D3F80821A0F1200031
S2140830C04FF0010101FA00F10A40914212D04FF088
S2140830D0010303FA00F04FF4C062C4F20E02C2F80D
S2140830E000014FF0000070474FF0010070474FF0A6
S2140830F0000070474FF00000704700BFFEE700BFB3
S21408310038B540F20003C2F2070346F65412C0F27E
S21408311008029A4203D040484049814204D3404BB3
S214083120404A9A4225D342E03F4D404C631B23F069
S21408313003054FF0000340F20002C2F2070246F60B
S2140831405411C0F2080105F10400C5F380045D5867
S2140831509D5003F10403834255D1E0E75D589D5026
S21408316003F104035C589C5003F104038342F5D131
S214083170D5E72F4D2F49481B20F0030440F6D0030F
S214083180C2F20703E2184FF00001501BA0F104003A
S214083190C0F3800445F8041F95422DD107E005F1D9
S2140831A00403696005F1080559609542F7D140F2B5
S2140831B00005C0F2080525F0604222F07F014FF4B2
S2140831C06D40CEF20000816005F16044B4F5801FC2
S2140831D007D24FF46D43CEF200039D6845F00052C7
S2140831E09A6044F22911C0F20801884743F2057034
S2140831F0C0F208008047FEE7002CD0D045F8041F30
S2140832009542CCD1D3E7002CA8D05C589C5003F14B
S21408321004038342A2D182E7D008072000000720D3
S21408322024AC0720D008072004000720D30807206E
S214083230CC0807201FAC07204FF4C063C4F20E0367
S214083240186B00F00301032900F2B180DFE801F0F3
S21408325002144F4F41F61020C4F20E00416911F0D7
S214083260800F40F20C03C2F2070314BF4FF400426B
S2140832704FF4FA421A609AE04FF4C063C4F20E03A1
S214083280186A10F0807F09D04FF4D853C0F2B703FD
S21408329040F20C02C2F20702136088E04FF4106195
S2140832A0C0F23D0140F20C02C2F2070211604FF470
S2140832B0C063C4F20E03186A00F07001102902D029
S2140832C0202974D109E04FF49050C0F27A0040F2F9
S2140832D00C01C2F20701086069E04FF4D853C0F247
S2140832E0B70340F20C02C2F2070213605FE04FF425
S2140832F0C062C4F20E02136A13F0807F09D04FF43E
S214083300D851C0F2B70140F20C02C2F207021160AF
S21408331027E04FF41060C0F23D0040F20C01C2F204
S214083320070108604FF4C062C4F20E02136A03F085
S2140833307000102802D0202813D109E04FF49053CB
S214083340C0F27A0340F20C00C2F20700036008E0FD
S2140833504FF4D851C0F2B70140F20C02C2F207028D
S21408336011604FF4C063C4F20E03186B00F003013B
S214083370022913D14FF4C061C4F20E01886A896A23
S21408338040F20C03C2F20703C0F30A401A6800FBB7
S2140833900220C9B2B0FBF1F21A6008E04FF4E0531D
S2140833A0C0F64E6340F20C02C2F2070213604FF4F6
S2140833B0C062C4F20E02106B00F0700170290ED1C4
S2140833C040F20C03C2F2070318684AF6AB22CAF6A4
S2140833D0AA22A2FB00014FEA5100186070474FF47A
S2140833E0C063C4F20E031A6B40F20C00C2F2070068
S2140833F0C2F30211036823FA01F30360704700BFA3
S2140834004EF6BF23C0F2211398420CD84FF420631F
S214083410C4F20E034FF0000018604FF44061C4F287
S2140834200E01086070474FF27F01C0F2FA21884209
S2140834300CD84FF42060C4F20E004FF4807101607F
S2140834404FF44062C4F20E021160704748F6FF73EC
S214083450C0F2D03398420CD84FF42061C4F20E0163
S2140834604FF400720A604FF44063C4F20E031A6009
S21408347070474BF2FF31C0F2C44188420CD84FF473
S2140834802063C4F20E034FF440721A604FF4406093
S214083490C4F20E000260704744F67F23C0F25D5304
S2140834A098424FF42060C4F20E0094BF4FF4806236
S2140834B04FF4A06202604FF44061C4F20E010A6045
S2140834C0704700BF4AF6B433C2F20703196841B919
S2140834D04AF6B433C2F207034CF62842C2F2070291
S2140834E01A604AF6B431C2F207010B68181847F694
S2140834F0FC72C2F20802824206DB01464AF6B43083
S214083500C2F20700016001E04FF0FF33184670472B
S2140835104FF0FF30704700BF4FF400534B604FF03A
S214083520000070474FF00100704700BF4FF00000E2
S214083530704700BFF0B583B004460D464FF0000351
S21408354001934FF40060C4F20E0084420DD14FF48C
S2140835500066C4F20E0642F6BD07C0F208073046FB
S2140835602946B8470028FAD12BE04FF40041C4F2A8
S21408357009018C420FD14FF40046C4F2090642F600
S214083580F507C0F20807304601A9B8470028FAD15F
S214083590019828702BE04FF44042C4F20902944286
S2140835A00FD14FF44044C4F2090442F6F506C0F2BF
S2140835B00806204601A9B0470028FAD1019B2B70BF
S2140835C02AE04FF00001C4F20A018C420FD14FF0F6
S2140835D00004C4F20A0442F6F506C0F208062046BD
S2140835E001A9B0470028FAD10198287014E04FF4D2
S2140835F08042C4F20A0294420ED14FF48044C4F2C8
S2140836000A0442F6F506C0F20806204601A9B047A5
S2140836100028FAD1019B2B7003B0F0BD70B50C469C
S2140836204FF40063C4F20E0398420FD14FF40065BE
S214083630C4F20E0542F6A506C0F20806284621463C
S214083640B0470028FAD14FF0010070BD4FF4004192
S214083650C4F2090188420FD14FF40045C4F20905A7
S21408366042F6D506C0F2080628462146B047002886
S214083670FAD14FF0010070BD4FF44042C4F209027F
S21408368090420FD14FF44045C4F2090542F6D506DC
S214083690C0F2080628462146B0470028FAD14FF05F
S2140836A0010070BD4FF00003C4F20A0398420FD120
S2140836B04FF00005C4F20A0542F6D506C0F2080621
S2140836C028462146B0470028FAD14FF0010070BDC1
S2140836D04FF48041C4F20A0188420FD14FF4804566
S2140836E0C4F20A0542F6D506C0F208062846214660
S2140836F0B0470028FAD14FF0010070BD4FF0000027
S21408370070BD00BF30B589B042F61513C0F2080385
S214083710984742F6A110C0F2080080474FF00B0009
S21408372043F27904C0F20804A0474FF00C00A04703
S2140837304FF00D00A0474FF00E00A04740F2A5112D
S214083740C0F2080188474FF00800A0474FF400650C
S214083750C4F20E054AF61C42C2F2070215604AF683
S2140837601843C2F2070343F21D60C0F2080018604F
S2140837704AF6EC31C2F2070143F23552C0F20802AB
S2140837800A604FF43D43C0F2015305934FF4E1300D
S21408379006904FF4006107914FF00800A0472846AE
S2140837A005A942F66104C0F20804A04740F21005D5
S2140837B0C2F207052A6890684FF0000144F2D71451
S2140837C0C0F20804A0472B6858684FF00001A047CD
S2140837D0286880684FF00001A04740F28D41C0F28B
S2140837E00801884740F28132C0F2080290474FF03D
S2140837F0020400944FF0000301930293039340F2EF
S2140838008160C0F2080046F67001C0F208014FF465
S214083810806241F2C144C0F20804A047012802D0E1
S2140838201348144B98474FF0010000904FF00003E0
S21408383001930293039340F64110C0F2080046F63F
S214083840A001C0F208014FF4806241F2C144C0F200
S2140838500804A047012802D007480649884741F2CD
S2140838606172C0F2080290474FF0000009B030BD00
S2140838708068080075410800B468080081F00041B7
S21408388002E000BF83F0004330B54FEA41044FEA38
S214083890430594EA050F08BF90EA020F1FBF54EAD3
S2140838A0000C55EA020C7FEA645C7FEA655C00F06F
S2140838B0E2804FEA5454D4EB5555B8BF6D420CDD40
S2140838C02C4480EA020281EA030382EA000083EAC3
S2140838D0010180EA020281EA0303362D88BF30BD63
S2140838E011F0004F4FEA01314FF4801C4CEA1131B9
S2140838F002D0404261EB410113F0004F4FEA033318
S2140839004CEA133302D0524263EB430394EA050FA2
S21408391000F0A780A4F10104D5F1200E0DDB02FA11
S2140839200EFC22FA05F2801841F1000103FA0EF2A5
S214083930801843FA05F359410EE0A5F120050EF16B
S214083940200E012A03FA0EFC28BF4CF0020C43FA9C
S21408395005F3C01851EBE37101F0004507D54FF0A9
S214083960000EDCF1000C7EEB00006EEB0101B1F5F9
S214083970801F1BD3B1F5001F0CD349085FEA30003F
S2140839804FEA3C0C04F101044FEA445212F5800F4A
S21408399080F09A80BCF1004F08BF5FEA500C50F1E7
S2140839A0000041EB045141EA050130BD5FEA4C0CCA
S2140839B0404141EB010111F4801FA4F10104E9D153
S2140839C091F0000F04BF01460020B1FA81F308BF4A
S2140839D02033A3F10B03B3F120020CDA0C3208DD16
S2140839E002F1140CC2F10C0201FA0CF021FA02F1F1
S2140839F00CE002F11402D8BFC2F1200C01FA02F161
S214083A0020FA0CFCDCBF41EA0C019040E41AA2BF85
S214083A1001EB0451294330BD6FEA04041F3C1CDA4D
S214083A200C340EDC04F11404C4F1200220FA04F06D
S214083A3001FA02F340EA030021FA04F345EA030117
S214083A4030BDC4F10C04C4F1200220FA02F001FAD9
S214083A5004F340EA0300294630BD21FA04F029465B
S214083A6030BD94F0000F83F4801306BF81F48011F4
S214083A700134013D4EE77FEA645C18BF7FEA655C67
S214083A8029D094EA050F08BF90EA020F05D054EA39
S214083A90000C04BF1946104630BD91EA030F1EBF3E
S214083AA00021002030BD5FEA545C05D14000494142
S214083AB028BF41F0004130BD14F580043CBF01F535
S214083AC0801130BD01F0004545F0FE4141F470011B
S214083AD04FF0000030BD7FEA645C1ABF19461046F6
S214083AE07FEA655C1CBF0B46024650EA013406BFF7
S214083AF052EA033591EA030F41F4002130BD00BFB6
S214083B0090F0000F04BF0021704730B54FF4806472
S214083B1004F132044FF000054FF0000150E700BFF3
S214083B2090F0000F04BF0021704730B54FF4806452
S214083B3004F1320410F0004548BF40424FF000013F
S214083B403EE700BF42004FEAE2014FEA31014FEA82
S214083B5002701FBF12F07F4393F07F4F81F06051D1
S214083B60704792F0000F14BF93F07F4F704730B540
S214083B704FF4607401F0004521F0004120E700BFD3
S214083B8050EA010208BF704730B54FF000050AE05A
S214083B9050EA010208BF704730B511F0004502D55B
S214083BA0404261EB41014FF4806404F132045FEA5D
S214083BB0915C3FF4DCAE4FF003025FEADC0C18BF02
S214083BC003325FEADC0C18BF033202EBDC02C2F1F8
S214083BD0200300FA03FC20FA02F001FA03FE40EA8A
S214083BE00E0021FA02F11444C1E600BF70B54FF08A
S214083BF0FF0C4CF4E06C1CEA11541DBF1CEA13556C
S214083C0094EA0C0F95EA0C0F00F0DEF82C4481EAD3
S214083C10030621EA4C5123EA4C5350EA013518BFF3
S214083C2052EA033541F4801143F4801338D0A0FBE0
S214083C3002CE4FF00005E1FB02E506F00042E0FB8D
S214083C4003E54FF00006E1FB03569CF0000F18BF93
S214083C504EF0010EA4F1FF04B6F5007F64F540743B
S214083C6004D25FEA4E0E6D4146EB060642EAC621CE
S214083C7041EA55514FEAC52040EA5E504FEACE2E3B
S214083C80B4F1FD0C88BFBCF5E06F1ED8BEF1004F3E
S214083C9008BF5FEA500E50F1000041EB045170BDBA
S214083CA006F0004646EA010140EA020081EA0301FE
S214083CB0B4EB5C04C2BFD4EB0C0541EA045170BDFA
S214083CC041F480114FF0000E013C00F3AB8014F174
S214083CD0360FDEBF002001F0004170BDC4F10004BD
S214083CE0203C35DA0C341BDC04F11404C4F120053E
S214083CF000FA05F320FA04F001FA05F240EA020099
S214083D0001F0004221F0004110EBD37021FA04F6CE
S214083D1042EB06015EEA430E08BF20EAD37070BD88
S214083D20C4F10C04C4F1200500FA04F320FA05F0E7
S214083D3001FA04F240EA020001F0004110EBD370E9
S214083D4041F100015EEA430E08BF20EAD37070BD59
S214083D50C4F1200500FA05F24EEA020E20FA04F332
S214083D6001FA05F243EA020321FA04F001F00041E1
S214083D7021FA04F220EA020000EBD3705EEA430E52
S214083D8008BF20EAD37070BD94F0000F0FD101F081
S214083D900046400041EB010111F4801F08BF013CBA
S214083DA0F7D041EA060195F0000F18BF704703F0F8
S214083DB00046520043EB030313F4801F08BF013D7F
S214083DC0F7D043EA0603704794EA0C0F0CEA13553B
S214083DD018BF95EA0C0F0CD050EA410618BF52EAF5
S214083DE04306D1D181EA030101F000414FF00000FB
S214083DF070BD50EA410606BF1046194652EA430609
S214083E0019D094EA0C0F02D150EA013613D195EA7C
S214083E100C0F05D152EA03361CBF104619460AD1C4
S214083E2081EA030101F0004141F0FE4141F47001CE
S214083E304FF0000070BD41F0FE4141F4780170BDBE
S214083E4070B54FF0FF0C4CF4E06C1CEA11541DBF23
S214083E501CEA135594EA0C0F95EA0C0F00F0A7F825
S214083E60A4EB050481EA030E52EA03354FEA013152
S214083E7000F088804FEA03334FF0805545EA131365
S214083E8043EA12634FEA022245EA111545EA10652D
S214083E904FEA00260EF000419D4208BF964244F1C4
S214083EA0FD0404F5407402D25B084FEA3202B61AE3
S214083EB065EB03055B084FEA32024FF480104FF4B7
S214083EC0002CB6EB020E75EB030E22BFB61A75462B
S214083ED040EA0C005B084FEA3202B6EB020E75EBBE
S214083EE0030E22BFB61A754640EA5C005B084FEA26
S214083EF03202B6EB020E75EB030E22BFB61A7546F3
S214083F0040EA9C005B084FEA3202B6EB020E75EBFD
S214083F10030E22BFB61A754640EADC0055EA060EBE
S214083F2018D04FEA051545EA16754FEA06164FEA01
S214083F30C30343EA52734FEAC2025FEA1C1CC0D1AD
S214083F4011F4801F0BD141EA00014FF000004FF03A
S214083F50004CB6E711F4801F04BF01430020B4F1FB
S214083F60FD0C88BFBCF5E06F3FF6AFAEB5EB030CB3
S214083F7004BFB6EB020C5FEA500C50F1000041EBB0
S214083F80045170BD0EF0004E4EEA113114EB5C047D
S214083F90C2BFD4EB0C0541EA045170BD41F4801150
S214083FA04FF0000E013C90E645EA060E8DE60CEA58
S214083FB0135594EA0C0F08BF95EA0C0F3FF43BAF75
S214083FC094EA0C0F0AD150EA01347FF434AF95EA2C
S214083FD00C0F7FF425AF104619462CE795EA0C0F10
S214083FE006D152EA03353FF4FDAE1046194622E7DD
S214083FF050EA410618BF52EA43067FF4C5AE50EAB7
S21408400041047FF40DAF52EA43057FF4EBAE12E7A6
S2140840104FEA410212F5001215D211D56FF47873E3
S214084020B3EB625212D94FEAC12343F0004343EA86
S214084030505311F0004F23FA02F018BF4042704761
S2140840404FF00000704750EA013005D111F00040EB
S21408405008BF6FF0004070474FF00000704700BF81
S2140840602DE9F8439846234B06461C680F46D4F8B5
S2140840704801914618B904F5A670C4F84801416885
S2140840801F2916DD1C4818B94FF0FF30BDE8F88325
S2140840904FF4C87001F066FB0028F5D0D4F8482124
S2140840A0002545600260C4F84801C0F88851C0F889
S2140840B08C51B6B14468012202FA04F2D0F888118D
S2140840C000EB84031143022EC3F88890C0F88811C9
S2140840D01C46C3F8088104D1D0F88C311A43C0F8BE
S2140840E08C2141688B1C4A1C40F8237042600020D3
S2140840F0BDE8F883D86808006557080070B5084B0F
S214084100084C0025E01A841003EB8406043D1CB115
S21408411072599047013CF9E7BDE8704002F00EBCC2
S214084120486908004C69080038B50E4D0E4B002447
S214084130E81A8510AC4205D00B4951F82420904760
S2140841400134F7E702F0F0FB0849094A541AA510AB
S2140841500024AC4205D0054B53F8240080470134B0
S214084160F7E738BD34690800346908003469080080
S2140841703C6908000FB407B5064904AB086853F84D
S214084180042B8168019300F0F7F8BDE80E4004B0F0
S214084190704700BF100007200EB403B503AB53F8F2
S2140841A0042B8168019300F0E7F8BDE80C4003B0E3
S2140841B0704700BF10B50023934203D0CC5CC454AC
S2140841C00133F9E710BD82180346934202D003F87C
S2140841D0011BFAE7704700290CBF022200224FF4A1
S2140841E0806300F001B800002DE9F0411D46374B0A
S2140841F0044618680E461746984618B1826B0AB9E0
S21408420000F06EFE022F5DD8002D5BDB2146D8F845
S214084210000000F073FDA189002001F080031AB2A7
S2140842206060A06122B129482169006800F096FF05
S214084230A189022F21F08303A38112D036BB002D5B
S21408424008BF4FF48065284601F08CFA0646C8B9C0
S2140842504FF4806001F086FA064688B94FF0FF30C2
S21408426000E00020A189002241F00203A38104F1A6
S21408427043010123A260216021616361BDE8F081EA
S2140842804FF48065A28942F08000A081012F05D1F5
S214084290A1896A4241F00103A381A2610B48A28961
S2140842A001680B4B02F0080000B2CB63266026615B
S2140842B0656148B112F0030F18BF0025A5600020FD
S2140842C0BDE8F0814FF0FF30BDE8F0811000072010
S2140842D0554E0800034613F8012B002AFBD1181A7E
S2140842E00138704730B5013903461C463AB111F813
S2140842F0015F013A03F8015B1C46002DF5D19918B9
S2140843008C4203D0002204F8012BF9E730BD0000E8
S21408431093682DE9F04781460F4614461BB953604B
S2140843201846BDE8F0874B6E9B041ED51568A06836
S2140843300835C8B155F8041C55F808AC4FEA91087A
S2140843400026464509DA48465AF826103A4600F046
S21408435043FE431C0BD00136F3E7A2684FEA8808F1
S214084360C8EB0203A360E2E701E000F0ADFF00211E
S214084370A1606160BDE8F0872DE9F04F8946A9B0D5
S21408438014461D461E46824618B1836B0BB900F0CC
S214084390A7FDB9F80C0000F4005211B249B940F470
S2140843A00053D9F86400A9F80C3020F40052C9F874
S2140843B06420B9F80C1001F0080318B248B1D9F80F
S2140843C0102032B1B9F80C1001F01A030A2B16D1D6
S2140843D009E05046494600F025FC0028F2D04FF088
S2140843E0FF320392D3E3B9F90E00002807DB5046E4
S2140843F0494622462B4600F0CEFB0390C7E3002230
S21408440018AD0B950D920C92019405920392A8464E
S21408441001990C4611F8013B0BB1252BF9D1019AED
S214084420A51A19D00C990D984B1C88E82400072B60
S21408443000EB05020D9208F108080C9309DD5046BA
S21408444049460BAAFFF764FF002840F098830DF151
S21408445060080398421903922178002900F088839F
S2140844600022013401948DF827204FF0FF3C049277
S2140844701746019810F8013B0190632B00F0B380B3
S21408448033DC392B1ADC312B80F291802B2B01D1AF
S2140844901A46EEE70ADC232B55D02A2B56D0202BBB
S2140844A040F0F581002A08BF2022E2E72E2B58D0DC
S2140844B0302B79D02D2B40F0EA814FE04F2B00F0BF
S2140844C0DE8007DC442B40F0E2818DF8272047F099
S2140844D0100790E0552B00F01F81582B40F0D7812D
S2140844E0AE4D8DF82720059530E16F2B00F0C9807A
S2140844F010DC692B24D007DC642B21D0682B40F015
S214084500C68147F04007B4E76C2B5FD06E2B40F0AF
S214084510BE8196E0732B00F0DF8006DC702B00F07F
S214084520CD80712B40F0B3815AE0752B00F0F680F1
S214084530782B40F0AC819A4D8DF82720059505E13B
S2140845408DF8272057E047F0010792E7331D3668B5
S214084550002E049615DA704204901E4647F00407AB
S21408456087E7019911F8013B2A2B01910BD1D6F860
S21408457000C0331DBCF1000F03DA1E464FF0FF3CA7
S21408458077E71E4675E74FF0000CA3F130000928C0
S21408459007D801990A2303FB0C0C11F8013B01917B
S2140845A0F3E74CEAEC7C68E747F0800761E7019898
S2140845B00021303B0A2404FB013110F8013BA3F12B
S2140845C03004092C0190F4D9049156E701990B7828
S2140845D06C2B02D1481C019002E047F0100748E710
S2140845E047F0200745E7326800258DF838208DF813
S2140845F02750043655E1BA0607D5073626F00705CC
S21408460005F10806D5E900450FE017F0100F06F18A
S214084610040101D0326805E017F0400F326801D077
S21408462014B200E01446E5170E46002C75F1000299
S21408463080F2B8802D23644265EB45058DF8273057
S214084640B0E017F0200F8DF8272006F1040205D0F9
S214084650039C3568E0172C60686004E0FB0604D508
S2140846603368039919601646D2E63068039C17F03B
S214084670400F06F1040614BF04800460C8E647F03D
S214084680100717F0200008D0F31D23F0070505F1E2
S2140846900806D5E9004500207CE017F0100106F171
S2140846A0040206D117F0400003D0348800251646C9
S2140846B0F1E736680025344616466BE0384B30215D
S2140846C078223468002547F002078DF828108DF800
S2140846D02920043605935CE031460025D1F800B061
S2140846E00436AC458DF82750584611DB62462946F5
S2140846F0CDF800C001F048FADDF800C0002800F048
S214084700D480CBEB0004644540F3D1806446CEE009
S214084710FFF7E0FD0446CAE047F01007BD0606D5D9
S214084720F01D20F0070404F1080630CC0CE017F062
S214084730100F06F1040303D17C0601D5348801E086
S21408474035682C4600251E46012023E0B80607D506
S214084750F41D24F0070101F10806D1E900450CE034
S21408476017F0100F06F1040003D1790601D5348836
S21408477001E03668344600250646FA0709D554EAA5
S214084780050206D030228DF828208DF8293047F00B
S2140847900207022000218DF8271004E0FE680800B2
S2140847A00F6908000120BCF1000FA8BF27F080079A
S2140847B054EA050102D1BCF1000F58D001281DD0DB
S2140847C002280DF15F0341D004F00702E40844EA2A
S2140847D04570E90804460D46303254EA05019B4602
S2140847E01A7003F1FF33EFD1F8075D464AD5302A31
S2140847F048D030229B4605F8012C43E0002D08BF20
S2140848000A2C03D230348DF85F4036E00DF15F0392
S2140848100293204629460A220023CDF800C001F05C
S2140848200FFD0298303200F8012929460A22002393
S214084830DDF808B00290204601F002FD04460D4659
S21408484054EA0501DDF800C0E3D11BE0059904F041
S2140848500F0024090A5C44EA0570290904460D4637
S2140848609B4603F8012954EA0502EFD10AE038B955
S214084870F90705D530208DF85F000DF15F0B01E0D4
S2140848800DF1600B18ADCBEB050465460FE08DF80F
S2140848902720002B00F06C8100258DF838308DF825
S2140848A0275001240DF1380B01E0644605469DF8B3
S2140848B02730AC42ACBF21462946029113B1029874
S2140848C0421C029217F00201069102D0029B981C25
S2140848D0029017F0840207923AD10499029BCB1AE9
S2140848E0002B35DDA048102BC8F800001ADD0C99FF
S2140848F010200D9AC8F80400481C103207280D929C
S21408490008F108080C900BDD504649460BAA0093A0
S214084910FFF7FEFC009B002840F031810DF160088F
S214084920103BDFE70D9AC8F80430D1180C9B0D91A0
S214084930581C072808F108080C9009DD5046494617
S2140849400BAAFFF7E5FC002840F019810DF1600876
S2140849509DF82720D2B10DF12701C8F800100C9950
S21408496001230D98C8F804304B1C421C072B0D92E7
S21408497008F108080C9309DD504649460BAAFFF7CC
S214084980C7FC002840F0FB800DF160080698C8B107
S2140849900AAAC8F800200C9A02210D9BC8F8041031
S2140849A0511C981C07290D9008F108080C9109DD80
S2140849B0504649460BAAFFF7ABFC002840F0DF80BC
S2140849C00DF16008079B802B3AD10498029A831A47
S2140849D0002B35DD6549102BC8F800101ADD0C9A37
S2140849E010210D98C8F80410511C103007290D9096
S2140849F008F108080C910BDD504649460BAA0093AF
S214084A00FFF786FC009B002840F0B9800DF160088F
S214084A10103BDFE70C9A0D98511CC8F8043007299C
S214084A2003440D9308F108080C9109DD50464946E1
S214084A300BAAFFF76DFC002840F0A1800DF1600876
S214084A402D1B002D32DD4948102DC8F8000018DD52
S214084A500C9A0D98531C10211030072BC8F8041018
S214084A600D9008F108080C9309DD504649460BAA34
S214084A70FFF74EFC002840F082800DF16008103DDC
S214084A80E1E70C9A0D9B511CC8F8045007291D44F1
S214084A900D9508F108080C9108DD504649460BAA02
S214084AA0FFF736FC00286AD10DF160080C9A0D98BD
S214084AB0511CC8F8044007290444C8F800B00D94EF
S214084AC008F108030C9107DD504649460BAAFFF784
S214084AD01FFC002853D118AB7A070BD4039B029A05
S214084AE004990D988A42ACBF9B185B18039300285C
S214084AF035D02EE0049C0298241A002CEEDD1A4AC3
S214084B00102C1A6014DD0C9810220D995A60421C5D
S214084B1010310833072A0D910C9207DD5046494696
S214084B200BAAFFF7F5FB002829D118AB103CE6E7DF
S214084B300C995C600D9B481C1C1907280D940C905A
S214084B40CCDD504649460BAAFFF7E2FB0028C5D045
S214084B5015E0504649460BAAFFF7DAFB78B9002558
S214084B600C950DF1600853E4DE680800EE6808004E
S214084B700D9A22B1504649460BAAFFF7C9FBB9F869
S214084B800C1001F0400003B2002B7FF428AC039809
S214084B9029B0BDE8F08F70B50C468989ADF58D6DE6
S214084BA021F00205616EADF80C501991E589E169AE
S214084BB0ADF80E500791656A1AA900910491002174
S214084BC0099506914FF4806569460295059506464F
S214084BD0FFF7D2FB051E07DB3046694600F08EF865
S214084BE0002818BF4FF0FF35BDF80C3003F0400022
S214084BF002B21AB1A18941F04003A38128461AB02F
S214084C000DF5806D70BD30B51346054A05460C4651
S214084C10106829462246BDE83040FFF7ADBB00BF06
S214084C201000072038B52C4B054618680C4618B1F6
S214084C30826B0AB900F054F9A08900F008010BB29B
S214084C400BBB00F0100211B211B94FF0FF3038BD9F
S214084C5000F0040003B293B1216B41B104F14002A5
S214084C60914202D0284600F079FA00212163A089F3
S214084C70216920F024030022A38162602160A089B4
S214084C8040F00803A38122694AB9A18901F420707B
S214084C90B0F5007F03D02846214600F0F7FCA3892C
S214084CA013F0010205D0616900224842A260A061A3
S214084CB007E003F0020108B208B9636900E013468A
S214084CC0A360236933B9A28902F0800108B20028DC
S214084CD0BBD138BD002038BD10000720024B13B1E9
S214084CE0024800F005B8704700000000FD400800C4
S214084CF00146002002460346FFF7B2B92DE9F04107
S214084D000C46054618B1836B0BB900F0E9F8A28982
S214084D1032B302F0080001B2002962D1616842F499
S214084D2000600029A08102DCE36B002B18DDA66A70
S214084D30B6B102F48052002012B22F6828600AB179
S214084D40226D10E001232846E169B047024601308B
S214084D5009D1296839B11D2901D016294ED12F60ED
S214084D600020BDE8F081A68906F004010BB22BB13D
S214084D706068266B121A0EB1E16B521AE1690023BD
S214084D80A66A2846B047411C05D12A681AB11D2ACA
S214084D9001D0162A1FD1A389002123F40062A2811C
S214084DA003F480532269616019B2226021B1421C63
S214084DB001D12A6802B92065216B2F600029CFD05F
S214084DC004F14000814202D0284600F0C7F90020CE
S214084DD02063BDE8F081A38943F04001A181BDE8C6
S214084DE0F0812669002EBBD0920723680CBF626943
S214084DF00022C6EB03082660A26012E0A38943F0EF
S214084E004000A0814FF0FF30BDE8F081676A284671
S214084E10E16932464346B8470028EFDD3618C0EB4E
S214084E200808B8F1000FF1DC9AE7014620B90448F3
S214084E300449006800F0C4BB034B1868FFF75EBF60
S214084E40D8680800FD4C08001000072000207047AE
S214084E5000207047014900F092BB00BFA56108001A
S214084E60002310B50446036043608360818143666F
S214084E70C2810361436183611946082200F15C0020
S214084E80FFF7A1F904480549054A064BE461206284
S214084E906162A262E36210BDD95E0800FF5E080088
S214084EA03B5F08005F5F080070B568254D430E46F7
S214084EB005F10C0100F066FC044640B100F10C0058
S214084EC0002184E84200A0602A46FFF77CF92046C5
S214084ED070BD024B1868FFF7BDBF00BFD868080052
S214084EE038B5836B0446EBB90F4A0125C0F8E032A3
S214084EF0C263856304F53B7103201A46C4F8E402CE
S214084F00C4F8E81260680421FFF7AAFFA068092120
S214084F102A46FFF7A5FFE06812210222BDE83840BE
S214084F20FFF79EBF38BD00BF554E0800F8B51D4BAD
S214084F3007461E68B06B10B93046FFF7D1FF06F576
S214084F403876B4687168013904D4B4F90C5085B160
S214084F506834F8E732680AB13668F2E7384604215A
S214084F60FFF7A2FF30600028F6D10C243C60044608
S214084F7015E04FF6FF730120A081E3816566256082
S214084F80A560656025616561A56104F15C00294638
S214084F900822FFF718F9256365636564A56420464B
S214084FA0F8BD00BFD868080070477047704770475C
S214084FB0024B0349186800F0E2BA00BF1000072049
S214084FC04D4E0800024B0349186800F0D8BA00BFD7
S214084FD010000720514E080093892DE9F341144626
S214084FE003F40052804610B20E4630B9676E43F49A
S214084FF0005147F40053A181636600F029FB01289D
S21408500006D12EB1FF2E03D88DF8046007460FE0B0
S2140850103246404601A904F15C0301F009F8421C37
S214085020074605D1A28942F04000A081384631E003
S2140850300025BD422AD0A16801AB4A1E002AA260FC
S2140850401ADAA06982420CDB21685A5D0A70236866
S21408505019780A2903D001330022236013E040465A
S21408506001E0595D4046224600F088FFB0F1FF3166
S214085070484250EB010206E02068595D017022683C
S214085080531C236000E01AB90135D2E7304601E028
S2140850904FF0FF30BDE8FC81F8B5084C074620689D
S2140850A00E4618B1856B0DB9FFF71AFF206839460A
S2140850B03246BDE8F840FFF78FBF00BF1000072054
S2140850C0F8B5234D0E46044600F086FDAB685F68CB
S2140850D027F0030707F6EF70811B21F47F6222F0A2
S2140850E00F06A6F58056B6F5805F04DA204600F06F
S2140850F074FD0020F8BD0021204600F0DDFEAB68F8
S214085100D9198842F2D17142204600F0D5FE013006
S21408511010D10021204600F0CFFEAB68C21A0F2A35
S214085120E4DD0C4942F0010209685A60401A0A494F
S2140851300860DBE7084BA8681A68BF1B47F001073A
S2140851404760961B20461E6000F047FD0120F8BD0C
S214085150BC040720C4080720BCAB0720F8B50646E1
S2140851600D46002900F0A68000F036FD55F804CC60
S214085170514FA5F108032CF001029C18B968606825
S2140851808C4220F003000CF001011CD1821839B9BA
S21408519055F8081C5B1A98685218D968C160886068
S2140851A0454842F0010159608360444B19688A42B9
S2140851B004D3434A30461168FFF782FF3046BDE8FD
S2140851C0F84000F00ABD606059B955F8085C083721
S2140851D05B1B52199D68BD4205D0DF68EF60BD6055
S2140851E002E0002100E0012125186D6815F0010F86
S2140851F00FD1121849B9A068324DA84205D1EB6004
S214085200AB60D8609860012103E0E068A468E060BD
S214085210846042F0010058609A500029CED1B2F559
S214085220007F0CD2D2089010012404FA00F4224918
S21408523048682043486001EBC200816835E0540A9C
S214085240042C02D89409383416E0142C01D85B34A0
S21408525012E0542C02D8140B6E340DE0B4F5AA7F75
S21408526002D8D40B773407E040F25455AC4202D843
S214085270940C7C3400E07E240F4D05EBC400816856
S21408528081420CD10122A41002FA04F4686844EAA8
S21408529000026A60084608E08968814204D04C68C3
S2140852A024F00304A242F7D3C868D86099608360E4
S2140852B0CB6083E7F8BD00BFBC040720C8080720FA
S2140852C0B8AB0720C404072093682DE9F74F0646B5
S2140852D00C4691460BB900204FE1888900F008017A
S2140852E00AB20AB123695BB930462146FFF79AFC31
S2140852F030B1A189092241F04000A08132603AE12C
S214085300B4F80CA0D9F800800AF0020C0FFA8CF555
S21408531015B34FF0000A574637B9D8F800A0D8F8A2
S214085320047008F10808F7E7B7F5806F34BF3B4606
S2140853304FF480633046E1695246656AA8470028FC
S21408534040F31581D9F8081082443F1A081AC9F89C
S21408535008000028E0D1BEE71AF0010A04D0AB46E0
S21408536001952F46AA46C7E0554635B9D8F800A095
S214085370D8F8045008F10808F7E7A289D4F808B066
S21408538002F4007003B2002B52D05D4540D312F4ED
S214085390906F3BD063694FF0030B0BFB03F3216957
S2140853A0276802207F1A93FBF0FC7B1C581902F42E
S2140853B08062844528BF604613B2019030467BB1B0
S2140853C0019900F0DFF9834698B121693A46FEF75D
S2140853D0F1FEA18921F4906040F08002A2810BE0E2
S2140853E0019A00F0FBFB834630B930462169FFF787
S2140853F0B5FE0C233360BAE001990BEB0703CF1B0D
S214085400C4F810B023606161AB46A7605D4500D262
S214085410AB465A465146206800F0C4FBA06823688D
S214085420CBEB000203EB0B01A2602160AB462AE03F
S2140854302068216988420FD95D450DD951465A46DC
S21408544000F0B0FB2268214602EB0B0020603046D5
S214085450FFF754FCB8B18AE063699D4208D3676ACF
S2140854603046E1695246B847B0F1000B0BDC7EE0E7
S21408547051462A4600F096FBA2682368501B591925
S214085480AB46A0602160D9F80800DA44CBEB0002EE
S214085490CBEB0505C9F80820002A7FF466AF1AE7A3
S2140854A00198002832D020682169D34534BF5B466E
S2140854B053468842A568D4F814E037D97544AB42F9
S2140854C034DD39462A4600F06DFB2068214643192C
S2140854D023603046FFF712FC002848D1BBEB050BCB
S2140854E03DD0D9F808207F19C5EB0A0A551BC9F81C
S2140854F00850002D3FF4EFAEBAF1000FD0D10021CE
S21408550098E88004019108F10808F5E738460A216A
S214085510524600F039FB20B100F10101C7EB010B40
S21408552001E00AF1010B01220192BCE7734508DB92
S214085530656A3046E1693A467346A847051ECDDCDB
S21408554015E01A463946009300F02CFB009B2568A8
S214085550A068E918C21AA26021601D46BEE7304658
S2140855602146FFF7CBFB10B9CDF804B0B9E7A289FE
S21408557042F04003A3814FF0FF30BDE8FE8F2DE9CF
S214085580F04104468846FFF70FFD04F538740026F8
S2140855908CB1A5686768013F0BD4B5F90C3033B1F8
S2140855A0B5F90E00431C02D02846C04706436835A6
S2140855B0F1E72468ECE7FFF7F8FC3046BDE8F08131
S2140855C02DE9F84380468946FFF7EEFC08F538745F
S2140855D0002694B1A5686768013F0CD4B5F90C306D
S2140855E03BB1B5F90E00431C03D040462946C847D0
S2140855F006436835F0E72468EBE7FFF7D6FC304645
S214085600BDE8F88310B514460AB90C4810BD104614
S2140856100B4900F0A8FC0028F7D02046074900F000
S214085620A2FC0028F1D02046064900F09CFC034B5B
S21408563000280CBF1846002010BD00BFDC68080014
S21408564020690800276908000048704740040720BA
S214085650014B186A704700BF40040720004870478F
S2140856606404072000207047004870478404072019
S2140856700A460349034608681946FFF7C3BF00BF32
S214085680100007200048704784040720F0B58B896F
S2140856900C4603F002010AB291B00646002A3FD132
S2140856A0B4F90E1000290DDAA78907F0800247F42E
S2140856B0006310B200280CBF4FF480654025A38114
S2140856C0002720E001AA00F075FD0028ECDB029810
S2140856D000F47045B5F500535F425F41B5F5004FDD
S2140856E00BD1A16A1D4A914207D1A3894FF4806560
S2140856F043F48061A181E56405E0A08940F4006573
S214085700A5814FF480653046294600F03BF870B90D
S214085710A38903F4007210B2E8B943F00201A1812C
S21408572004F14303012223602361626113E0A28926
S2140857300B4942F08003F163A38120602061656114
S2140857404FB13046B4F90E1000F046FD18B1A089E6
S21408575040F00101A18111B0F0BD00BF3B5F080019
S214085760554E0800024B0146186800F00BB800BFFB
S21408577010000720024B01461868FFF7EFBC00BF71
S214085780100007202DE9F04701F10B04162C0646F9
S21408579003D934F0070401D502E010248C4202D263
S2140857A00C253560D9E1304600F016FAB4F5FC7FD2
S2140857B014D2A04DE10805EBC100C568854205D1A5
S2140857C005F108036D698A1C9D4244D0E868A968FB
S2140857D06A68C86022F00303816059E0620A01D152
S2140857E0E2081BE0042A02D8A209383216E0142A76
S2140857F001D85B3212E0542A02D8220B6E320DE032
S214085800B2F5AA7F02D8E20B773207E040F254538B
S2140858109A4202D8A20C7C3200E07E22854800EB31
S214085820C203DD689D4215D0696821F00301081B94
S2140858300F2801DD013A0DE0002809DBEB68AA68AD
S214085840D3609A606B185A6842F00100586090E17D
S214085850ED68E7E7013277490D6901F10807BD42AF
S21408586068D0686820F00303181B0F280CDD2B1976
S2140858704B610B6144F0010440F001016C60DF608D
S2140858809F605960185074E100284F610F6101DB72
S214085890EB18D8E7B3F5007F0FD2DB08981001277E
S2140858A007FA00F7486807434F6001EBC3018B68A7
S2140858B0E960AB60DD608D603CE0580A042802D8D9
